:100000000C946F030C9497030C9497030C94970330
:100010000C9497030C9497030C9497030C949703F8
:100020000C9497030C9497030C94FF0E0C946E0F92
:100030000C9497030C9497030C9497030C949703D8
:100040000C9497030C9497030C9497030C949703C8
:100050000C9497030C9497030C9497030C94A011A1
:100060000C9497030C9497030C9497030C949703A8
:100070000C9497030C9497030C9497030C94970398
:100080000C9497030C9497030C9497030C94970388
:100090000C9497030C9497030C9497030C94970378
:1000A0000C9497030C9497030C94970300000000A2
:1000B000003E5B4F5B3E3E6B4F6B3E1C3E7C3E1CEE
:1000C000183C7E3C181C577D571C1C5E7F5E1C0034
:1000D000183C1800FFE7C3E7FF0018241800FFE7EB
:1000E000DBE7FF30483A060E2629792926407F05AE
:1000F0000507407F05253F5A3CE73C5A7F3E1C1CC4
:1001000008081C1C3E7F14227F22145F5F005F5F83
:1001100006097F017F006689956A6060606060946F
:10012000A2FFA29408047E040810207E2010080874
:100130002A1C08081C2A08081E101010100C1E0C7F
:100140001E0C30383E3830060E3E0E060000000011
:100150000000005F00000007000700147F147F14F8
:10016000242A7F2A1223130864623649562050003D
:1001700008070300001C2241000041221C002A1C29
:100180007F1C2A08083E0808008070300008080814
:100190000808000060600020100804023E51494534
:1001A0003E00427F400072494949462141494D3352
:1001B0001814127F1027454545393C4A49493141B9
:1001C000211109073649494936464949291E000087
:1001D00014000000403400000008142241141414DC
:1001E0001414004122140802015909063E415D59C8
:1001F0004E7C1211127C7F494949363E41414122D1
:100200007F4141413E7F494949417F090909013EFA
:10021000414151737F0808087F00417F4100204021
:10022000413F017F081422417F404040407F021C33
:10023000027F7F0408107F3E4141413E7F0909094A
:10024000063E4151215E7F09192946264949493216
:1002500003017F01033F4040403F1F2040201F3FDC
:100260004038403F63140814630304780403615961
:10027000494D43007F4141410204081020004141A3
:10028000417F04020102044040404040000307084F
:100290000020545478407F2844443838444444284B
:1002A000384444287F385454541800087E090218F2
:1002B000A4A49C787F0804047800447D400020407A
:1002C000403D007F1028440000417F40007C0478BE
:1002D00004787C080404783844444438FC18242406
:1002E0001818242418FC7C08040408485454542486
:1002F00004043F44243C4040207C1C2040201C3C03
:100300004030403C44281028444C9090907C4464F9
:10031000544C44000836410000007700000041368C
:10032000080002010204023C2623263C1EA1A16112
:10033000123A4040207A3854545559215555794144
:100340002154547841215554784020545579400C1B
:100350001E527212395555555939545454593955FC
:100360005454580000457C410002457D420001453F
:100370007C40F0292429F0F0282528F07C545545AC
:10038000002054547C547C0A097F4932494949323F
:100390003248484832324A4848303A4141217A3A54
:1003A00042402078009DA0A07D39444444393D401E
:1003B00040403D3C24FF2424487E4943662B2FFCCB
:1003C0002F2BFF0929F620C0887E09032054547979
:1003D000410000447D413048484A32384040227A4A
:1003E000007A0A0A727D0D19317D2629292F2826C7
:1003F0002929292630484D402038080808080808CF
:100400000808382F10C8ACBA2F102834FA00007B27
:10041000000008142A142222142A1408950022002D
:1004200095AA005500AAAA55AA55AA000000FF00E7
:10043000101010FF00141414FF001010FF00FF1024
:1004400010F010F0141414FC001414F700FF000056
:10045000FF00FF1414F404FC141417101F10101FD5
:10046000101F1414141F00101010F0000000001FC3
:10047000101010101F10101010F010000000FF10CE
:100480001010101010101010FF10000000FF1400CA
:1004900000FF00FF00001F10170000FC04F41414FC
:1004A0001710171414F404F40000FF00F7141414C8
:1004B00014141414F700F7141414171410101F1048
:1004C0001F141414F4141010F010F000001F101F6B
:1004D0000000001F14000000FC140000F010F010D9
:1004E00010FF10FF141414FF141010101F00000050
:1004F00000F010FFFFFFFFFFF0F0F0F0F0FFFFFF54
:100500000000000000FFFF0F0F0F0F0F38444438AA
:10051000447C2A2A3E147E02020606027E027E02E5
:1005200063554941633844443C04407E201E200604
:10053000027E020299A5E7A5991C2A492A1C4C7241
:1005400001724C304A4D4D303048784830BC625AC8
:10055000463D3E494949007E0101017E2A2A2A2A58
:100560002A44445F444440514A444040444A514034
:100570000000FF0103E080FF000008086B6B0836F5
:1005800012362436060F090F060000181800000066
:100590001010003040FF0101001F01011E00191D55
:1005A0001712003C3C3C3C0000000000F0F89C8E20
:1005B0008783878E9CF8F00000FEFF03030303038C
:1005C000070EFCF80000FEFF0303030303070EFC05
:1005D000F80000FFFF00000000000000FFFF000027
:1005E000FEFF8383838383C7EE7C380000F8FC0E14
:1005F00007030303070EFCF800003F7FE0C0808084
:10060000C0E07F3FFFFF01010101010101FFFF0089
:1006100000FFFF0C0C0C0C1C3E77E3C100007FFFB9
:10062000C0C0C0C0C0E0703F1F00001F3F70E0C0EE
:10063000C0C0E0703F1F00007FFFC1C1C1C1C1E366
:10064000773E1C00001F3F70E0C0C0C0E0703F1F3D
:10065000000000000001FFFF01000000D5F08D1434
:10066000A1C881CFD9F1AF2000080B00020202001F
:100670000009040000010202000005240010010529
:100680002401010104240206052406000107058156
:100690000310004009040100020A000000070502DF
:1006A0000240000007058302400000040309041211
:1006B000010002EF020140412337800001010203E3
:1006C0000141726475696E6F204C4C430041726445
:1006D00075696E6F204D6963726F000028121124D6
:1006E0001FBECFEFDAE0DEBFCDBF11E0A0E0B1E08A
:1006F000E0E8F0E402C005900D92A839B107D9F7FF
:1007000026E0A8E9B1E001C01D92AD35B207E1F7DE
:1007100013E0CFE6D3E004C02197FE010E940E1F34
:10072000CE36D107C9F70E94A6130C943E200C9434
:100730000000A9E0B6E0ED91FD91108211821282D5
:10074000138214821582168286E0A132B80799F7C7
:10075000A1E2B6E0ED91FD91108211821282138226
:1007600086E0A933B807B1F71092400610923D0613
:10077000089580910806813009F049C040E050E0BA
:1007800060EA70E440930E0150930F0160931001F2
:100790007093110140E050E068E472E4409312016C
:1007A00050931301609314017093150192E3909399
:1007B0003E0698E390933F0694E690933B0696E1BD
:1007C00090933C06E0910906F0910A069EE690831C
:1007D00097E3918382838383148215821682E0914A
:1007E0000B06F0910C069AE0908399E19183828345
:1007F0001382148215821682E0912106F09122065E
:1008000010828EE1818380E8828382E083839091ED
:100810000806923009F045C040E050E068E472E418
:1008200040930E0150930F016093100170931101DA
:1008300040931201509313016093140170931501BA
:1008400084E680933E0686E180933F0685E08093B0
:100850003B0688E380933C06E0910906F0910A0686
:100860008EE6808387E3818381E0828383831482A1
:1008700015821682E0910B06F0910C062AE0208387
:1008800029E1218382831382148215821682E091EA
:100890002106F091220610828EE1818380E8828316
:1008A000938380910806833009F053C080E090E084
:1008B000A0EAB0E480930E0190930F01A093100181
:1008C000B093110180E090E0A0E7B1E480931201C1
:1008D00090931301A0931401B09315018AE68093BD
:1008E0003B0686E180933C0681E380933E0687E1E8
:1008F00080933F06E0910906F0910A0690E5908307
:1009000087E3818381E08283838314821582168248
:10091000E0910B06F0910C06908394E19183828321
:100920001382148215821682E0912106F09122062C
:1009300088E680832EE121839CE0928382E083839A
:10094000E0912306F09124063CE2308321839283D8
:100950008383809108068430E1F580E090E0A0EA8E
:10096000B0E480930E0190930F01A0931001B09317
:10097000110180E090E0A0E2B1E480931201909335
:100980001301A0931401B093150192E390933E06D6
:100990008AE180933F0684E680933B0627E3209319
:1009A0003C06E0910906F0910A0690838FE081836E
:1009B00081E082838383148215821682E0910B0684
:1009C000F0910C0690832183828313821482158216
:1009D000168280910806853009F05CC040E050E046
:1009E00060EF71E440930E0150930F01609310018A
:1009F0007093110140E050E060E271E44093120115
:100A000050931301609314017093150180933E0677
:100A100089E180933F0683E780933B069FE09093B4
:100A20003C06E0910906F0910A068FE580839183E8
:100A300081E082838383148215821682E0910B0603
:100A4000F0910C0624E12083918382831382148227
:100A500015821682E0912106F091220684E68083B9
:100A600083E281839CE0928382E08383E09123068A
:100A7000F09124062BE420832DE22183928383834B
:100A8000E0912506F091260622E3208327E32183C7
:100A90009283838380910806863009F04FC080E0FE
:100AA00090E0A0EAB0E480930E0190930F01A09330
:100AB0001001B093110180E090E0ACE5B2E48093C6
:100AC000120190931301A0931401B09315019AE4BD
:100AD00090933E0684E180933F0623E720933B06F4
:100AE00027E320933C06E0910906F0910A069083E3
:100AF0009DE2918391E09283938314821582168202
:100B0000E0910B06F0910C062AE020832CE0218373
:100B100092831382148215821682E0912106F0914D
:100B2000220610828183828392E09383E0912306E0
:100B3000F09124068083118292838383809108063A
:100B4000873009F05EC080E090E0A0EAB0E48093D6
:100B50000E0190930F01A0931001B093110180E05A
:100B600090E0A0E7B1E48093120190931301A09369
:100B70001401B09315014AE440933E0682E080934D
:100B80003F0693E790933B0697E390933C06E091F2
:100B90000906F0910A063AE03083318321E022838E
:100BA0002383148215821682E0910B06F0910C06C5
:100BB0003083918322831382148215821682E091FE
:100BC0000D06F0910E0628E220839183828323E0B4
:100BD0002383148215821682E0910F06F09110068D
:100BE0004083918382838383148215821682E091ED
:100BF0002306F0912406108294E1918399E1928377
:100C0000838380910806883009F054C080E090E02A
:100C1000A0E2B1E480930E0190930F01A093100124
:100C2000B093110180E090E0A0EAB1E4809312015A
:100C300090931301A0931401B09315014AE44093DB
:100C40003E0682E080933F0693E790933B0697E34E
:100C500090933C06E0910906F0910A063AE0308351
:100C6000318321E022832383148215821682E0914E
:100C70000B06F0910C063083918322831382148239
:100C800015821682E0910D06F0910E062EE120836A
:100C90009183828323E02383148215821682E0915C
:100CA0000F06F09110064083918382838383148220
:100CB0001582168280910806893009F084C080E090
:100CC00090E0A8E8B1E480930E0190930F01A09307
:100CD0001001B093110180E090E0A0EAB0E48093AD
:100CE000120190931301A0931401B093150145E5EF
:100CF00040933E0682E080933F0693E790933B0645
:100D000097E390933C06E0910906F0910A063AE0D9
:100D10003083318321E0228323831482158216825B
:100D2000E0910B06F0910C063083918322831382AD
:100D3000148215821682E0910D06F0910E0629E1CB
:100D400020839183828324E0238314821582168278
:100D5000E0910F06F09110062DE2208391838283AB
:100D600025E02383148215821682E0911106F0910A
:100D7000120621E420839183828326E02383148258
:100D800015821682E0911306F09114064083918338
:100D900082838383148215821682E0911506F09176
:100DA000160629E620839183828393E0938314823D
:100DB00015821682E0912306F0912406108294E1B8
:100DC000918392838383909108069A3009F03FC003
:100DD00040E050E068EF72E440930E0150930F0141
:100DE000609310017093110140E050E06CE572E4F3
:100DF00040931201509313016093140170931501F5
:100E000082E380933E0688E380933F0684E68093E6
:100E10003B0686E180933C06E0910906F0910A06C4
:100E200081E4808385E0818381E08283838384837E
:100E300024E125831682E0910B06F0910C06908345
:100E400097E39183828313821482158216828091A4
:100E500008068B3009F061C080E090E0A8EFB2E4B2
:100E600080930E0190930F01A0931001B093110194
:100E700080E090E0ACE5B2E480931201909313011E
:100E8000A0931401B093150185E580933E0686E199
:100E900080933F062AE020933B0680933C06E09136
:100EA0000906F0910A0683E7808335E0318381E00B
:100EB00082838383848398E295839683E0910B06F3
:100EC000F0910C06208327E321838283138214820E
:100ED00015821682E0910D06F0910E064FE04083D8
:100EE0003183828333E03383848395831682E09158
:100EF0000F06F091100694E690832183828392E09E
:100F00009383148215821682E0912306F0912406C1
:100F100080E48083118292838383809108068C30E1
:100F200009F0C6C080E090E0A0E2B1E480930E0139
:100F300090930F01A0931001B093110180E090E015
:100F4000ACE5B2E48093120190931301A0931401D5
:100F5000B09315012BE420933E0689E180933F0670
:100F600032E330933B0680933C06E0910906F09112
:100F70000A067AE070839DE2918382E08283838314
:100F8000148215821682E0910B06F0910C066EE138
:100F90006083918382838383148215821682E09119
:100FA0000D06F0910E0630839183828343E04383E4
:100FB000148215821682E0910F06F09110062083AC
:100FC000918382831382148215821682E091110626
:100FD000F09112065FE5508391838283138214821D
:100FE00015821682E0911306F091140643E74083C0
:100FF0009183828396E09383148215821682E09116
:101000001506F091160670839FE09183828379E044
:101010007383148215821682E0911706F0911806E8
:1010200060839183828361E06383148215821682D8
:10103000E0911906F0911A0630839183828313821E
:10104000148215821682E0911B06F0911C06208303
:10105000918382832BE02383148215821682E09190
:101060001D06F0911E065083918382832383148290
:1010700015821682E0911F06F0912006408391832D
:1010800082831382148215821682E0912106F091E8
:10109000220690E49083118282839383E091230659
:1010A000F0912406108290E2918390E892838383EA
:1010B000809108068D3009F092C080E090E0A0E2B7
:1010C000B1E480930E0190930F01A0931001B093AF
:1010D000110180E090E0ACE5B2E4809312019093BE
:1010E0001301A0931401B093150176E470933E06AA
:1010F00037E330933F06B8E7B0933B0681E0809337
:101100003C06E0910906F0910A065AE050833183CB
:1011100082838383848398E295831682E0910B0611
:10112000F0910C0629E120836EE16183828342E025
:101130004383848395832FE02683E0910D06F0910D
:101140000E06A2E3A0835183828353E053838483FA
:1011500095839683E0910F06F0911006B083A183EA
:1011600082831382148215821682E0911106F09117
:10117000120670833183828335E0338384839583C1
:101180001682E0911306F09114063FE530836183E7
:10119000828336E03383848395832683E09115062A
:1011A000F09116063EE630832183828327E0238375
:1011B000848395839683E0911706F0911806308317
:1011C000518382831382148215821682E091230652
:1011D000F091240680E4808311824283838380918E
:1011E00008068E3009F0AFC080E090E0A0E8B1E4DE
:1011F00080930E0190930F01A0931001B093110101
:1012000080E090E0ACE0B2E480931201909313018F
:10121000A0931401B093150120E320933E0635E01E
:1012200030933F0648E740933B0683E080933C06BB
:10123000E0910906F0910A0658E0508397E3918304
:1012400081E082838383148215821682E0910B06EB
:10125000F0910C0660E160833183828313821482F3
:1012600015821682E0910D06F0910E0688E18083CA
:10127000918382E082838383148215821682E091B7
:101280000F06F091100668E260839183828364E028
:101290006383148215821682E0911106F091120682
:1012A00064E36083918382831382148215821682A1
:1012B000E0911306F091140666E4608391838283C3
:1012C0001382148215821682E0911506F09116069B
:1012D00062E5608391838283338314821582168250
:1012E000E0911706F091180638E6308391838283E7
:1012F0005383148215821682E0911906F0911A0622
:101300004083918382831382148215821682E09136
:101310002106F09122069EE1908394E191838283DD
:101320002383E0912306F09124063CE330839183EC
:1013300082832383E0912506F09126063AE53083E7
:101340009183828323830895803891058CF59C01D5
:1013500097FF02C030E020E0480F592F511D41385F
:10136000510514F040E850E0421BFB01E770FF27F5
:1013700081E001C0880FEA95EAF777FF02C0695F54
:101380007F4FFB0193E0F595E7959A95E1F7F69588
:10139000FE2FEE27F795E795E20FF31FE854FE4F77
:1013A000415030F09191DF011197982B9C93F8CF29
:1013B000089580E0E8EBF1E081118FEF0024819344
:1013C0008193819381930394D1F7E2E4F6E0128A4A
:1013D000118A108A17860895E8EBF1E0A0E0B8E0E2
:1013E00000800EBC8111012C1197A0FDFDCF019250
:1013F000B9F70DB4089580E00C94EC09462F4770BE
:1014000066956695669590E8699FB00111246854C9
:101410007E4F860F972F911DFC01808190E021E087
:1014200030E0042E02C0220F331F0A94E2F7822319
:10143000932302C0959587954A95E2F70895FC019C
:101440008091B701882311F13FB7F89482E080932F
:10145000E9002091F200822F90E01816190614F48A
:1014600081E090E0882339F0289A44E64093B60161
:101470004091F1004083222339F02091F2002111A4
:1014800003C02BE62093E8003FBF08958FEF9FEF46
:1014900008952FB7F89483E08093E9009091E800D5
:1014A000892F807295FF04C09091F20080E4891B1F
:1014B0002FBF08958091AE0181110DC082E080930D
:1014C000AA0184E08093AB011092AD011092AC01AF
:1014D00081E08093AE018AEA91E00895CF93DF9393
:1014E0001F92CDB7DEB76983DC01ED91FC910280DC
:1014F000F381E02D41E050E0BE016F5F7F4F099521
:101500000F90DF91CF91089583E08093E90080915F
:10151000F200882319F08AE38093E80008950E947E
:10152000490A90E00895CF93DF931F92CDB7DEB7BD
:10153000FC018485958597FD08C02FEF3FEF358727
:1015400024870F90DF91CF910895CE0101960E94DC
:101550001F0A019719F4898190E0F3CF8FEF9FEF75
:10156000F0CF0F931F93CF93DF931F92CDB7DEB7CA
:101570008C01FC018485958597FF0BC0CE010196F7
:101580000E941F0A019771F4898190E0F801958704
:101590008487F801848595850F90DF91CF911F9105
:1015A0000F9108958FEF9FEFF1CFFC018485958512
:1015B00097FD0BC09FB7F89482E08093E90080917B
:1015C000F2009FBF90E0019608959FB7F89482E0E3
:1015D0008093E9008091F2009FBF90E008954091D0
:1015E000A4015091A5012091A2013091A3014217BD
:1015F0005307B4F49091E8009570E1F39091E800FE
:1016000092FD19C08093F1008091A4019091A501F1
:1016100001968F739927892B19F48EEF8093E80038
:101620008091A4019091A50101969093A5018093CA
:10163000A40181E0089580E00895DF92EF92FF9287
:101640000F931F93CF93DF93D82E8A01EB017B0179
:10165000E40EF51ECE15DF0559F0D7FE12C0FE01CF
:1016600084910E94EF0A21968111F4CF0FEF1FEFB2
:10167000C801DF91CF911F910F91FF90EF90DF9004
:1016800008958881EECF0F931F93CF93DF931F921E
:10169000CDB7DEB782E0898342E450E069E676E0C8
:1016A00080E80E941D0B0E945A0ADC0112960D91DF
:1016B0001C910115110589F0D801ED91FC91028072
:1016C000F381E02DBE016F5F7F4FC801099597FD43
:1016D00004C0F80100851185ECCF89810F90DF915E
:1016E000CF911F910F910895615030F02091F1003A
:1016F000FC0120830196F8CF289A84E68093B601F6
:101700000895AF92BF92CF92DF92EF92FF920F9324
:101710001F93CF93DF936C017B018B01040F151F87
:10172000EB015E01AE18BF08C017D10759F06991EF
:10173000D601ED91FC910190F081E02DC601099553
:10174000892B79F7C501DF91CF911F910F91FF9000
:10175000EF90DF90CF90BF90AF9008953FB7F8948F
:101760008091990190919A01A0919B01B0919C0167
:1017700026B5A89B05C02F3F19F00196A11DB11DEC
:101780003FBFBA2FA92F982F8827BC01CD01620F28
:10179000711D811D911D42E0660F771F881F991FE3
:1017A0004A95D1F708958F929F92AF92BF92CF92B0
:1017B000DF92EF92FF926B017C010E94AE0B4B0116
:1017C0005C01C114D104E104F104B9F00E94AE0B34
:1017D000681979098A099B09683E7340810591055A
:1017E00080F321E0C21AD108E108F10888EE880EE2
:1017F00083E0981EA11CB11CE4CFFF90EF90DF9016
:10180000CF90BF90AF909F908F9008958F929F92AE
:10181000AF92BF92CF92DF92EF92FF920F931F93FE
:10182000CF93DF936C017B018A0180910D018823A6
:1018300009F45CC08091B701882309F457C08091F6
:10184000A90180FF05C08091E00082608093E000E4
:10185000E801B12C8AEFA82E93E0892E2AE3922E7C
:10186000209711F4BB20D9F10E94490A81110AC0C6
:10187000AA94AA20D9F161E070E080E090E00E9493
:10188000D30BEECF8C171D0611F00CF08C2F9FB7E9
:10189000F8948092E9002091E80025FD02C09FBFE6
:1018A000DFCF282F30E0C21BD30BF701815020F08F
:1018B00041914093F100FACFE20EF31EBB2021F0DC
:1018C0009092E800B12CEBCF8091E80085FDE7CF46
:1018D0009092E800BB24B394209709F3F3CF5D9A6C
:1018E00084E68093A801101611063CF081E090E098
:1018F000F6019383828310E000E0C801DF91CF916D
:101900001F910F91FF90EF90DF90CF90BF90AF901D
:101910009F908F9008952D9A0895BC0190E080E0EB
:101920000C94D30B8FB18095807F669B88601C9B45
:101930008460089580389105B8F460347105A0F48E
:1019400020E191E061FD94E060FD990F62FD9295C8
:10195000687F269FD0011124A80FA854BE4F8C91F8
:1019600040FF03C0892B8C93089590958923FBCF6A
:101970002F923F924F925F926F927F928F929F929F
:10198000AF92BF92CF92DF92EF92FF920F931F938D
:10199000CF93DF9300D01F92CDB7DEB79B838A83AE
:1019A0007B016A0109838901061B170B17FF03C01E
:1019B00011950195110946018A819B81881A990A1E
:1019C00097FE03C0919481949108801691065CF46F
:1019D0009C2D8D2D6901292F382F9A818B81FB82B7
:1019E000EA82E92EF82E8A819B81C816D9065CF41A
:1019F0009E2D8F2D7901292F382F9A818B81DB82A3
:101A0000CA82C92ED82E16018A819B81281A390ACA
:101A100029014E185F0857FE03C0519441945108A4
:101A2000310137FE03C09FEF691A790A75946794F4
:101A30008FEFE216F3060CF481E0A82E880FBB08A6
:101A40008A819B81C816D906CCF04981BC01C701A7
:101A5000801691061CF0B7018A819B810E949A0C26
:101A60006418750877FE04C0EA0CFB1C620C731C3A
:101A70008A819B8101969B838A83E2CF0F900F908E
:101A80000F90DF91CF911F910F91FF90EF90DF901A
:101A9000CF90BF90AF909F908F907F906F905F900E
:101AA0004F903F902F9008958F929F92AF92BF9248
:101AB000CF92DF92EF92FF920F931F93CF93DF931A
:101AC0005C01EB01042FE22E6034710510F40E94DA
:101AD000A409EC0EFD2EF11CB701615071096034B0
:101AE000710524F4402FC5010E94A409D7FF02C04C
:101AF000D0E0C0E04E01670181E4E816F1041CF07B
:101B000080E4C82ED12C8C149D044CF441E0B40127
:101B1000C5010E949A0C8FEF881A980AECCF0A0D23
:101B20001B2D111D01501109CC15DD053CF441E0C0
:101B3000BE01C8010E949A0C2196F6CFDF91CF9189
:101B40001F910F91FF90EF90DF90CF90BF90AF90DB
:101B50009F908F9008958F929F92AF92BF92CF9255
:101B6000DF92EF92FF920F93CF93DF935B01EC0133
:101B70004C01840E911C6B01C20ED11CC815D905F5
:101B8000D4F47501B7FE02C0F12CE12CC60121E4AA
:101B9000C216D10414F080E490E0E816F9064CF483
:101BA000402FB701CE010E949A0C8FEFE81AF80A75
:101BB000EDCF2196E3CFDF91CF910F91FF90EF9082
:101BC000DF90CF90BF90AF909F908F9008952F920D
:101BD0003F924F925F926F927F928F929F92AF92BD
:101BE000BF92CF92DF92EF92FF920F931F93CF930A
:101BF000DF93CDB7DEB72A970FB6F894DEBF0FBEDE
:101C0000CDBF9A8389836A3061F5DC0155968C914A
:101C1000B8E08B9F90011124E981FA818189928932
:101C2000820F931F928B818B108A178681E090E040
:101C30002A960FB6F894DEBF0FBECDBFDF91CF91CD
:101C40001F910F91FF90EF90DF90CF90BF90AF90DA
:101C50009F908F907F906F905F904F903F902F90CC
:101C600008956D3019F329813A813A872987D9017E
:101C70001F96AD90BC90B0E8AB16B1040CF07BC0E1
:101C8000F901C188D288F0E4CF16D1040CF073C0FA
:101C9000D90155966C90559745E09501649E200DAD
:101CA000311D1124121613060CF065C0262C312CA0
:101CB000910153E0220F331F5A95E1F72C0D3D1D82
:101CC000121613060CF057C05496BC91BB83E985DD
:101CD000FA85F389FC83649FB00111249B0124558C
:101CE0003F4F3A832983712CE981FA818491F5E091
:101CF0007F1201C080E0460138E0532E282F30E0EB
:101D00003E832D834C8080FF4B80411004C03B817B
:101D10008C813817E1F010E000E00615C0F4D50121
:101D2000A00FB11FB887AF83F12CE12CE61460F44B
:101D3000B701680D791D442D8F8198850E949A0CFA
:101D4000BFEFEB1AFB0AF2CF0F5F1F4FE6CF8D817B
:101D50009E81959587955A94820C931C5110CECFF5
:101D60007394E981FA813196FA83E983A20CB31C5A
:101D7000F6E07F12B9CFA985BA8555962C91559773
:101D8000422F50E01F968D919C91B6E02B9F800DC5
:101D9000911D1124E985FA85908B87872689222356
:101DA00009F444CF6AEF64039001659F300D11245C
:101DB00020583F4F281739070CF038CFDF0101902A
:101DC000F081E02D0190F081E02D6AE0CD010995D0
:101DD0002DCF0895089590E080E00895FC010190D2
:101DE0000020E9F73197AF01481B590BBC0182E491
:101DF00096E00C94810B0C94041D0E9439201F92D4
:101E00000F920FB60F9211248F939F938091E10050
:101E10009091E100937F9093E10083FF0FC01092B7
:101E2000E90091E09093EB001092EC0092E3909324
:101E3000ED001092B70198E09093F00082FF22C06D
:101E400093E09093E9009091F200992319F09AE3BE
:101E50009093E8009091A801992341F09091A801F6
:101E600091509093A801911101C05D989091B60195
:101E7000992341F09091B60191509093B601911140
:101E800001C0289884FF18C08091E2008E7E816096
:101E90008093E2008091E1008F7E8093E100809149
:101EA000A9018E7E80618093A9019F918F910F90EF
:101EB0000FBE0F901F90189580FFF7CF8091E20022
:101EC0008E7E80618093E2008091E1008E7E80931F
:101ED000E1008091A9018E7E8160E5CF1F920F9273
:101EE0000FB60F921124CF92DF92EF92FF920F93D1
:101EF0001F932F933F934F935F936F937F938F9392
:101F00009F93AF93BF93EF93FF93CF93DF93CDB79F
:101F1000DEB76C97DEBFCDBF1092E9008091E8007C
:101F200083FF25C068E0CE0145960E94740B82EFC6
:101F30008093E8008D8987FF39C09091E80090FF79
:101F4000FCCF982F907609F034C19E894F89588D27
:101F50002F89F88C911131C0803861F58091A701EB
:101F60008093F1001092F1008EEF8093E8006C9660
:101F70000FB6F894DEBF0FBECDBFDF91CF91FF91BA
:101F8000EF91BF91AF919F918F917F916F915F91F1
:101F90004F913F912F911F910F91FF90EF90DF9004
:101FA000CF900F900FBE0F901F9018959EEF9093BB
:101FB000E800C7CF1092F100D5CF913059F48111CC
:101FC000D3CF4130510581F68091A7018D7F809359
:101FD000A701CACF933049F48111C6CF41305105D2
:101FE00019F68091A7018260F2CF953041F480917B
:101FF000E80080FFFCCF20682093E300B5CF963047
:1020000009F0A9C00B8D1C8D22E01092E9001092FE
:10201000A5011092A401F2122EC01092A3011092F9
:10202000A2010E94430B1F8299E09983FA8291E0FA
:102030009E8390EA98879AEF99872091A401309126
:10204000A501275F3F4F3C832B838D831092E900CE
:102050001092A5011092A4011093A3010093A20174
:1020600049E050E0BE016F5F7F4F80E00E941D0B92
:102070000E94430B79CF1093A3010093A2010E9409
:102080005A0ADC0112960D911C910115110509F4F3
:1020900051C1D801ED91FC910480F581E02DBE0184
:1020A0006B5E7F4FC8010995009709F03EC1F801AA
:1020B00000851185EACFF3E0FF120EC08F898823D7
:1020C00009F440C0823061F440E86DE08DEC96E0A8
:1020D0000E94EA11811148CF81E28093EB0047CF43
:1020E000813029F440E86BE081EC96E0F1CF833059
:1020F00099F70E945A0ADC011296ED90FC908E012D
:102100000F5F1F4F6801E114F10479F0D701ED91E1
:10211000FC910680F781E02DB801C7010995080FF1
:10212000111DF701E084F184EECFD8011C92F60175
:1021300001900020E9F73197BF016C197D0940E05B
:10214000C601C6CF6BEA76E0FB01449150E080E81F
:102150000E941D0B09CF973009F4BECF983021F4AF
:1021600081E08093F10000CF993009F0FDCE8370BB
:1021700009F0B2CFEEE3F1E081E031E096E32191A6
:10218000222371F08093E9003093EB00DF01119777
:102190002C912093EC009093ED008F5F873079F7BE
:1021A0008EE78093EA001092EA008F898093B7014E
:1021B000DBCE8B8D9C8D1092E9001092A5011092C0
:1021C000A4019093A3018093A201898D811192C0F3
:1021D0008E899D89913A49F4813209F07DCF47E09B
:1021E00050E066E071E080E0B3CF913209F074CF47
:1021F000833269F48F89988DB0E0A0E0809302016A
:1022000090930301A0930401B0930501ADCE8032F9
:1022100069F48091E80082FFFCCF67E086E091E0FE
:102220000E94740B8BEF8093E8009ECE823209F0FF
:102230009BCE8F8980930D01EEEFFFE785919491FE
:102240008B3F9C4D51F1E0E0F8E0809106019091C8
:102250000701A0910801B0910901803B9440A105BC
:10226000B105F1F480910D0180FD1AC0EE3F8AE0C6
:10227000F80789F587E797E791838083809160006D
:102280008093A60188E19BE00FB6F894A89580930F
:1022900060000FBE9093600067CEEEEFFAE0D5CFFE
:1022A000808191818737974709F05ECEA89580910C
:1022B00060008861809360008091A6018093600037
:1022C000EE3F2AE0F20789F08091FE0A9091FF0A22
:1022D0009183808349CE808191818737980751F21D
:1022E0009093FF0A8093FE0AC5CF1092FF0A1092C6
:1022F000FE0A3ACE0E945A0ADC0112960D911C91F8
:102300000115110509F4E8CED801ED91FC91019079
:10231000F081E02DBE016B5E7F4FC80109958111F0
:1023200023CEF80100851185EBCF181619060CF4A1
:102330001BCED2CEF1E0FF12BECE6FEA76E004CF24
:102340001F920F920FB60F9211242F933F938F93EA
:102350009F93AF93BF9380919D0190919E01A09117
:102360009F01B091A0013091980123E0230F2D37F8
:1023700058F50196A11DB11D2093980180939D01F0
:1023800090939E01A0939F01B093A0018091990129
:1023900090919A01A0919B01B0919C010196A11D81
:1023A000B11D8093990190939A01A0939B01B093E2
:1023B0009C01BF91AF919F918F913F912F910F9071
:1023C0000FBE0F901F90189526E8230F0296A11DAF
:1023D000B11DD2CFEF92FF920F931F93CF93DF9354
:1023E000F82E192FE62E042F81E0860F880F0E9409
:1023F000EF0A83E00E94EF0ACF2DD12FEC0EFD2EC5
:10240000F11CCE15DF05B9F007FF13C0FE01849162
:102410000E94EF0A182F80E00E94EF0A8123219684
:102420008111EFCFDF91CF911F910F91FF90EF902E
:1024300008958881EDCF81E0F5CFFC0110821182F3
:1024400012821382148215821682178210860895D2
:10245000EF92FF921F93CF93DF93E8EBF5E01382A7
:10246000128288EE93E0A0E0B0E084839583A68397
:10247000B78388E491E0918380838FEF9FEF958706
:102480008487E2E4F6E0138212821186128680E1EC
:1024900083871086178215868AE591E09183808371
:1024A00088E691E095838483108A1786128A118AC0
:1024B00081E0838B148A858B168AC8E0D6E08883F6
:1024C00089E090E00E94141F7C0119E0FC01812F3B
:1024D00011928A95E9F7C7010E941D12FA82E982DA
:1024E00089E090E00E94141F7C01FC01812F119271
:1024F0008A95E9F7C7010E941D12FC82EB8289E0F0
:1025000090E00E94141F7C01FC01812F11928A959A
:10251000E9F7C7010E941D12FE82ED8289E090E07A
:102520000E94141F7C01FC01812F11928A95E9F70A
:10253000C7010E941D12F886EF8289E090E00E9498
:10254000141F7C01FC01812F11928A95E9F7C701C4
:102550000E941D12FA86E98689E090E00E94141F0D
:102560007C01FC01812F11928A95E9F7C7010E9435
:102570001D12FC86EB8689E090E00E94141F7C010E
:10258000FC01812F11928A95E9F7C7010E941D1263
:10259000FE86ED8689E090E00E94141F7C01FC011C
:1025A000812F11928A95E9F7C7010E941D12F88ABE
:1025B000EF8689E090E00E94141F7C01FC01812FCE
:1025C00011928A95E9F7C7010E941D12FA8AE98AD9
:1025D00089E090E00E94141F7C01FC01812F119280
:1025E0008A95E9F7C7010E941D12FC8AEB8A89E0EF
:1025F00090E00E94141F7C01FC01812F11928A95AA
:10260000E9F7C7010E941D12FE8AED8A89E090E079
:102610000E94141F7C01FC0111921A95E9F70E9497
:102620001D12F88EEF8A84E090E00E94141FFC01D6
:1026300010821182128213829A8F898F84E090E037
:102640000E94141FFC0110821182128213829C8F3F
:102650008B8F84E090E00E94141FFC011082118295
:10266000128213829E8F8D8F84E090E00E94141F4F
:10267000FC01108211821282138298A38F8F84E052
:1026800090E00E94141FFC011082118212821382BA
:102690009AA389A384E090E00E94141FFC01108299
:1026A0001182128213829CA38BA384E090E00E948B
:1026B000141FFC0110821182128213829EA38DA32B
:1026C00084E090E00E94141FFC01108211821282AB
:1026D000138298A78FA384E090E00E94141FFC014E
:1026E00010821182128213829AA789A784E090E057
:1026F0000E94141FFC0110821182128213829CA777
:102700008BA784E090E00E94141FFC0110821182CC
:10271000128213829EA78DA784E090E00E94141F6E
:10272000FC01108211821282138298AB8FA719AA22
:102730001AAA1BAA1CAA1DAA1EAA1FAA18AE19AE65
:10274000DF91CF911F91FF90EF900895CF93DF938A
:1027500000D000D0CDB7DEB7789484B5826084BD58
:1027600084B5816084BD85B5826085BD85B5816095
:1027700085BD80916E00816080936E001092810013
:1027800080918100826080938100809181008160CE
:10279000809381008091800081608093800080918F
:1027A000910082608093910080919100816080937C
:1027B0009100809190008160809390008091C10091
:1027C00084608093C1008091C10082608093C100C9
:1027D0008091C10081608093C1008091C3008160BD
:1027E0008093C3008091C00082608093C00080917C
:1027F000C20081608093C20080917A0084608093DF
:102800007A0080917A00826080937A0080917A00C9
:10281000816080937A0080917A00806880937A004A
:102820001092B7011092A7011092A9018091D700D0
:1028300081608093D70080EA8093D80089B5806159
:1028400089BD89B5826089BD09B400FEFDCF61E014
:1028500070E080E090E00E94D30B8091D8008F7CE4
:1028600080618093D8008091E000807F8093E000B9
:102870008091E1008E7E8093E1008DE08093E20004
:10288000559A209A5D98289881EC80937C0085B1B8
:10289000806F85B984B1877E84B984B1876E84B92D
:1028A0005E9A5F988AB1806D8AB9769A6E9881B384
:1028B000806F81BB899880B38D7080BB80E58CBDB3
:1028C00081E08DBD85E090E00E948D0C5F9A85E0EF
:1028D00090E00E948D0C5E985C98ECE5F6E08491A7
:1028E0008EBD00000DB407FEFDCF319626E0E9361F
:1028F000F207A9F75C9A81E88093640080916500F3
:102900008160809365000E94FB090E94920C87FF02
:1029100015C05C9885EA8EBD00000DB407FEFDCFA2
:102920005C9A2E982F982D988091640080628093F5
:10293000640081E083BF889513BEFCCF0E94920C97
:1029400082FF48C02D980E94920C84788438E1F46C
:102950000E948B0C88EC90E00E948D0C2F9882E0F6
:1029600090E00E94041D8F3F29F06FEF82E090E01D
:102970000E940C1D84EF91E00E948D0C2F9A0E9402
:10298000920C84788438D9F30E94920C847184313B
:10299000E1F40E948B0C88EC90E00E948D0C2E9844
:1029A00082E090E00E94041D882329F060E082E02C
:1029B00090E00E940C1D84EF91E00E948D0C2E9AF5
:1029C0000E94920C84718431D9F388EC90E00E94CB
:1029D0008D0CB4CF0E948B0C82E090E00E94FB0E25
:1029E000882309F44EC03E9A3F9A81E090E00E940D
:1029F000FB0E382F3470932E81FF12C031112E98A8
:102A0000B0EF4B2E55245A9408E010E088E5882E4C
:102A10000E94920C86FF38C02E9A2F9A0E948B0C2F
:102A200082E390E00E948D0C0E94920C8111F8CFFD
:102A300081E280934D060E94D9093324339474E0D7
:102A4000272E8FB7F89440919D0150919E0160917F
:102A50009F017091A0018FBF80914E06942F981B0B
:102A6000892F90914F06992309F4A7C080935006AF
:102A700010924F0680E090E0892B19F30E9400002D
:102A8000DCCF3E983F98B1CF992031F044E0441616
:102A9000510411F42E9A2F9881E00E94EC099201C2
:102AA00057FE04C0222733272419350927703327FE
:102AB000C20157FC0796A3E095958795AA95E1F783
:102AC00057FE05C00197D801A21BB30B9D01BC01A5
:102AD0007695762F66277795679568547E4FF12C0B
:102AE000E12C3801621A730A8F3FBFEF9B070CF489
:102AF0003DC08E9CD0018F9CB00D112450E040E071
:102B0000A455BA4F5B01E0E8AE0EB11C8F3F9807A9
:102B100091F0FD01E40FF51FE4916B01C40ED51E89
:102B2000F0E01F01022E01C0220C0A94EAF7F60120
:102B300034882328248A2115310599F0FD01E40FFA
:102B4000F51FE4916501C40ED51EF0E01F01062CAF
:102B500002C0359427940A94E2F7F60134882328BA
:102B6000248A4F5F5F4F4835510581F601966058C2
:102B70007F4FEA94EF28E9F40E94FB098FE090E090
:102B80000E948D0C2FEF421A520A39E1431651046C
:102B900009F03ECF992011F02F9A2D9880E991E00D
:102BA0000E948D0C0E948B0C82E496E00E94C01C57
:102BB00037CFEE24E394F12C97CF90914D068917EF
:102BC00040F48F5F891708F055CF33BE889513BE48
:102BD00051CF30924F0640934E0680914906909116
:102BE0004A06019690934A068093490680914B06C7
:102BF00080934C060E94920C80934B068091A10119
:102C0000811197C00E94D909A0910101AB83B091B5
:102C10000001B9836A2F70E041E08B2F90E00E94A1
:102C20009A0CE981E250E0930001EC3148F4FB8119
:102C3000FE3130F48CE5809300018AE3809301013A
:102C4000809100018C3148F4809101018F3128F08E
:102C50008CE5809300012092010120E440E870E0BF
:102C600060E090E080E00E94540D2EE24EE669E0C4
:102C700070E089E090E00E94540D24E044E063E0BD
:102C800070E088E190E00E94540D24E044E063E0AD
:102C900070E08EE590E00E94540D24E044E069E38A
:102CA00070E088E190E00E94540D24E044E069E384
:102CB00070E08EE590E00E94540D10925206109242
:102CC000510626E130E0309354062093530682E00B
:102CD000809357068AE691E00E94EE0E30925706E6
:102CE0004AE250E050935206409351068DE290E044
:102CF000909354068093530686E791E00E94EE0E6F
:102D00000E94FB0980914C0683FD04C090914B0604
:102D100093FD06C087FD0DC080914B0687FF09C05B
:102D20003092A1018EE0809308060E94B9030E94B0
:102D3000D9098091A101813009F05DC50E94D909AE
:102D400061E2E62E66E0F62EA8E0B6E0BA83A9833B
:102D5000D701ED91FD917D01618170E0808101E0FD
:102D60002381428190E00E94AB0DE9E3F6E0EE158D
:102D7000FF0571F720E440E870E060E090E080E05B
:102D80000E94540DA981BA811196ED91FC91848124
:102D90008130B9F4868190E00196658170E0660F1C
:102DA000771F0E94E61E8683A981BA811196ED9154
:102DB000FC91268195818081291708F073C58F5F6A
:102DC0008083A981BA811196ED91FC918281813035
:102DD00051F461816250770B808124E044E082509D
:102DE000990B0E94540DA981BA811196ED91FC9125
:102DF00082818230D1F461816250770B808124E03E
:102E000044E08250990B0E94540DA981BA81119619
:102E1000ED91FC9161816250770B808100E024E0AC
:102E200042E08150990B0E94AB0DE981FA81329604
:102E3000FA83E98320E236E02E173F0709F0A2CF9C
:102E400060913C0670E080913B0629E047E090E00D
:102E50000E94540D8091400681111BC060913C0678
:102E600070E080913B0601E029E047E090E00E949D
:102E7000AB0D60913C0670E06D5F7F4F80913B062B
:102E800090E0AC014B5F5F4F00E09B0103960E9416
:102E9000B80C80914006811126C060913F0670E019
:102EA0006D5F7F4F80913E0623E043E090E00E94FB
:102EB000540D60913F0670E080913E0690E00196CF
:102EC0009B012D5F3F4F01E0AC010E94B80C609167
:102ED0003F0670E080913E0690E0AC014F5F5F4F8F
:102EE0009B010E94B80CC0900E01D0900F01E090A1
:102EF0001001F09011018090120190901301A090A8
:102F00001401B090150149E056E05A834983712CB1
:102F1000612C2301A981BA810D911D91BA83A983E6
:102F2000F8018281882309F452C0F0812F2F30E00C
:102F30003C832B83B90164507109072E000C880B68
:102F4000990B0E94C41D9B01AC01C701B6010E94F0
:102F5000741E87FD3CC06B817C816C5F7F4F072EA8
:102F6000000C880B990B0E94C41D9B01AC01C7018A
:102F7000B6010E94871D181654F1D8011196BC9114
:102F8000EB2FF0E0FC83EB83BF0164507109072E47
:102F9000000C880B990B0E94C41D9B01AC01C5015C
:102FA000B4010E94741E87FD12C06B817C816C5F2E
:102FB0007F4F072E000C880B990B0E94C41D9B01AC
:102FC000AC01C501B4010E94871D181664F42FEFEF
:102FD000621A720A3CE06316710409F09ACF442425
:102FE0004A9455245A94409223015092240180918E
:102FF0001A0190911B01A0911C01B0911D018093B9
:103000001E0190931F01A0932001B0932101C501DF
:10301000B4010E948C1D4B01C701B6010E948C1D9A
:10302000CB0140E0B4010E949A0C609116017091AE
:10303000170180911801909119010E948C1D7A83CB
:103040006983609112017091130180911401909134
:1030500015010E94931D162F60910E0170910F01B2
:10306000809110019091110149815A8141155105BA
:1030700099F10CF41FC420E030E040E85FE30E94C7
:103080001B1D6B017C01C0920E01D0920F01E092DA
:103090001001F09211010E94931D862F612F0E9452
:1030A000FE09813009F000C420E030E040E85FE331
:1030B000C701B6010E941A1D60930E0170930F01A3
:1030C0008093100190931101109216011092170134
:1030D000109218011092190160911A0170911B0150
:1030E00080911C0190911D010E948C1D7A8369833F
:1030F000C0900E01D0900F01E0901001F0901101EE
:10310000C701B6010E94931D162F609112017091A4
:1031100013018091140190911501E981FA81309792
:10312000D1F120E030E040E85FE31E161F060CF00E
:10313000EFC30E941B1D4B015C0180921201909213
:103140001301A0921401B09215010E94931D812FCA
:103150000E94FE09813009F0D4C320E030E040E84D
:103160005FE3C501B4010E941A1D609312017093C0
:103170001301809314019093150180912301909184
:103180002401019641F410921A0110921B01109231
:103190001C0110921D018090120190901301A090CB
:1031A0001401B090150120E030E040E85FE3C50174
:1031B000B4010E941B1D0E94931D812F0E94FE09D5
:1031C000813009F0D7C320912301309124012F3F92
:1031D0003F4F09F0CFC38093220120E030E040E070
:1031E0005FE360911A0170911B0180911C01909125
:1031F0001D010E94791E60931A0170931B01809338
:103200001C0190931D018091220181114FC04090BB
:103210001A0150901B0160901C0170901D0120E06C
:1032200030E040E05FEBC301B2010E94741E18164B
:10323000B4F420E030E040E05FE3C301B2010E945B
:10324000871D87FF0CC080E090E0A0E0BFE3809383
:103250001A0190931B01A0931C01B0931D01409093
:103260001A0150901B0160901C0170901D0160912B
:10327000310170913201809133019091340120919C
:10328000350122502E3030F42DEC3CEC4CE45EE362
:103290000E94791EA30192010E941B1D60931A01D6
:1032A00070931B0180931C0190931D01C501B40113
:1032B0000E948C1D4B01C701B6010E948C1DCB01E1
:1032C00041E0B4010E949A0C20913601222321F0A2
:1032D0002C3008F02BE021502093360180912301FF
:1032E0009091240197FDF5C02111F3C0880F991F1B
:1032F000FC01E85FF94F01811281D8011396BC915E
:10330000EB2FF0E0FA83E9832DEC3CEC4CE85FE333
:103310006091160170911701809118019091190127
:103320000E94791E60931601709317018093180113
:103330009093190129813A81220F331F285F394F59
:10334000D90111960D90BC91A02DBA83A983129634
:103350008C911297813009F04FC06C91F8018081F7
:10336000680F7727771F072E000C880B990B0E9498
:10337000C41D20910E0130910F0140911001509118
:1033800011010E941A1D60930E0170930F0180932A
:10339000100190931101A981BA8111966C91F801E5
:1033A0008181680F7727771F072E000C880B990BF8
:1033B0000E94C41D2091120130911301409114010B
:1033C000509115010E941A1D609312017093130110
:1033D000809314019093150180911E0190911F011B
:1033E000A0912001B091210180931A0190931B01BB
:1033F000A0931C01B0931D01A981BA8112968C91F2
:103400001297823009F062C06C9170E090E080E029
:103410000E94C41D6B017C01F801608170E090E0A6
:1034200080E00E94C41D20910E0130910F01409157
:103430001001509111010E941A1D9B01AC01C7019E
:10344000B6010E941A1D60930E0170930F018093C4
:10345000100190931101A981BA8111966C9170E0CD
:1034600090E080E00E94C41D6B017C01F801618145
:1034700070E090E080E00E94C41D20911201309124
:10348000130140911401509115010E941A1D9B01D6
:10349000AC01C701B6010E941A1D6093120170931E
:1034A0001301809314019093150180911E01909156
:1034B0001F01A0912001B0912101B05880931A0101
:1034C00090931B01A0931C01B0931D01FAE0F093AF
:1034D000360180914006811164C0C0900E01D090E9
:1034E0000F01E0901001F090110120913E06422F53
:1034F00050E05A834983BA0162507109072E000CCB
:10350000880B990B0E94C41D9B01AC01C701B60139
:103510000E94741E87FD45C069817A816B5F7F4F71
:10352000072E000C880B990B0E94C41D9B01AC0157
:10353000C701B6010E94871D18169CF1C0901201A8
:10354000D0901301E0901401F090150180913F0696
:10355000A82FB0E0BA83A983BD0162507109072E7C
:10356000000C880B990B0E94C41D9B01AC01C70184
:10357000B6010E94741E87FD14C069817A81685F5C
:103580007F4F072E000C880B990B0E94C41D9B01D6
:10359000AC01C701B6010E94871D181614F03092C5
:1035A000400680914006882309F46BC0C0900E014C
:1035B000D0900F01E0901001F0901101E0913B06D6
:1035C0002E2F30E03A832983B90162507109072E0A
:1035D000000C880B990B0E94C41D9B01AC01C70114
:1035E000B6010E94741E87FD4CC069817A81675FB5
:1035F0007F4F072E000C880B990B0E94C41D9B0166
:10360000AC01C701B6010E94871D1816D4F1C09005
:103610001201D0901301E0901401F0901501409137
:103620003C06842F90E09A838983BC016250710923
:10363000072E000C880B990B0E94C41D9B01AC0146
:10364000C701B6010E94741E87FD1BC069817A8183
:10365000665F7F4F072E000C880B990B0E94C41DDC
:103660009B01AC01C701B6010E94871D18164CF0E2
:10367000A3E0A093A101809108068D3011F420925F
:10368000A1010E94920C85FF1AC020912501309162
:1036900026014091270150912801609116017091F7
:1036A000170180911801909119010E941A1D6093D1
:1036B00016017093170180931801909319010E94CD
:1036C000920C86FF1AC0209125013091260140916D
:1036D0002701509128016091160170911701809186
:1036E0001801909119010E941B1D6093160170939F
:1036F0001701809318019093190180914C0687FD62
:103700001AC080914B0687FF16C080912201882342
:1037100091F080912D0190912E01A0912F01B091F7
:10372000300180931A0190931B01A0931C01B09368
:103730001D01309235010E94920C87FF1EC18091BD
:1037400035018F5F809335012AE939E949E15FE36B
:1037500060911601709117018091180190911901E3
:103760000E94791E8B018B83998380902901909010
:103770002A01A0902B01B0902C0175016401F7FA89
:10378000F094F7F8F094A70196010E94871D87FD39
:103790000EC0A5019401B8018B8199810E94741E0D
:1037A0007501640118161CF06801EB80F980C09265
:1037B0001601D0921701E0921801F09219012DEC38
:1037C0003CEC4CE45EE3C701B6010E94871D87FF15
:1037D00012C02DEC3CEC4CE45EEBC701B6010E943C
:1037E000741E181644F410921601109217011092CC
:1037F0001801109219018091A101833029F50E94CE
:10380000D909EEE1F0E0F0935206E0935106F0930F
:103810005406E09353068EE791E00E94EE0E8CE88A
:1038200091E00E94EE0E0E94FB0988EB9BE00E9453
:103830008D0C0E949903809108068F5F8093080683
:103840000E94B9033092A1018091A101843039F521
:103850000E94D90921E230E03093520620935106AC
:103860004EE150E050935406409353068FE891E0A8
:103870000E94EE0E8CE891E00E94EE0E0E94FB0981
:1038800088EB9BE00E948D0C0E94990380910806B2
:103890008F5F809308060E94B9031092A1010E94D5
:1038A000FB09E8C881508CCA89819A8101979A8363
:1038B0008983D2CB20E030E040E85FE30E941A1D0C
:1038C0006B017C01C0920E01D0920F01E0921001B9
:1038D000F09211010E94931D862F612F0E94FE0914
:1038E000813049F420E030E040E85FE3C701B601F1
:1038F0000E941B1DE1CBA981BA811196BA83A983CD
:10390000ABCB29813A81215031093A832983FDCB00
:103910000E941A1D4B015C018092120190921301CA
:10392000A0921401B09215010E94931D812F0E9454
:10393000FE098130C1F420E030E040E85FE3C501DA
:10394000B4010E941B1D60931201709313018093B8
:103950001401909315018091230190912401019607
:1039600009F019CC10CC49815A814F5F5F4F5A83BF
:103970004983CBCB1092220146CC10923501E4CE84
:103980000F931F93CF93DF938C0181E090E00E940F
:10399000FB0E80FF31C08AE090E00E94FB0E9FEF9B
:1039A000980F9E3F48F522E330E0D80150963C93B3
:1039B0002E931F9728E330E052963C932E93519715
:1039C000CBE0D0E0D801ED91FC910190F081E02DA9
:1039D000682FC8010995CE010E94FB0E2196C131C6
:1039E000D10581F70E94FB0988EE93E0DF91CF912A
:1039F0001F910F910C948D0CDF91CF911F910F911E
:103A0000089504970C94C01CF999FECF92BD81BD16
:103A1000F89A992780B50895262FF999FECF1FBAF5
:103A200092BD81BD20BD0FB6F894FA9AF99A0FBEE7
:103A3000019608955058BB27AA270E94321D0C9466
:103A40003A1E0E942C1E38F00E94331E20F039F4DA
:103A50009F3F19F426F40C94291E0EF4E095E7FB21
:103A60000C94231EE92F0E944B1E58F3BA176207CD
:103A700073078407950720F079F4A6F50C946D1E62
:103A80000EF4E0950B2EBA2FA02D0B01B901900179
:103A90000C01CA01A0011124FF27591B99F0593FBD
:103AA00050F4503E68F11A16F040A22F232F342F05
:103AB0004427585FF3CF469537952795A795F04053
:103AC0005395C9F77EF41F16BA0B620B730B840B68
:103AD000BAF09150A1F0FF0FBB1F661F771F881F20
:103AE000C2F70EC0BA0F621F731F841F48F4879578
:103AF00077956795B795F7959E3F08F0B0CF93956A
:103B0000880F08F09927EE0F9795879508950E94E2
:103B1000FF1D08F481E008950E94931D6894B1117F
:103B20000C946E1E08950E94531E88F09F5798F0C3
:103B3000B92F9927B751B0F0E1F0660F771F881FB2
:103B4000991F1AF0BA95C9F714C0B13091F00E94CC
:103B50006D1EB1E008950C946D1E672F782F882795
:103B6000B85F39F0B93FCCF3869577956795B395F3
:103B7000D9F73EF490958095709561957F4F8F4F62
:103B80009F4F0895E89409C097FB3EF49095809567
:103B9000709561957F4F8F4F9F4F9923A9F0F92F13
:103BA00096E9BB279395F695879577956795B79591
:103BB000F111F8CFFAF4BB0F11F460FF1BC06F5F77
:103BC0007F4F8F4F9F4F16C0882311F096E911C089
:103BD000772321F09EE8872F762F05C0662371F0AA
:103BE00096E8862F70E060E02AF09A95660F771FBE
:103BF000881FDAF7880F9695879597F90895990F9A
:103C00000008550FAA0BE0E8FEEF16161706E807A6
:103C1000F907C0F012161306E407F50798F0621BC7
:103C2000730B840B950B39F40A2661F0232B242B9C
:103C3000252B21F408950A2609F4A140A6958FEFBB
:103C4000811D811D089597F99F6780E870E060E00D
:103C500008959FEF80EC089500240A941616170625
:103C600018060906089500240A941216130614066D
:103C700005060895092E0394000C11F4882352F0D0
:103C8000BB0F40F4BF2B11F460FF04C06F5F7F4F88
:103C90008F4F9F4F089557FD9058440F551F59F06F
:103CA0005F3F71F04795880F97FB991F61F09F3F29
:103CB00079F087950895121613061406551FF2CF52
:103CC0004695F1DF08C0161617061806991FF1CFA2
:103CD00086957105610508940895E894BB276627C9
:103CE0007727CB0197F908950E94FF1D08F48FEF05
:103CF00008950E948C1E0C943A1E0E942C1E38F0CF
:103D00000E94331E20F0952311F00C94231E0C9476
:103D1000291E11240C946E1E0E944B1E70F3959F59
:103D2000C1F3950F50E0551F629FF001729FBB27B2
:103D3000F00DB11D639FAA27F00DB11DAA1F649F4E
:103D40006627B00DA11D661F829F2227B00DA11D01
:103D5000621F739FB00DA11D621F839FA00D611D87
:103D6000221F749F3327A00D611D231F849F600DA8
:103D7000211D822F762F6A2F11249F5750409AF0D1
:103D8000F1F088234AF0EE0FFF1FBB1F661F771F5D
:103D9000881F91505040A9F79E3F510580F00C9428
:103DA000231E0C946E1E5F3FE4F3983ED4F3869579
:103DB00077956795B795F795E7959F5FC1F7FE2BC8
:103DC000880F911D9695879597F9089597FB072E73
:103DD00016F4009407D077FD09D00E94FA1E07FC64
:103DE00005D03EF4909581959F4F0895709561950B
:103DF0007F4F0895AA1BBB1B51E107C0AA1FBB1F21
:103E0000A617B70710F0A61BB70B881F991F5A9566
:103E1000A9F780959095BC01CD010895EE0FFF1F85
:103E20000590F491E02D09940F931F93CF93DF93A6
:103E30008230910510F482E090E0E0915B06F09111
:103E40005C0630E020E0B0E0A0E0309799F4211566
:103E5000310509F44AC0281B390B24303105D8F547
:103E60008A819B816115710589F1FB0193838283AE
:103E7000FE0111C040815181028113814817590709
:103E8000E0F04817590799F4109761F012960C93D7
:103E9000129713961C933296CF01DF91CF911F9109
:103EA0000F91089500935B0610935C06F4CF2115E3
:103EB000310551F04217530738F0A901DB019A018F
:103EC000BD01DF01F801C1CFEF01F9CF90935C068E
:103ED00080935B06CDCFFE01E20FF31F8193919398
:103EE0002250310939832883D7CF20915906309148
:103EF0005A06232B41F42091390130913A01309335
:103F00005A06209359062091370130913801211526
:103F1000310541F42DB73EB740913B0150913C0132
:103F2000241B350BE0915906F0915A06E217F3076E
:103F3000A0F42E1B3F0B2817390778F0AC014E5F19
:103F40005F4F2417350748F04E0F5F1F50935A06F6
:103F500040935906819391939FCFF0E0E0E09CCF8E
:103F6000CF93DF930097E9F0FC013297138212821E
:103F7000A0915B06B0915C06ED0130E020E0109767
:103F8000A1F420813181820F931F20915906309135
:103F90005A062817390709F061C0F0935A06E093D2
:103FA0005906DF91CF910895EA01CE17DF07E8F5B2
:103FB0004A815B819E0141155105B1F7E901FB83FF
:103FC000EA8349915991C40FD51FEC17FD0761F49D
:103FD000808191810296840F951FE90199838883DE
:103FE000828193819B838A83F0E0E0E012968D9139
:103FF0009C9113970097B9F52D913C911197CD01A4
:104000000296820F931F2091590630915A06281765
:10401000390739F6309751F510925C0610925B061D
:10402000B0935A06A0935906BCCFD383C283408174
:104030005181840F951FC817D90761F44E5F5F4FF8
:1040400088819981480F591F518340838A819B81C0
:10405000938382832115310509F0B0CFF0935C067C
:10406000E0935B069ECFFD01DC01C0CF138212827C
:10407000D7CF81E090E0F8940C943E20F894FFCFE5
:104080000550FFFFFFFF00E10000000000000000FE
:10409000A0400000A0400000000000000000000060
:1040A000000000FFFF0000803F000000403333139A
:1040B000C09A99993E000000005D06800000C18012
:1040C00081000000000000006E0A060C8F0A840ABE
:1040D000D50A930AB10A00000000E70D810BEB0E30
:1040E000EA0EC01CFCFF0000011D506958656C50B1
:1040F0006F5274416C0050726573732041004C45DF
:1041000056454C20434C4541524544000D0A00544D
:08411000484520454E44000023
:00000001FF
