:100000000C946F030C9497030C9497030C94970330
:100010000C9497030C9497030C9497030C949703F8
:100020000C9497030C9497030C94000C0C946F0C95
:100030000C9497030C9497030C9497030C949703D8
:100040000C9497030C9497030C9497030C949703C8
:100050000C9497030C9497030C9497030C94A10EA3
:100060000C9497030C9497030C9497030C949703A8
:100070000C9497030C9497030C9497030C94970398
:100080000C9497030C9497030C9497030C94970388
:100090000C9497030C9497030C9497030C94970378
:1000A0000C9497030C9497030C94970300000000A2
:1000B000003E5B4F5B3E3E6B4F6B3E1C3E7C3E1CEE
:1000C000183C7E3C181C577D571C1C5E7F5E1C0034
:1000D000183C1800FFE7C3E7FF0018241800FFE7EB
:1000E000DBE7FF30483A060E2629792926407F05AE
:1000F0000507407F05253F5A3CE73C5A7F3E1C1CC4
:1001000008081C1C3E7F14227F22145F5F005F5F83
:1001100006097F017F006689956A6060606060946F
:10012000A2FFA29408047E040810207E2010080874
:100130002A1C08081C2A08081E101010100C1E0C7F
:100140001E0C30383E3830060E3E0E060000000011
:100150000000005F00000007000700147F147F14F8
:10016000242A7F2A1223130864623649562050003D
:1001700008070300001C2241000041221C002A1C29
:100180007F1C2A08083E0808008070300008080814
:100190000808000060600020100804023E51494534
:1001A0003E00427F400072494949462141494D3352
:1001B0001814127F1027454545393C4A49493141B9
:1001C000211109073649494936464949291E000087
:1001D00014000000403400000008142241141414DC
:1001E0001414004122140802015909063E415D59C8
:1001F0004E7C1211127C7F494949363E41414122D1
:100200007F4141413E7F494949417F090909013EFA
:10021000414151737F0808087F00417F4100204021
:10022000413F017F081422417F404040407F021C33
:10023000027F7F0408107F3E4141413E7F0909094A
:10024000063E4151215E7F09192946264949493216
:1002500003017F01033F4040403F1F2040201F3FDC
:100260004038403F63140814630304780403615961
:10027000494D43007F4141410204081020004141A3
:10028000417F04020102044040404040000307084F
:100290000020545478407F2844443838444444284B
:1002A000384444287F385454541800087E090218F2
:1002B000A4A49C787F0804047800447D400020407A
:1002C000403D007F1028440000417F40007C0478BE
:1002D00004787C080404783844444438FC18242406
:1002E0001818242418FC7C08040408485454542486
:1002F00004043F44243C4040207C1C2040201C3C03
:100300004030403C44281028444C9090907C4464F9
:10031000544C44000836410000007700000041368C
:10032000080002010204023C2623263C1EA1A16112
:10033000123A4040207A3854545559215555794144
:100340002154547841215554784020545579400C1B
:100350001E527212395555555939545454593955FC
:100360005454580000457C410002457D420001453F
:100370007C40F0292429F0F0282528F07C545545AC
:10038000002054547C547C0A097F4932494949323F
:100390003248484832324A4848303A4141217A3A54
:1003A00042402078009DA0A07D39444444393D401E
:1003B00040403D3C24FF2424487E4943662B2FFCCB
:1003C0002F2BFF0929F620C0887E09032054547979
:1003D000410000447D413048484A32384040227A4A
:1003E000007A0A0A727D0D19317D2629292F2826C7
:1003F0002929292630484D402038080808080808CF
:100400000808382F10C8ACBA2F102834FA00007B27
:10041000000008142A142222142A1408950022002D
:1004200095AA005500AAAA55AA55AA000000FF00E7
:10043000101010FF00141414FF001010FF00FF1024
:1004400010F010F0141414FC001414F700FF000056
:10045000FF00FF1414F404FC141417101F10101FD5
:10046000101F1414141F00101010F0000000001FC3
:10047000101010101F10101010F010000000FF10CE
:100480001010101010101010FF10000000FF1400CA
:1004900000FF00FF00001F10170000FC04F41414FC
:1004A0001710171414F404F40000FF00F7141414C8
:1004B00014141414F700F7141414171410101F1048
:1004C0001F141414F4141010F010F000001F101F6B
:1004D0000000001F14000000FC140000F010F010D9
:1004E00010FF10FF141414FF141010101F00000050
:1004F00000F010FFFFFFFFFFF0F0F0F0F0FFFFFF54
:100500000000000000FFFF0F0F0F0F0F38444438AA
:10051000447C2A2A3E147E02020606027E027E02E5
:1005200063554941633844443C04407E201E200604
:10053000027E020299A5E7A5991C2A492A1C4C7241
:1005400001724C304A4D4D303048784830BC625AC8
:10055000463D3E494949007E0101017E2A2A2A2A58
:100560002A44445F444440514A444040444A514034
:100570000000FF0103E080FF000008086B6B0836F5
:1005800012362436060F090F060000181800000066
:100590001010003040FF0101001F01011E00191D55
:1005A0001712003C3C3C3C0000000000F0F89C8E20
:1005B0008783878E9CF8F00000FEFF03030303038C
:1005C000070EFCF80000FEFF0303030303070EFC05
:1005D000F80000FFFF00000000000000FFFF000027
:1005E000FEFF8383838383C7EE7C380000F8FC0E14
:1005F00007030303070EFCF800003F7FE0C0808084
:10060000C0E07F3FFFFF01010101010101FFFF0089
:1006100000FFFF0C0C0C0C1C3E77E3C100007FFFB9
:10062000C0C0C0C0C0E0703F1F00001F3F70E0C0EE
:10063000C0C0E0703F1F00007FFFC1C1C1C1C1E366
:10064000773E1C00001F3F70E0C0C0C0E0703F1F3D
:10065000000000000001FFFF01000000D5F08D1434
:10066000A1C881CFD9F1AF2000080B00020202001F
:100670000009040000010202000005240010010529
:100680002401010104240206052406000107058156
:100690000310004009040100020A000000070502DF
:1006A0000240000007058302400000040309041211
:1006B000010002EF020140412337800001010203E3
:1006C0000141726475696E6F204C4C430041726445
:1006D00075696E6F204D6963726F00002F0F1124D2
:1006E0001FBECFEFDAE0DEBFCDBF11E0A0E0B1E08A
:1006F000EAEBF8E302C005900D92A639B107D9F7ED
:1007000026E0A6E9B1E001C01D92AB33B207E1F7E4
:1007100013E0CFE6D3E004C02197FE010E942B1B1B
:10072000CE36D107C9F70E94ED0F0C945B1C0C94D8
:100730000000A7E0B6E0ED91FD91108611861286CB
:10074000138614861586168686E0A731B80799F7B2
:1007500010921E0610921B060895809106068130A5
:10076000C9F540E050E060EA70E440930C0150931A
:100770000D0160930E0170930F0140E050E068E4BA
:1007800072E4409310015093110160931201709331
:10079000130192E390931C0698E390931D0694E650
:1007A0009093190696E190931A06E0910706F0914E
:1007B00008069EE6918797E3928783878487E09176
:1007C0000906F0910A069AE0918799E1928783875A
:1007D00014860895823071F580E090E0A0EAB1E4DB
:1007E00080930C0190930D01A0930E01B0930F0123
:1007F00080E090E0A8E4B2E48093100190931101AE
:10080000A0931201B093130184E680931C0686E145
:1008100080931D0685E08093190688E380931A066D
:10082000E0910706F09108068EE6818787E38287CC
:1008300081E0C3CF8330B1F580E090E0A0EAB0E47E
:1008400080930C0190930D01A0930E01B0930F01C2
:1008500080E090E0A0E7B1E4809310019093110153
:10086000A0931201B09313018AE68093190686E1E2
:1008700080931A0681E380931C0687E180931D060E
:10088000E0910706F091080690E5918787E382875B
:1008900081E083878487E0910906F0910A069187B9
:1008A00094E194CF8430A9F580E090E0A0EAB0E430
:1008B00080930C0190930D01A0930E01B0930F0152
:1008C00080E090E0A0E7B1E48093100190931101E3
:1008D000A0931201B093130192E390931C068AE156
:1008E00080931D0684E68093190627E320931A0659
:1008F000E0910706F091080691878FE0828781E0FA
:1009000083878487E0910906F0910A069187228700
:100910005ECF8530A9F540E050E060EA70E4409396
:100920000C0150930D0160930E0170930F0140E094
:1009300050E06CE572E44093100150931101609314
:1009400012017093130180931C069FE090931D0683
:1009500023E72093190690931A06E0910706F09179
:1009600008062AE52187928791E093879487E09192
:100970000906F0910A0624E121878287938728CF10
:10098000863009F040C080E090E0A0EAB0E48093B7
:100990000C0190930D01A0930E01B0930F0180E024
:1009A00090E0ACE5B2E48093100190931101A09324
:1009B0001201B09313019AE490931C0684E1809392
:1009C0001D0683E78093190687E380931A06A0919A
:1009D0000706B091080681E01B968C931B971C9626
:1009E0008C931C97E0910906F0910A068387148680
:1009F00019969C9319978DE21A968C938AE08187B9
:100A00008CE082870895873009F049C080E090E04B
:100A1000A0EAB0E480930C0190930D01A0930E0125
:100A2000B0930F0180E090E0A0E7B1E48093100163
:100A300090931101A0931201B09313014AE44093E3
:100A40001C0682E080931D0693E79093190697E3B6
:100A500090931A06E0910706F09108063AE0318774
:100A6000328721E023872487E0910906F0910A0666
:100A70003187928723871486E0910B06F0910C064C
:100A800028E221879287838723E02487E0910D065F
:100A9000F0910E0641879287838784870895883076
:100AA000E1F580E090E0A0E2B1E480930C01909346
:100AB0000D01A0930E01B0930F0180E090E0A0EA39
:100AC000B1E48093100190931101A0931201B093AF
:100AD00013014AE440931C0682E080931D0693E7CD
:100AE0009093190697E390931A06E0910706F09108
:100AF00008063AE03187328721E023872487E09196
:100B00000906F0910A063187928723871486E091BF
:100B10000B06F0910C062EE1B4CF893009F086C0A7
:100B200080E090E0A8E8B1E480930C0190930D017F
:100B3000A0930E01B0930F0180E090E0A0EAB0E432
:100B40008093100190931101A0931201B0931301AF
:100B500045E540931C0682E080931D0693E7909341
:100B6000190697E390931A06E0910706F09108069C
:100B70003AE03187328721E023872487E091090614
:100B8000F0910A063187928723871486E0910B063D
:100B9000F0910C0629E121879287838724E024873E
:100BA000E0910D06F0910E062DE221879287838752
:100BB00025E02487E0910F06F091100621E42187BB
:100BC000E0910F06F09110069287E0910F06F091E8
:100BD0001006838726E02487E0911106F091120623
:100BE0004187E0911106F09112069287E09111067B
:100BF000F09112068387E0911106F0911206848726
:100C0000E0911306F091140629E62187E09113067E
:100C1000F09114069287E0911306F09114068387F1
:100C2000E0911306F091140683E037CF8A30C9F5BE
:100C300040E050E068EF72E440930C0150930D01E6
:100C400060930E0170930F0140E050E06CE572E498
:100C5000409310015093110160931201709313019E
:100C600092E390931C0698E390931D0694E690936C
:100C7000190696E190931A06E0910706F09108068E
:100C800091E4918795E0928791E093879487958787
:100C900024E12687E0910906F0910A06818787E31F
:100CA0006CCE8B3009F0FACE80E090E0A8EFB2E491
:100CB00080930C0190930D01A0930E01B0930F014E
:100CC00080E090E0ACE5B2E48093100190931101D4
:100CD000A0931201B093130185E580931C0686E171
:100CE00080931D062AE02093190680931A0610921D
:100CF0001F06E0910706F09108068BE4818795E0D6
:100D0000928781E083878487858734E13687E09105
:100D10000906F0910A06218727E322878387148634
:100D2000E0910B06F0910C0691879287838793E000
:100D3000948785873687E0910D06F0910E0694E63C
:100D400091872287838782E0A8CE803891058CF531
:100D50009C0197FF02C030E020E0480F592F511D41
:100D60004138510514F040E850E0421BFB01E770A8
:100D7000FF2781E001C0880FEA95EAF777FF02C0FC
:100D8000695F7F4FFB0193E0F595E7959A95E1F751
:100D9000F695FE2FEE27F795E795E20FF31FEA543D
:100DA000FE4F415030F09191DF011197982B9C93A9
:100DB000F8CF089580E0E6EBF1E081118FEF002499
:100DC00081938193819381930394D1F7E0E2F6E0DC
:100DD000128A118A108A17860895E6EBF1E0A0E0E6
:100DE000B8E000800EBC8111012C1197A0FDFDCF51
:100DF0000192B9F70DB4089580E00C94ED06462FEA
:100E0000477066956695669590E8699FB0011124D4
:100E10006A547E4F860F972F911DFC01808190E0D0
:100E200021E030E0042E02C0220F331F0A94E2F7C3
:100E30008223932302C0959587954A95E2F70895FA
:100E4000FC018091B501882311F13FB7F89482E04D
:100E50008093E9002091F200822F90E01816190685
:100E600014F481E090E0882339F0289A44E6409316
:100E7000B4014091F1004083222339F02091F20027
:100E8000211103C02BE62093E8003FBF08958FEFA8
:100E90009FEF08952FB7F89483E08093E900909135
:100EA000E800892F807295FF04C09091F20080E4E1
:100EB000891B2FBF08958091AC0181110DC082E084
:100EC0008093A80184E08093A9011092AB01109255
:100ED000AA0181E08093AC0188EA91E00895CF9364
:100EE000DF931F92CDB7DEB76983DC01ED91FC91F2
:100EF0000280F381E02D41E050E0BE016F5F7F4F43
:100F000009950F90DF91CF91089583E08093E900D8
:100F10008091F200882319F08AE38093E800089515
:100F20000E944A0790E00895CF93DF931F92CDB7B8
:100F3000DEB7FC018485958597FD08C02FEF3FEF54
:100F4000358724870F90DF91CF910895CE010196C8
:100F50000E942007019719F4898190E0F3CF8FEF69
:100F60009FEFF0CF0F931F93CF93DF931F92CDB7D7
:100F7000DEB78C01FC018485958597FF0BC0CE01FF
:100F800001960E942007019771F4898190E0F80191
:100F900095878487F801848595850F90DF91CF919F
:100FA0001F910F9108958FEF9FEFF1CFFC01848582
:100FB000958597FD0BC09FB7F89482E08093E90078
:100FC0008091F2009FBF90E0019608959FB7F8943A
:100FD00082E08093E9008091F2009FBF90E0089545
:100FE0004091A2015091A3012091A0013091A10153
:100FF00042175307B4F49091E8009570E1F3909193
:10100000E80092FD19C08093F1008091A2019091B7
:10101000A30101968F739927892B19F48EEF809382
:10102000E8008091A2019091A30101969093A30101
:101030008093A20181E0089580E00895DF92EF920D
:10104000FF920F931F93CF93DF93D82E8A01EB016A
:101050007B01E40EF51ECE15DF0559F0D7FE12C058
:10106000FE0184910E94F00721968111F4CF0FEFC9
:101070001FEFC801DF91CF911F910F91FF90EF906B
:10108000DF9008958881EECF0F931F93CF93DF9366
:101090001F92CDB7DEB782E0898342E450E069E673
:1010A00076E080E80E941E080E945B07DC01129631
:1010B0000D911C910115110589F0D801ED91FC915C
:1010C0000280F381E02DBE016F5F7F4FC80109955B
:1010D00097FD04C0F80100851185ECCF89810F9040
:1010E000DF91CF911F910F910895615030F02091C1
:1010F000F100FC0120830196F8CF289A84E68093C2
:10110000B4010895AF92BF92CF92DF92EF92FF9217
:101110000F931F93CF93DF936C017B018B01040F1F
:10112000151FEB015E01AE18BF08C017D10759F0BB
:101130006991D601ED91FC910190F081E02DC601FD
:101140000995892B79F7C501DF91CF911F910F91F7
:10115000FF90EF90DF90CF90BF90AF9008953FB792
:10116000F8948091970190919801A0919901B09184
:101170009A0126B5A89B05C02F3F19F00196A11D25
:10118000B11D3FBFBA2FA92F982F8827BC01CD01D1
:10119000620F711D811D911D42E0660F771F881F30
:1011A000991F4A95D1F708958F929F92AF92BF925F
:1011B000CF92DF92EF92FF926B017C010E94AF0809
:1011C0004B015C01C114D104E104F104B9F00E94A7
:1011D000AF08681979098A099B09683E734081053F
:1011E000910580F321E0C21AD108E108F10888EEE8
:1011F000880E83E0981EA11CB11CE4CFFF90EF90F5
:10120000DF90CF90BF90AF909F908F9008958F9276
:101210009F92AF92BF92CF92DF92EF92FF920F9385
:101220001F93CF93DF936C017B018A0180910B01A7
:10123000882309F45CC08091B501882309F457C064
:101240008091A70180FF05C08091E00082608093BB
:10125000E000E801B12C8AEFA82E93E0892E2AE362
:10126000922E209711F4BB20D9F10E944A078111D8
:101270000AC0AA94AA20D9F161E070E080E090E071
:101280000E94D408EECF8C171D0611F00CF08C2FA5
:101290009FB7F8948092E9002091E80025FD02C0F4
:1012A0009FBFDFCF282F30E0C21BD30BF701815047
:1012B00020F041914093F100FACFE20EF31EBB20E3
:1012C00021F09092E800B12CEBCF8091E80085FDF1
:1012D000E7CF9092E800BB24B394209709F3F3CFB3
:1012E0005D9A84E68093A601101611063CF081E019
:1012F00090E0F6019383828310E000E0C801DF9163
:10130000CF911F910F91FF90EF90DF90CF90BF9002
:10131000AF909F908F9008952D9A0895BC0190E012
:1013200080E00C94D4088FB18095807F669B8860A4
:101330001C9B8460089580389105B8F46034710571
:10134000A0F420E191E061FD94E060FD990F62FD61
:101350009295687F269FD0011124A80FAA54BE4FF2
:101360008C9140FF03C0892B8C930895909589231D
:10137000FBCF2F923F924F925F926F927F928F920C
:101380009F92AF92BF92CF92DF92EF92FF920F9314
:101390001F93CF93DF9300D01F92CDB7DEB79B830F
:1013A0008A837B016A0109838901061B170B17FFDA
:1013B00003C011950195110946018A819B81881A04
:1013C000990A97FE03C09194819491088016910622
:1013D0005CF49C2D8D2D6901292F382F9A818B81EA
:1013E000FB82EA82E92EF82E8A819B81C816D906F3
:1013F0005CF49E2D8F2D7901292F382F9A818B81B6
:10140000DB82CA82C92ED82E16018A819B81281AB6
:10141000390A29014E185F0857FE03C051944194C0
:101420005108310137FE03C09FEF691A790A75949C
:1014300067948FEFE216F3060CF481E0A82E880F74
:10144000BB088A819B81C816D906CCF04981BC01B2
:10145000C701801691061CF0B7018A819B810E940A
:101460009B096418750877FE04C0EA0CFB1C620C2B
:10147000731C8A819B8101969B838A83E2CF0F90A4
:101480000F900F90DF91CF911F910F91FF90EF90F0
:10149000DF90CF90BF90AF909F908F907F906F9094
:1014A0005F904F903F902F9008958F929F92AF92B0
:1014B000BF92CF92DF92EF92FF920F931F93CF9341
:1014C000DF935C01EB01042FE22E6034710510F410
:1014D0000E94A506EC0EFD2EF11CB70161507109AA
:1014E0006034710524F4402FC5010E94A506D7FF82
:1014F00002C0D0E0C0E04E01670181E4E816F104CB
:101500001CF080E4C82ED12C8C149D044CF441E0D6
:10151000B401C5010E949B098FEF881A980AECCF8D
:101520000A0D1B2D111D01501109CC15DD053CF4D0
:1015300041E0BE01C8010E949B092196F6CFDF91D0
:10154000CF911F910F91FF90EF90DF90CF90BF90C0
:10155000AF909F908F9008958F929F92AF92BF927D
:10156000CF92DF92EF92FF920F93CF93DF935B01C5
:10157000EC014C01840E911C6B01C20ED11CC815EC
:10158000D905D4F47501B7FE02C0F12CE12CC601D7
:1015900021E4C216D10414F080E490E0E816F906C4
:1015A0004CF4402FB701CE010E949B098FEFE81A3F
:1015B000F80AEDCF2196E3CFDF91CF910F91FF9005
:1015C000EF90DF90CF90BF90AF909F908F90089555
:1015D0002F923F924F925F926F927F928F929F9243
:1015E000AF92BF92CF92DF92EF92FF920F931F9331
:1015F000CF93DF93CDB7DEB72A970FB6F894DEBF4F
:101600000FBECDBF9A8389836A3061F5DC015596A0
:101610008C91B8E08B9F90011124E981FA81818936
:101620009289820F931F928B818B108A178681E09B
:1016300090E02A960FB6F894DEBF0FBECDBFDF91C3
:10164000CF911F910F91FF90EF90DF90CF90BF90BF
:10165000AF909F908F907F906F905F904F903F9052
:101660002F9008956D3019F329813A813A8729879F
:10167000D9011F96AD90BC90B0E8AB16B1040CF048
:101680007BC0F901C188D288F0E4CF16D1040CF0F8
:1016900073C0D90155966C90559745E09501649EAD
:1016A000200D311D1124121613060CF065C0262CD6
:1016B000312C910153E0220F331F5A95E1F72C0D85
:1016C0003D1D121613060CF057C05496BC91BB83F7
:1016D000E985FA85F389FC83649FB00111249B019D
:1016E00024553F4F3A832983712CE981FA818491F3
:1016F000F5E07F1201C080E0460138E0532E282F2C
:1017000030E03E832D834C8080FF4B80411004C02D
:101710003B818C813817E1F010E000E00615C0F441
:10172000D501A00FB11FB887AF83F12CE12CE614CF
:1017300060F4B701680D791D442D8F8198850E9452
:101740009B09BFEFEB1AFB0AF2CF0F5F1F4FE6CFEB
:101750008D819E81959587955A94820C931C51108A
:10176000CECF7394E981FA813196FA83E983A20C92
:10177000B31CF6E07F12B9CFA985BA8555962C9196
:101780005597422F50E01F968D919C91B6E02B9F6C
:10179000800D911D1124E985FA85908B8787268914
:1017A000222309F444CF6AEF64039001659F300D52
:1017B000112420583F4F281739070CF038CFDF018C
:1017C0000190F081E02D0190F081E02D6AE0CD01E3
:1017D00009952DCF0895089590E080E00895FC01CB
:1017E00001900020E9F73197AF01481B590BBC016C
:1017F00080E296E00C9482080C9421190E94561CF9
:101800001F920F920FB60F9211248F939F93809186
:10181000E1009091E100937F9093E10083FF0FC07E
:101820001092E90091E09093EB001092EC0092E3AB
:101830009093ED001092B50198E09093F00082FF34
:1018400022C093E09093E9009091F200992319F05F
:101850009AE39093E8009091A601992341F090912A
:10186000A60191509093A601911101C05D989091AD
:10187000B401992341F09091B40191509093B40137
:10188000911101C0289884FF18C08091E2008E7EDB
:1018900081608093E2008091E1008F7E8093E1007F
:1018A0008091A7018E7E80618093A7019F918F9187
:1018B0000F900FBE0F901F90189580FFF7CF80916B
:1018C000E2008E7E80618093E2008091E1008E7E56
:1018D0008093E1008091A7018E7E8160E5CF1F9209
:1018E0000F920FB60F921124CF92DF92EF92FF92D8
:1018F0000F931F932F933F934F935F936F937F9318
:101900008F939F93AF93BF93EF93FF93CF93DF9307
:10191000CDB7DEB76C97DEBFCDBF1092E9008091E6
:10192000E80083FF25C068E0CE0145960E94750857
:1019300082EF8093E8008D8987FF39C09091E8009D
:1019400090FFFCCF982F907609F034C19E894F8983
:10195000588D2F89F88C911131C0803861F58091B4
:10196000A5018093F1001092F1008EEF8093E800C2
:101970006C960FB6F894DEBF0FBECDBFDF91CF914E
:10198000FF91EF91BF91AF919F918F917F916F9157
:101990005F914F913F912F911F910F91FF90EF9089
:1019A000DF90CF900F900FBE0F901F9018959EEF75
:1019B0009093E800C7CF1092F100D5CF913059F441
:1019C0008111D3CF4130510581F68091A5018D7FE2
:1019D0008093A501CACF933049F48111C6CF41301D
:1019E000510519F68091A5018260F2CF953041F43E
:1019F0008091E80080FFFCCF20682093E300B5CF02
:101A0000963009F0A9C00B8D1C8D22E01092E900E0
:101A10001092A3011092A201F2122EC01092A10105
:101A20001092A0010E9444081F8299E09983FA82D3
:101A300091E09E8390EA98879AEF99872091A2017E
:101A40003091A301275F3F4F3C832B838D831092FE
:101A5000E9001092A3011092A2011093A10100933A
:101A6000A00149E050E0BE016F5F7F4F80E00E941F
:101A70001E080E94440879CF1093A1010093A00191
:101A80000E945B07DC0112960D911C910115110556
:101A900009F451C1D801ED91FC910480F581E02D4C
:101AA000BE016B5E7F4FC8010995009709F03EC1EA
:101AB000F80100851185EACFF3E0FF120EC08F898F
:101AC000882309F440C0823061F440E86DE08DEC79
:101AD00096E00E94EB0E811148CF81E28093EB00EB
:101AE00047CF813029F440E86BE081EC96E0F1CFFC
:101AF000833099F70E945B07DC011296ED90FC9011
:101B00008E010F5F1F4F6801E114F10479F0D701D6
:101B1000ED91FC910680F781E02DB801C701099590
:101B2000080F111DF701E084F184EECFD8011C925B
:101B3000F60101900020E9F73197BF016C197D098A
:101B400040E0C601C6CF6BEA76E0FB01449150E06D
:101B500080E80E941E0809CF973009F4BECF983064
:101B600021F481E08093F10000CF993009F0FDCE9F
:101B7000837009F0B2CFECE3F1E081E031E096E36D
:101B80002191222371F08093E9003093EB00DF0173
:101B900011972C912093EC009093ED008F5F87308C
:101BA00079F78EE78093EA001092EA008F8980939C
:101BB000B501DBCE8B8D9C8D1092E9001092A301B4
:101BC0001092A2019093A1018093A001898D8111AF
:101BD00092C08E899D89913A49F4813209F07DCF76
:101BE00047E050E064E071E080E0B3CF913209F06B
:101BF00074CF833269F48F89988DB0E0A0E0809330
:101C0000000190930101A0930201B0930301ADCEB6
:101C1000803269F48091E80082FFFCCF67E084E0C5
:101C200091E00E9475088BEF8093E8009ECE82328F
:101C300009F09BCE8F8980930B01EEEFFFE7859132
:101C400094918B3F9C4D51F1E0E0F8E080910401CC
:101C500090910501A0910601B0910701803B94404D
:101C6000A105B105F1F480910B0180FD1AC0EE3F92
:101C70008AE0F80789F587E797E791838083809169
:101C800060008093A40188E19BE00FB6F894A895CA
:101C9000809360000FBE9093600067CEEEEFFAE095
:101CA000D5CF808191818737974709F05ECEA8957F
:101CB000809160008861809360008091A40180938E
:101CC0006000EE3F2AE0F20789F08091FE0A9091D1
:101CD000FF0A9183808349CE80819181873798075D
:101CE00051F29093FF0A8093FE0AC5CF1092FF0A2B
:101CF0001092FE0A3ACE0E945B07DC0112960D910B
:101D00001C910115110509F4E8CED801ED91FC9163
:101D10000190F081E02DBE016B5E7F4FC8010995F7
:101D2000811123CEF80100851185EBCF1816190615
:101D30000CF41BCED2CEF1E0FF12BECE6FEA76E0FD
:101D400004CF1F920F920FB60F9211242F933F933F
:101D50008F939F93AF93BF9380919B0190919C0130
:101D6000A0919D01B0919E013091960123E0230F37
:101D70002D3758F50196A11DB11D20939601809332
:101D80009B0190939C01A0939D01B0939E01809133
:101D9000970190919801A0919901B0919A010196B3
:101DA000A11DB11D8093970190939801A093990173
:101DB000B0939A01BF91AF919F918F913F912F91D5
:101DC0000F900FBE0F901F90189526E8230F0296D4
:101DD000A11DB11DD2CFEF92FF920F931F93CF930E
:101DE000DF93F82E192FE62E042F81E0860F880F3F
:101DF0000E94F00783E00E94F007CF2DD12FEC0E58
:101E0000FD2EF11CCE15DF05B9F007FF13C0FE0152
:101E100084910E94F007182F80E00E94F007812330
:101E200021968111EFCFDF91CF911F910F91FF90FC
:101E3000EF9008958881EDCF81E0F5CFFC0188E037
:101E4000DF011D928A95E9F71086118612861386A6
:101E50001486158616861786108A118A0895EF92C1
:101E6000FF921F93CF93DF93E6EBF5E0138212828C
:101E700088EE93E0A0E0B0E084839583A683B783E7
:101E800086E491E0918380838FEF9FEF958784872D
:101E9000E0E2F6E0138212821186128680E18387E7
:101EA00010861782158688E591E09183808386E607
:101EB00091E095838483108A1786128A118A81E0C3
:101EC000838B148A858B168AC6E0D6E0888382E1EC
:101ED00090E00E94311B7C0112E1FC01812F1192E4
:101EE0008A95E9F7C7010E941E0FFA82E98282E112
:101EF00090E00E94311B7C01FC01812F11928A9598
:101F0000E9F7C7010E941E0FFC82EB8282E190E09C
:101F10000E94311B7C01FC01812F11928A95E9F707
:101F2000C7010E941E0FFE82ED8282E190E00E94B6
:101F3000311B7C01FC01812F11928A95E9F7C701C1
:101F40000E941E0FF886EF8282E190E00E94311B12
:101F50007C01FC01812F11928A95E9F7C7010E944B
:101F60001E0FFA86E98682E190E00E94311B7C0117
:101F7000FC01812F11928A95E9F7C7010E941E0F7B
:101F8000FC86EB8682E190E00E94311B7C01FC0123
:101F9000812F11928A95E9F7C7010E941E0FFE86D4
:101FA000ED8682E190E00E94311B7C01FC011192E0
:101FB0001A95E9F70E941E0FF88AEF86198A1A8A85
:101FC0001B8A1C8A1D8A1E8A1F8A188E198EDF9111
:101FD000CF911F91FF90EF900895CF93DF9300D0A2
:101FE0001F92CDB7DEB7789484B5826084BD84B586
:101FF000816084BD85B5826085BD85B5816085BD04
:1020000080916E00816080936E00109281008091BB
:102010008100826080938100809181008160809343
:102020008100809180008160809380008091910088
:1020300082608093910080919100816080939100F3
:10204000809190008160809390008091C1008460B5
:102050008093C1008091C10082608093C100809113
:10206000C10081608093C1008091C3008160809332
:10207000C3008091C00082608093C0008091C20044
:1020800081608093C20080917A00846080937A009E
:1020900080917A00826080937A0080917A008160DA
:1020A00080937A0080917A00806880937A00109201
:1020B000B5011092A5011092A7018091D70081600F
:1020C0008093D70080EA8093D80089B5806189BD6C
:1020D00089B5826089BD09B400FEFDCF61E070E082
:1020E00080E090E00E94D4088091D8008F7C8061CD
:1020F0008093D8008091E000807F8093E000809101
:10210000E1008E7E8093E1008DE08093E200559A9D
:10211000209A5D98289881EC80937C0085B1806F2F
:1021200085B984B1877E84B984B1876E84B95E9A9B
:102130005F988AB1806D8AB9769A6E9881B3806F04
:1021400081BB899880B38D7080BB80E58CBD81E0B8
:102150008DBD85E090E00E948E095F9A85E090E059
:102160000E948E095E985C98ECE5F6E084918EBD45
:1021700000000DB407FEFDCF319626E0E936F207E8
:10218000A9F75C9A81E88093640080916500816082
:10219000809365000E94FC060E94930987FF15C08A
:1021A0005C9885EA8EBD00000DB407FEFDCF5C9AF9
:1021B0002E982F982D9880916400806280936400FF
:1021C00081E083BF889513BEFCCF0E94930982FFF4
:1021D00048C02D980E94930984788438E1F40E94C5
:1021E0008C0988EC90E00E948E092F9882E090E0A4
:1021F0000E9421198F3F29F06FEF82E090E00E944A
:10220000291984EF91E00E948E092F9A0E94930968
:1022100084788438D9F30E94930984718431E1F47D
:102220000E948C0988EC90E00E948E092E9882E032
:1022300090E00E942119882329F060E082E090E07C
:102240000E94291984EF91E00E948E092E9A0E9423
:10225000930984718431D9F388EC90E00E948E094F
:10226000B4CF0E948C0982E090E00E94FC0B88238E
:1022700009F44BC03E9A3F9A81E090E00E94FC0B2B
:10228000382F3470932E81FF12C031112E98B0EF89
:102290004B2E55245A9408E010E088E5882E0E94C1
:1022A000930986FF35C02E9A2F9A0E948C0982E3EB
:1022B00090E00E948E090E9493098111F8CF81E27B
:1022C00080932B060E94DA0611E08FB7F8944091B4
:1022D0009B0150919C0160919D0170919E018FBF67
:1022E00080912C06942F981B892F90912D0699236D
:1022F00009F4A7C080932E0610922D0680E090E08E
:10230000892B19F30E940000DFCF3E983F98B4CF8D
:10231000992031F044E04416510411F42E9A2F987C
:1023200081E00E94ED06920157FE04C02227332768
:102330002419350927703327C20157FC0796A3E0FB
:1023400095958795AA95E1F757FE05C00197D801A5
:10235000A21BB30B9D01BC017695762F662777955E
:1023600067956A547E4FF12CE12C3801621A730A8A
:102370008F3FBFEF9B070CF43DC08E9CD0018F9C1C
:10238000B00D112450E040E0A455BA4F5B01E0E8E5
:10239000AE0EB11C8F3F980791F0FD01E40FF51FC1
:1023A000E4916B01C40ED51EF0E01F01022E01C0A6
:1023B000220C0A94EAF7F60134882328248A21158E
:1023C000310599F0FD01E40FF51FE4916501C40E9C
:1023D000D51EF0E01F01062C02C0359427940A9404
:1023E000E2F7F60134882328248A4F5F5F4F48358F
:1023F000510581F6019660587F4FEA94EF28E9F481
:102400000E94FC068FE090E00E948E092FEF421A96
:10241000520A39E14316510409F041CF992011F0D5
:102420002F9A2D9880E991E00E948E090E948C09D4
:1024300080E296E00E94DD183ACFEE24E394F12C7E
:1024400097CF90912B06891740F48F5F891708F07A
:1024500055CF13BF889513BE51CF10932D064093CF
:102460002C068091270690912806019690932806C5
:10247000809327068091290680932A060E9493095B
:102480008093290680919F0181113EC00E94DA0647
:102490001092300610922F06A6E1B0E0B0933206FB
:1024A000A093310682E08093350688E691E00E9491
:1024B000EF0B10933506EAE2F0E0F0933006E0937C
:1024C0002F068DE290E0909332068093310684E7E8
:1024D00091E00E94EF0B0E94FC0680912A0683FD8A
:1024E00004C09091290693FD06C087FD0DC0809120
:1024F000290687FF09C010939F0187E08093060695
:102500000E94AD030E94DA0680919F01813009F09C
:102510008BC50E94DA0620E440E870E060E090E0BD
:1025200080E00E94550AF09106062F2F30E03B8391
:102530002A8321303105B1F401E022E040E86EE168
:1025400070E090E080E00E94AC0A2A813B81273055
:10255000310511F501E023E049E164E170E090E02C
:1025600080E060C04A815B814230510529F38A8155
:102570009B810397D1F401E023E04CE06EE170E031
:1025800088E690E00E94AC0A23E04CE06EE170E047
:102590008CE290E00E94AC0A4A815B81493051058F
:1025A00009F501E023E044E1D8CFAA81BB8115976A
:1025B00029F501E023E04CE06EE170E089E690E06F
:1025C0000E94AC0A23E04CE06DE270E083E790E00B
:1025D0000E94AC0A23E04CE067E370E08FE590E0F6
:1025E0000E94AC0A8A819B810B97F1F401E020E400
:1025F00043E070E060E080E490E014C0EA81FB8199
:10260000369709F0A2CF01E023E044E164E170E0F5
:1026100090E080E00E94AC0A24E143E070E060E0DA
:1026200084E190E00E94AC0AA6E0B6E0BB83AA83F6
:10263000AA81BB811196ED91FC918585813081F451
:1026400080911F0690E0019668E770E00E94031BEE
:1026500080931F0691858C3308F03DC59F5F91875D
:10266000AA81BB811196ED91FC918385813051F453
:1026700062856250770B818524E044E08250990B9B
:102680000E94550AAA81BB811196ED91FC91838528
:102690008230D1F462856250770B818524E044E07A
:1026A0008250990B0E94550AAA81BB811196ED9127
:1026B000FC9162856250770B818500E024E042E066
:1026C0008150990B0E94AC0AEA81FB813296FB8310
:1026D000EA8326E136E02E173F0709F0A9CF609183
:1026E0001A0670E08091190629E047E090E00E9408
:1026F000550A80911E0681111BC060911A0670E078
:102700008091190601E029E047E090E00E94AC0AC0
:1027100060911A0670E06D5F7F4F8091190690E01E
:10272000AC014B5F5F4F00E09B0103960E94B9092B
:1027300080911E06811126C060911D0670E06D5FBC
:102740007F4F80911C0623E043E090E00E94550AF1
:1027500060911D0670E080911C0690E001969B013F
:102760002D5F3F4F01E0AC010E94B90960911D0649
:1027700070E080911C0690E0AC014F5F5F4F9B01C1
:102780000E94B909C0900C01D0900D01E0900E019B
:10279000F0900F01409010015090110160901201D3
:1027A0007090130157E0852E56E0952E312C212C88
:1027B0002982032DD401AD90BD904D01F501838593
:1027C000882309F452C0F1852F2F30E03B832A8300
:1027D000B90164507109072E000C880B990B0E94F7
:1027E000E1199B01AC01C701B6010E94911A87FD56
:1027F0003CC06A817B816C5F7F4F072E000C880B89
:10280000990B0E94E1199B01AC01C701B6010E941E
:10281000A419181654F1D5011A96BC91EB2FF0E0CB
:10282000FB83EA83BF0164507109072E000C880BFB
:10283000990B0E94E1199B01AC01C301B2010E94F6
:10284000911A87FD12C06A817B816C5F7F4F072ED2
:10285000000C880B990B0E94E1199B01AC01C3018C
:10286000B2010E94A41918165CF42FEF221A320A42
:1028700038E02316310409F09BCF4FEF49830FEF67
:102880005981509321010093220180911801909168
:102890001901A0911A01B0911B0180931C01909322
:1028A0001D01A0931E01B0931F01C301B2010E943C
:1028B000A9194B01C701B6010E94A919CB0140E03B
:1028C000B4010E949B0960911401709115018091DF
:1028D0001601909117010E94A9197B836A83609168
:1028E00010017091110180911201909113010E94C9
:1028F000B019062F60910C0170910D0180910E01AD
:1029000090910F01AA81BB811097A9F120E030E0DE
:1029100040E85FE31A161B060CF0E5C30E94381965
:102920006B017C01C0920C01D0920D01E0920E016E
:10293000F0920F010E94B019862F602F0E94FF06AF
:10294000813009F0CAC320E030E040E85FE3C7010E
:10295000B6010E94371960930C0170930D018093AA
:102960000E0190930F011092140110921501109214
:102970001601109217016091180170911901809150
:102980001A0190911B010E94A9197B836A83C09050
:102990000C01D0900D01E0900E01F0900F01C701E5
:1029A000B6010E94B019062F6091100170911101BB
:1029B00080911201909113014A815B81411551056B
:1029C000C1F10CF4BAC320E030E040E85FE30E94BC
:1029D00038194B015C018092100190921101A09274
:1029E0001201B09213010E94B019802F0E94FF06BD
:1029F000813009F09CC320E030E040E85FE3C5018E
:102A0000B4010E94371960931001709311018093F3
:102A1000120190931301809121019091220101965E
:102A200041F4109218011092190110921A0110929B
:102A30001B018090100190901101A0901201B090A4
:102A4000130120E030E040E85FE3C501B4010E94DB
:102A500038190E94B019802F0E94FF06813009F0BA
:102A6000A1C38093200120E030E040E05FE360916B
:102A700018017091190180911A0190911B010E9417
:102A8000961A609318017093190180931A0190931C
:102A90001B0180912001811150C04090180150907D
:102AA000190160901A0170901B0120E030E040E0B5
:102AB0005FEBC301B2010E94911A1816B4F420E032
:102AC00030E040E05FE3C301B2010E94A41987FF38
:102AD0000CC080E090E0A0E0BFE3809318019093E9
:102AE0001901A0931A01B0931B0140901801509056
:102AF000190160901A0170901B0160912F01709173
:102B000030018091310190913201209133012250A6
:102B10002E3008F04AC32DEC3CEC4CE45EE30E94FE
:102B2000961AA30192010E943819609318017093BC
:102B3000190180931A0190931B01C501B4010E94F1
:102B4000A9194B01C701B6010E94A919CB0141E0A7
:102B5000B4010E949B0920913401222321F02C30E2
:102B600008F02BE0215020933401809121019091B5
:102B7000220197FDC3C02111C1C0880F991FFC011C
:102B8000EA5FF94FE180F280D7011C96BC91EB2FF0
:102B9000F0E0FB83EA832DEC3CEC4CE85FE36091D2
:102BA00014017091150180911601909117010E94F6
:102BB000961A6093140170931501809316019093F7
:102BC00017012A813B81220F331F2A5F394FD90118
:102BD00011960D90BC91A02DBB83AA831B968C915E
:102BE0001B97813009F050C019966C91F7018185CF
:102BF000680F7727771F072E000C880B990B0E9410
:102C0000E11920910C0130910D0140910E0150917C
:102C10000F010E94371960930C0170930D0180938E
:102C20000E0190930F01AA81BB811A966C91F70156
:102C30008285680F7727771F072E000C880B990B6A
:102C40000E94E1192091100130911101409112016F
:102C5000509113010E943719609310017093110174
:102C6000809312019093130180911C0190911D019A
:102C7000A0911E01B0911F0180931801909319013A
:102C8000A0931A01B0931B01AA81BB811B968C9162
:102C90001B97823081F519966C9170E090E080E08E
:102CA0000E94DF1960930C0170930D0180930E0157
:102CB00090930F01EA81FB81628570E090E080E0F3
:102CC0000E94DF196093100170931101809312012B
:102CD0009093130180911C0190911D01A0911E0100
:102CE000B0911F01B0588093180190931901A093DF
:102CF0001A01B0931B01FAE0F093340180911E0693
:102D0000811164C0C0900C01D0900D01E0900E01C3
:102D1000F0900F0120911C06422F50E05B834A8304
:102D2000BA0162507109072E000C880B990B0E94A2
:102D3000E1199B01AC01C701B6010E94911A87FD00
:102D400045C06A817B816B5F7F4F072E000C880B2B
:102D5000990B0E94E1199B01AC01C701B6010E94C9
:102D6000A41918169CF1C0901001D0901101E090A8
:102D70001201F090130180911D06A82FB0E0BB83D3
:102D8000AA83BD0162507109072E000C880B990BB4
:102D90000E94E1199B01AC01C701B6010E94911A82
:102DA00087FD14C06A817B81685F7F4F072E000C0E
:102DB000880B990B0E94E1199B01AC01C701B60178
:102DC0000E94A419181614F010931E0680911E0676
:102DD000882309F46CC0C0900C01D0900D01E090E4
:102DE0000E01F0900F01E09119062E2F30E03B8389
:102DF0002A83B90162507109072E000C880B990BC8
:102E00000E94E1199B01AC01C701B6010E94911A11
:102E100087FD4DC06A817B81675F7F4F072E000C65
:102E2000880B990B0E94E1199B01AC01C701B60107
:102E30000E94A4191816DCF1C0901001D090110165
:102E4000E0901201F090130140911A06842F90E057
:102E50009B838A83BC0162507109072E000C880B8A
:102E6000990B0E94E1199B01AC01C701B6010E94B8
:102E7000911A87FD1CC06A817B81665F7F4F072E98
:102E8000000C880B990B0E94E1199B01AC01C70152
:102E9000B6010E94A419181654F0A3E0A0939F0154
:102EA000809106068C3019F4B4E0B0939F010E9423
:102EB000930985FF1AC0209123013091240140918C
:102EC00025015091260160911401709115018091A6
:102ED0001601909117010E943719609314017093A5
:102EE000150180931601909317010E94930986FFA4
:102EF0001AC0209123013091240140912501509165
:102F00002601609114017091150180911601909134
:102F100017010E9438196093140170931501809372
:102F200016019093170180912A0687FD1AC080919F
:102F3000290687FF16C080912001882391F0809197
:102F40002B0190912C01A0912D01B0912E01809325
:102F5000180190931901A0931A01B0931B011093CB
:102F600033010E94930987FF25C1809133018F5F50
:102F7000809333012AE939E949E15FE36091140163
:102F80007091150180911601909117010E94961A77
:102F9000762E072F8A8399838090270190902801AD
:102FA000A0902901B0902A0175016401F7FAF0940C
:102FB000F7F8F094A70196010E94A41987FD10C0AC
:102FC000A5019401672D702F8A8199810E94911A21
:102FD00075016401181624F0C72CD02EEA80F98000
:102FE000C0921401D0921501E0921601F0921701DF
:102FF0002DEC3CEC4CE45EE3C701B6010E94A41941
:1030000087FF12C02DEC3CEC4CE45EEBC701B6012F
:103010000E94911A181644F410921401109215018E
:10302000109216011092170180919F01833029F5AB
:103030000E94DA06EEE1F0E0F0933006E0932F060E
:10304000F0933206E09331068CE791E00E94EF0B9B
:103050008AE891E00E94EF0B0E94FC0688EB9BE05F
:103060000E948E090E949903809106068F5F8093CB
:1030700006060E94AD0310939F0180919F0184304A
:1030800039F50E94DA0621E230E0309330062093D1
:103090002F064EE150E050933206409331068DE802
:1030A00091E00E94EF0B8AE891E00E94EF0B0E94F2
:1030B000FC0688EB9BE00E948E090E949903809198
:1030C00006068F5F809306060E94AD0310929F0153
:1030D0000E94FC0613C99150C2CAEA81FB81319754
:1030E000FB83EA8307CC0E9437196B017C01C092F5
:1030F0000C01D0920D01E0920E01F0920F010E949E
:10310000B019862F602F0E94FF06813049F420E01D
:1031100030E040E85FE3C701B6010E9438191BCCDC
:103120002A813B812F5F3F4F3B832A83E3CB8A81F8
:103130009B8101979B838A8337CC20E030E040E875
:103140005FE30E9437194B015C018092100190925D
:103150001101A0921201B09213010E94B019802FA8
:103160000E94FF068130C1F420E030E040E85FE3D8
:10317000C501B4010E9438196093100170931101C8
:10318000809312019093130180912101909122016B
:10319000019609F04ECC45CCEA81FB813196FB8348
:1031A000EA8302CC1092200174CC9B01AC01C301D4
:1031B000B201B9CC10923301DDCE0F931F93CF93A0
:1031C000DF938C0181E090E00E94FC0B80FF31C016
:1031D0008AE090E00E94FC0B9FEF980F9E3F48F51D
:1031E00022E330E0D80150963C932E931F9728E3BA
:1031F00030E052963C932E935197CBE0D0E0D8012B
:10320000ED91FC910190F081E02D682FC8010995A6
:10321000CE010E94FC0B2196C131D10581F70E949D
:10322000FC0688EE93E0DF91CF911F910F910C94F3
:103230008E09DF91CF911F910F91089504970C94FF
:10324000DD18F999FECF92BD81BDF89A992780B516
:103250000895262FF999FECF1FBA92BD81BD20BDDA
:103260000FB6F894FA9AF99A0FBE0196089550583D
:10327000BB27AA270E944F190C94571A0E94491A7B
:1032800038F00E94501A20F039F49F3F19F426F4C8
:103290000C94461A0EF4E095E7FB0C94401AE92FC3
:1032A0000E94681A58F3BA176207730784079507D4
:1032B00020F079F4A6F50C948A1A0EF4E0950B2E02
:1032C000BA2FA02D0B01B90190010C01CA01A00178
:1032D0001124FF27591B99F0593F50F4503E68F1D3
:1032E0001A16F040A22F232F342F4427585FF3CF14
:1032F000469537952795A795F0405395C9F77EF4E5
:103300001F16BA0B620B730B840BBAF09150A1F02D
:10331000FF0FBB1F661F771F881FC2F70EC0BA0FB3
:10332000621F731F841F48F4879577956795B7953B
:10333000F7959E3F08F0B0CF9395880F08F0992736
:10334000EE0F9795879508950E941C1A08F481E066
:1033500008950E94B0196894B1110C948B1A0895C5
:103360000E94701A88F09F5798F0B92F9927B7518B
:10337000B0F0E1F0660F771F881F991F1AF0BA9519
:10338000C9F714C0B13091F00E948A1AB1E00895D3
:103390000C948A1A672F782F8827B85F39F0B93FC5
:1033A000CCF3869577956795B395D9F73EF49095CC
:1033B0008095709561957F4F8F4F9F4F0895E8944A
:1033C00009C097FB3EF490958095709561957F4F6D
:1033D0008F4F9F4F9923A9F0F92F96E9BB2793951B
:1033E000F695879577956795B795F111F8CFFAF42B
:1033F000BB0F11F460FF1BC06F5F7F4F8F4F9F4F5C
:1034000016C0882311F096E911C0772321F09EE8B9
:10341000872F762F05C0662371F096E8862F70E01F
:1034200060E02AF09A95660F771F881FDAF7880FF9
:103430009695879597F90895990F0008550FAA0B4F
:10344000E0E8FEEF16161706E807F907C0F01216B7
:103450001306E407F50798F0621B730B840B950BBA
:1034600039F40A2661F0232B242B252B21F408950F
:103470000A2609F4A140A6958FEF811D811D0895AC
:1034800097F99F6780E870E060E008959FEF80EC17
:10349000089500240A9416161706180609060895BA
:1034A00000240A9412161306140605060895092E20
:1034B0000394000C11F4882352F0BB0F40F4BF2B8F
:1034C00011F460FF04C06F5F7F4F8F4F9F4F0895CF
:1034D00057FD9058440F551F59F05F3F71F04795C5
:1034E000880F97FB991F61F09F3F79F087950895AA
:1034F000121613061406551FF2CF4695F1DF08C0C9
:10350000161617061806991FF1CF869571056105E5
:1035100008940895E894BB2766277727CB0197F98D
:1035200008950E941C1A08F48FEF08950E94A91AAA
:103530000C94571A0E94491A38F00E94501A20F031
:10354000952311F00C94401A0C94461A11240C94F3
:103550008B1A0E94681A70F3959FC1F3950F50E083
:10356000551F629FF001729FBB27F00DB11D639F35
:10357000AA27F00DB11DAA1F649F6627B00DA11DDB
:10358000661F829F2227B00DA11D621F739FB00D81
:10359000A11D621F839FA00D611D221F749F3327F1
:1035A000A00D611D231F849F600D211D822F762F8A
:1035B0006A2F11249F5750409AF0F1F088234AF067
:1035C000EE0FFF1FBB1F661F771F881F91505040D3
:1035D000A9F79E3F510580F00C94401A0C948B1A69
:1035E0005F3FE4F3983ED4F3869577956795B7955A
:1035F000F795E7959F5FC1F7FE2B880F911D969574
:10360000879597F9089597FB072E16F4009407D035
:1036100077FD09D00E94171B07FC05D03EF490955A
:1036200081959F4F0895709561957F4F0895AA1BCE
:10363000BB1B51E107C0AA1FBB1FA617B70710F09D
:10364000A61BB70B881F991F5A95A9F780959095CF
:10365000BC01CD010895EE0FFF1F0590F491E02D00
:1036600009940F931F93CF93DF938230910510F449
:1036700082E090E0E0913906F0913A0630E020E0F7
:10368000B0E0A0E0309799F42115310509F44AC063
:10369000281B390B24303105D8F58A819B816115AF
:1036A000710589F1FB0193838283FE0111C0408182
:1036B00051810281138148175907E0F048175907D3
:1036C00099F4109761F012960C93129713961C932D
:1036D0003296CF01DF91CF911F910F910895009302
:1036E000390610933A06F4CF2115310551F04217EF
:1036F000530738F0A901DB019A01BD01DF01F80190
:10370000C1CFEF01F9CF90933A0680933906CDCF20
:10371000FE01E20FF31F8193919322503109398307
:103720002883D7CF2091370630913806232B41F4D8
:1037300020913701309138013093380620933706B5
:1037400020913501309136012115310541F42DB715
:103750003EB74091390150913A01241B350BE0915D
:103760003706F0913806E217F307A0F42E1B3F0B43
:103770002817390778F0AC014E5F5F4F24173507E3
:1037800048F04E0F5F1F50933806409337068193E1
:1037900091939FCFF0E0E0E09CCFCF93DF93009731
:1037A000E9F0FC01329713821282A0913906B091A0
:1037B0003A06ED0130E020E01097A1F4208131813C
:1037C000820F931F2091370630913806281739074A
:1037D00009F061C0F0933806E0933706DF91CF918E
:1037E0000895EA01CE17DF07E8F54A815B819E0163
:1037F00041155105B1F7E901FB83EA8349915991DC
:10380000C40FD51FEC17FD0761F4808191810296EA
:10381000840F951FE90199838883828193819B831B
:103820008A83F0E0E0E012968D919C9113970097C7
:10383000B9F52D913C911197CD010296820F931FFE
:1038400020913706309138062817390739F6309716
:1038500051F510923A0610923906B0933806A093AB
:103860003706BCCFD383C28340815181840F951F1B
:10387000C817D90761F44E5F5F4F88819981480F5F
:10388000591F518340838A819B81938382832115B1
:10389000310509F0B0CFF0933A06E09339069ECF98
:1038A000FD01DC01C0CF13821282D7CF81E090E00E
:0A38B000F8940C945B1CF894FFCF11
:1038BA00FFFFFFFF00E10000000000000000A04041
:1038CA000000A0400000000000000000000000000E
:1038DA0000FFFF0000803F00000040333313C09A0E
:1038EA0099993E000000003B06800000C1808100DB
:1038FA000000000000006F07070990078507D60738
:10390A009407B20700000000E80A8208EC0BEB0BF0
:10391A00DD18FCFF00001E19506958656C506F5283
:10392A0074416C0050726573732041004C455645D2
:10393A004C20434C4541524544000D0A0054484529
:06394A0020454E44000080
:00000001FF
