:100000000C946F030C9497030C9497030C94970330
:100010000C9497030C9497030C9497030C949703F8
:100020000C9497030C9497030C9428120C94971239
:100030000C9497030C9497030C9497030C949703D8
:100040000C9497030C9497030C9497030C949703C8
:100050000C9497030C9497030C9497030C94C91475
:100060000C9497030C9497030C9497030C949703A8
:100070000C9497030C9497030C9497030C94970398
:100080000C9497030C9497030C9497030C94970388
:100090000C9497030C9497030C9497030C94970378
:1000A0000C9497030C9497030C94970300000000A2
:1000B000003E5B4F5B3E3E6B4F6B3E1C3E7C3E1CEE
:1000C000183C7E3C181C577D571C1C5E7F5E1C0034
:1000D000183C1800FFE7C3E7FF0018241800FFE7EB
:1000E000DBE7FF30483A060E2629792926407F05AE
:1000F0000507407F05253F5A3CE73C5A7F3E1C1CC4
:1001000008081C1C3E7F14227F22145F5F005F5F83
:1001100006097F017F006689956A6060606060946F
:10012000A2FFA29408047E040810207E2010080874
:100130002A1C08081C2A08081E101010100C1E0C7F
:100140001E0C30383E3830060E3E0E060000000011
:100150000000005F00000007000700147F147F14F8
:10016000242A7F2A1223130864623649562050003D
:1001700008070300001C2241000041221C002A1C29
:100180007F1C2A08083E0808008070300008080814
:100190000808000060600020100804023E51494534
:1001A0003E00427F400072494949462141494D3352
:1001B0001814127F1027454545393C4A49493141B9
:1001C000211109073649494936464949291E000087
:1001D00014000000403400000008142241141414DC
:1001E0001414004122140802015909063E415D59C8
:1001F0004E7C1211127C7F494949363E41414122D1
:100200007F4141413E7F494949417F090909013EFA
:10021000414151737F0808087F00417F4100204021
:10022000413F017F081422417F404040407F021C33
:10023000027F7F0408107F3E4141413E7F0909094A
:10024000063E4151215E7F09192946264949493216
:1002500003017F01033F4040403F1F2040201F3FDC
:100260004038403F63140814630304780403615961
:10027000494D43007F4141410204081020004141A3
:10028000417F04020102044040404040000307084F
:100290000020545478407F2844443838444444284B
:1002A000384444287F385454541800087E090218F2
:1002B000A4A49C787F0804047800447D400020407A
:1002C000403D007F1028440000417F40007C0478BE
:1002D00004787C080404783844444438FC18242406
:1002E0001818242418FC7C08040408485454542486
:1002F00004043F44243C4040207C1C2040201C3C03
:100300004030403C44281028444C9090907C4464F9
:10031000544C44000836410000007700000041368C
:10032000080002010204023C2623263C1EA1A16112
:10033000123A4040207A3854545559215555794144
:100340002154547841215554784020545579400C1B
:100350001E527212395555555939545454593955FC
:100360005454580000457C410002457D420001453F
:100370007C40F0292429F0F0282528F07C545545AC
:10038000002054547C547C0A097F4932494949323F
:100390003248484832324A4848303A4141217A3A54
:1003A00042402078009DA0A07D39444444393D401E
:1003B00040403D3C24FF2424487E4943662B2FFCCB
:1003C0002F2BFF0929F620C0887E09032054547979
:1003D000410000447D413048484A32384040227A4A
:1003E000007A0A0A727D0D19317D2629292F2826C7
:1003F0002929292630484D402038080808080808CF
:100400000808382F10C8ACBA2F102834FA00007B27
:10041000000008142A142222142A1408950022002D
:1004200095AA005500AAAA55AA55AA000000FF00E7
:10043000101010FF00141414FF001010FF00FF1024
:1004400010F010F0141414FC001414F700FF000056
:10045000FF00FF1414F404FC141417101F10101FD5
:10046000101F1414141F00101010F0000000001FC3
:10047000101010101F10101010F010000000FF10CE
:100480001010101010101010FF10000000FF1400CA
:1004900000FF00FF00001F10170000FC04F41414FC
:1004A0001710171414F404F40000FF00F7141414C8
:1004B00014141414F700F7141414171410101F1048
:1004C0001F141414F4141010F010F000001F101F6B
:1004D0000000001F14000000FC140000F010F010D9
:1004E00010FF10FF141414FF141010101F00000050
:1004F00000F010FFFFFFFFFFF0F0F0F0F0FFFFFF54
:100500000000000000FFFF0F0F0F0F0F38444438AA
:10051000447C2A2A3E147E02020606027E027E02E5
:1005200063554941633844443C04407E201E200604
:10053000027E020299A5E7A5991C2A492A1C4C7241
:1005400001724C304A4D4D303048784830BC625AC8
:10055000463D3E494949007E0101017E2A2A2A2A58
:100560002A44445F444440514A444040444A514034
:100570000000FF0103E080FF000008086B6B0836F5
:1005800012362436060F090F060000181800000066
:100590001010003040FF0101001F01011E00191D55
:1005A0001712003C3C3C3C0000000000F0F89C8E20
:1005B0008783878E9CF8F00000FEFF03030303038C
:1005C000070EFCF80000FEFF0303030303070EFC05
:1005D000F80000FFFF00000000000000FFFF000027
:1005E000FEFF8383838383C7EE7C380000F8FC0E14
:1005F00007030303070EFCF800003F7FE0C0808084
:10060000C0E07F3FFFFF01010101010101FFFF0089
:1006100000FFFF0C0C0C0C1C3E77E3C100007FFFB9
:10062000C0C0C0C0C0E0703F1F00001F3F70E0C0EE
:10063000C0C0E0703F1F00007FFFC1C1C1C1C1E366
:10064000773E1C00001F3F70E0C0C0C0E0703F1F3D
:10065000000000000001FFFF01000000D5F08D1434
:10066000A1C881CFD9F1AF2000080B00020202001F
:100670000009040000010202000005240010010529
:100680002401010104240206052406000107058156
:100690000310004009040100020A000000070502DF
:1006A0000240000007058302400000040309041211
:1006B000010002EF020140412337800001010203E3
:1006C0000141726475696E6F204C4C430041726445
:1006D00075696E6F204D6963726F00008A15112471
:1006E0001FBECFEFDAE0DEBFCDBF12E0A0E0B1E089
:1006F000E4EAFEE302C005900D92A833B107D9F7F2
:1007000026E0A8E3B2E001C01D92AF3BB207E1F7DB
:1007100013E0CFE6D3E004C02197FE010E94451FFD
:10072000CE36D107C9F70E94BB150C94501F0C940C
:100730000000803891058CF59C0197FF02C030E0E5
:1007400020E0480F592F511D4138510514F040E861
:1007500050E0421BFB01E770FF2781E001C0880FDA
:10076000EA95EAF777FF02C0695F7F4FFB0193E0EC
:10077000F595E7959A95E1F7F695FE2FEE27F79513
:10078000E795E20FF31FE85AFD4F415030F0919189
:10079000DF011197982B9C93F8CF0895E7E3F1E0E0
:1007A0001182128213821482158216821782399660
:1007B00081E0E33AF807A1F7E4EAF1E01082118260
:1007C00012821382349681E0E43DF807B9F7109263
:1007D000DB011092D801089580913701813009F032
:1007E00052C040E050E060EA70E440930E01509344
:1007F0000F01609310017093110140E050E068E434
:1008000072E44093120150931301609314017093AA
:10081000150192E39093D90198E39093DA0194E65D
:100820009093D60196E19093D7018093DC019EE6E8
:100830009093380197E39093390180933A01809324
:100840003B0110923C0110923D0110923E019AE052
:100850009093410199E1909342018093430110925A
:1008600044011092450110924601109247011092E6
:10087000A4018EE18093A50180E88093A60182E027
:100880008093A7010895823009F04CC040E050E009
:1008900068E472E440930E0150930F0160931001DD
:1008A000709311014093120150931301609314014E
:1008B0007093150194E69093D90196E19093DA0133
:1008C00095E09093D60198E39093D70191E09093AF
:1008D000DC012EE62093380127E320933901909321
:1008E0003A0190933B0110923C0110923D0110920D
:1008F0003E012AE02093410129E120934201909397
:100900004301109244011092450110924601109249
:1009100047011092A4019EE19093A50190E8909365
:10092000A601AECF833009F05CC080E090E0A0EA81
:10093000B0E480930E0190930F01A0931001B09347
:10094000110180E090E0A0E7B1E480931201909360
:100950001301A0931401B09315018AE68093D60188
:1009600086E18093D70181E38093D90187E1809369
:10097000DA0181E08093DC0190E59093380127E370
:100980002093390180933A0180933B0110923C01FE
:1009900010923D0110923E019093410194E1909399
:1009A000420180934301109244011092450110923C
:1009B00046011092470188E68093A4012EE120931E
:1009C000A5019CE09093A60182E08093A7013CE200
:1009D0003093A8012093A9019093AA018093AB01C1
:1009E0000895843009F045C080E090E0A0EAB0E4CA
:1009F00080930E0190930F01A0931001B093110109
:100A000080E090E0A0E2B1E48093120190931301A2
:100A1000A0931401B093150192E39093D9018AE158
:100A20008093DA0184E68093D60127E32093D701EF
:100A300081E08093DC01909338013FE030933901ED
:100A400080933A0180933B0110923C0110923D014A
:100A500010923E0190934101209342018093430103
:100A600010924401109245011092460110924701E4
:100A70000895853009F065C040E050E060EF71E412
:100A800040930E0150930F01609310017093110178
:100A900040E050E060E271E4409312015093130192
:100AA00060931401709315018093D90189E18093BB
:100AB000DA0183E78093D6019FE09093D70181E02C
:100AC0008093DC012FE520933801909339018093C6
:100AD0003A0180933B0110923C0110923D0110922B
:100AE0003E0124E120934101909342018093430110
:100AF0001092440110924501109246011092470154
:100B000084E68093A40183E28093A5019CE0909306
:100B1000A60182E08093A7012BE42093A8012DE297
:100B20002093A9019093AA018093AB0122E3209323
:100B3000AC0127E32093AD019093AE018093AF0108
:100B40000895863009F054C080E090E0A0EAB0E457
:100B500080930E0190930F01A0931001B0931101A7
:100B600080E090E0ACE5B2E4809312019093130131
:100B7000A0931401B09315012AE42093D90184E1D4
:100B80008093DA0193E79093D60197E39093D7018E
:100B900091E09093DC01209338012DE220933901FC
:100BA00090933A0190933B0110923C0110923D01C9
:100BB00010923E012AE0209341012CE02093420153
:100BC0009093430110924401109245011092460106
:100BD000109247011092A4018093A5018093A60171
:100BE00092E09093A7018093A8011092A901F4CEFE
:100BF000873009F069C080E090E0A0EAB0E480931B
:100C00000E0190930F01A0931001B093110180E0A9
:100C100090E0A0E7B1E48093120190931301A093B8
:100C20001401B09315014AE44093D90182E0809306
:100C3000DA0193E79093D60197E39093D70121E0EF
:100C40002093DC013AE0309338013093390120934E
:100C50003A0120933B0110923C0110923D01109209
:100C60003E01309341019093420120934301109241
:100C7000440110924501109246011092470128E26A
:100C800020934A0190934B0180934C0123E02093E1
:100C90004D0110924E0110924F011092500140935D
:100CA0005301909354018093550180935601109203
:100CB000570110925801109259011092A80194E125
:100CC0009093A90199E188CE883009F063C080E053
:100CD00090E0A0E2B1E480930E0190930F01A09305
:100CE0001001B093110180E090E0A0EAB1E480939C
:100CF000120190931301A0931401B09315014AE4DB
:100D00004093D90182E08093DA0193E79093D60172
:100D100097E39093D70121E02093DC013AE03093F0
:100D200038013093390120933A0120933B0110920E
:100D30003C0110923D0110923E013093410190938D
:100D400042012093430110924401109245011092F8
:100D50004601109247012EE120934A0190934B01E6
:100D600080934C0123E020934D0110924E0110928C
:100D70004F0110925001409353019093540180937E
:100D8000550180935601109257011092580110920C
:100D900059010895893009F098C080E090E0A8E8F2
:100DA000B1E480930E0190930F01A0931001B093D2
:100DB000110180E090E0A0EAB0E4809312019093EA
:100DC0001301A0931401B093150145E54093D90197
:100DD00082E08093DA0193E79093D60197E39093B2
:100DE000D70121E02093DC013AE0309338013093C1
:100DF000390120933A0120933B0110923C0110925B
:100E00003D0110923E0130934101909342012093A5
:100E10004301109244011092450110924601109234
:100E2000470129E120934A0190934B0180934C01A3
:100E300024E020934D0110924E0110924F01109228
:100E400050012DE22093530190935401809355015A
:100E500025E02093560110925701109258011092EC
:100E6000590121E420935C0190935D0180935E0120
:100E700026E020935F0110926001109261011092B0
:100E800062014093650190936601809367018093AE
:100E900068011092690110926A0110926B0129E6B3
:100EA00020936E0190936F018093700193E0909373
:100EB00071011092720110927301109274011092DC
:100EC000A80194E19093A90187CD8A3009F040C030
:100ED00040E050E068EF72E440930E0150930F0140
:100EE000609310017093110140E050E06CE572E4F2
:100EF00040931201509313016093140170931501F4
:100F000092E39093D90198E39093DA0194E6909359
:100F1000D60196E19093D70191E09093DC0121E412
:100F20002093380125E02093390190933A01909362
:100F30003B0190933C0124E120933D0110923E013E
:100F40008093410187E3809342019093430188CDD0
:100F50008B3009F068C080E090E0A8EFB2E48093A5
:100F60000E0190930F01A0931001B093110180E046
:100F700090E0ACE5B2E48093120190931301A0934A
:100F80001401B093150185E58093D90186E1809322
:100F9000DA012AE02093D6018093D70181E0809383
:100FA000DC0193E79093380135E030933901809369
:100FB0003A0180933B0180933C0198E290933D017C
:100FC00090933E012093410127E3209342018093B7
:100FD0004301109244011092450110924601109273
:100FE00047014FE040934A0130934B0180934C01FD
:100FF00033E030934D0180934E0190934F01109256
:10100000500194E69093530120935401809355012D
:1010100092E090935601109257011092580110924D
:10102000590180E4E0CD8C3009F0E9C080E090E027
:10103000A0E2B1E480930E0190930F01A093100100
:10104000B093110180E090E0ACE5B2E4809312012E
:1010500090931301A0931401B09315012BE42093F6
:10106000D90189E18093DA0132E33093D60180938C
:10107000D70161E06093DC01EAE0E09338019DE292
:101080009093390182E080933A0180933B01109262
:101090003C0110923D0110923E017EE170934101AE
:1010A0009093420180934301809344011092450143
:1010B000109246011092470130934A0190934B01E0
:1010C00080934C0143E040934D0110924E011092E9
:1010D0004F0110925001209353019093540180933B
:1010E000550110925601109257011092580110921A
:1010F00059015FE550935C0190935D0180935E011F
:1011000010925F01109260011092610110926201D1
:1011100043E740936501909366018093670196E0F1
:10112000909368011092690110926A0110926B010C
:10113000E0936E019FE090936F0180937001E9E06E
:10114000E093710110927201109273011092740178
:1011500070937701909378018093790160937A017D
:1011600010927B0110927C0110927D0130938001DE
:1011700090938101809382011092830110928401E7
:1011800010928501109286012093890190938A0123
:1011900080938B012BE020938C0110928D01109293
:1011A0008E0110928F01509392019093930180933E
:1011B000940120939501109296011092970110923C
:1011C000980140939B0190939C0180939D01109204
:1011D0009E0110929F011092A0011092A10190E433
:1011E0009093A4011092A5018093A6019093A7016A
:1011F0001092A80190E29093A90190E8EDCB8D3078
:1012000009F0ABC080E090E0A0E2B1E480930E0171
:1012100090930F01A0931001B093110180E090E032
:10122000ACE5B2E48093120190931301A0931401F2
:10123000B093150176E47093D90137E33093DA0166
:10124000F8E7F093D60181E08093D7018093DC0129
:101250005AE0509338013093390180933A018093DA
:101260003B0180933C0198E290933D0110923E0136
:1012700029E1209341016EE1609342018093430193
:1012800042E04093440180934501909346012FE052
:1012900020934701E2E3E0934A0150934B0180938E
:1012A0004C0153E050934D0180934E0190934F01B8
:1012B00090935001F0935301E093540180935501B2
:1012C0001092560110925701109258011092590134
:1012D00070935C0130935D0180935E0135E0309343
:1012E0005F018093600190936101109262013FE57C
:1012F00030936501609366018093670136E0309317
:1013000068018093690190936A0120936B013EE626
:1013100030936E0120936F018093700127E020933A
:1013200071018093720190937301909374013093D3
:101330007701509378018093790110927A0110928D
:101340007B0110927C0110927D0180E48093A801C2
:101350001092A9014093AA0141CB8E3009F0CDC073
:1013600080E090E0A0E8B1E480930E0190930F013B
:10137000A0931001B093110180E090E0ACE0B2E4E2
:101380008093120190931301A0931401B09315015F
:1013900020E32093D90135E03093DA0148E7409308
:1013A000D60183E08093D70181E08093DC0158E08F
:1013B0005093380197E39093390180933A018093D9
:1013C0003B0110923C0110923D0110923E0160E100
:1013D0006093410130934201809343011092440194
:1013E00010924501109246011092470188E18093C6
:1013F0004A0190934B0182E080934C0180934D0110
:1014000010924E0110924F011092500168E26093C9
:101410005301909354018093550164E06093560109
:1014200010925701109258011092590164E3609391
:101430005C0190935D0180935E0110925F011092B8
:101440006001109261011092620166E4609365018F
:101450009093660180936701109268011092690170
:1014600010926A0110926B0162E560936E01909395
:101470006F0180937001309371011092720110928C
:1014800073011092740138E63093770190937801DC
:101490008093790150937A0110927B0110927C0124
:1014A00010927D014093800190938101809382018D
:1014B000109283011092840110928501109286018E
:1014C0009EE19093A40194E19093A5018093A601DD
:1014D0002093A7013CE33093A8019093A901809346
:1014E000AA012093AB013AE53093AC019093AD0192
:1014F0008093AE012093AF0108958F3009F0F3C0BF
:1015000080E090E0A0E8B1E480930E0190930F0199
:10151000A0931001B093110180E090E0A0E7B1E446
:101520008093120190931301A0931401B0931501BD
:1015300084E38093D90197E39093DA0138E73093FD
:10154000D6019093D7011092DC0140E1409338011D
:1015500025E02093390181E080933A0110923B010C
:1015600010923C0110923D0110923E015AE05093BE
:1015700041019093420180934301109244011092E3
:101580004501109246011092470140934A01909301
:101590004B0180934C0110924D0110924E0110921C
:1015A0004F011092500146E1409353019093540132
:1015B0008093550144E040935601109257011092D8
:1015C0005801109259014EE240935C0120935D0155
:1015D00080935E0110925F01109260011092610190
:1015E0001092620158E250936501909366018093D6
:1015F000670157E0509368011092690110926A01E7
:1016000010926B0140936E0190936F018093700173
:101610001092710110927201109273011092740174
:101620004CE44093770120937801809379011092E4
:101630007A0110927B0110927C0110927D0156E498
:1016400050938001909381018093820110928301D5
:1016500010928401109285011092860140938901B5
:1016600090938A0180938B0110928C0110928D01CE
:1016700010928E0110928F0142E540939201909357
:101680009301809394019BE09093950110929601B1
:10169000109297011092980130939B0120939C0126
:1016A00080939D0110929E0110929F011092A001C3
:1016B0001092A1018EE18093A40124E12093A50161
:1016C00092E09093A60180E38093A7013CE33093DE
:1016D000A8012093A9019093AA018093AB013AE558
:1016E0003093AC0127CA803109F07BC080E090E0E4
:1016F000A0EAB1E480930E0190930F01A093100132
:10170000B093110180E090E0A0E7B1E48093120172
:1017100090931301A0931401B093150154E65093D4
:10172000D90182E38093DA018CE38093D60133E21E
:101730003093D7011092DC0190E49093380145E09A
:101740004093390121E020933A0120933B0110920C
:101750003C0110923D0110923E019093410187E3BC
:10176000809342012093430182E0809344011092D0
:101770004501109246011092470150934A0140934F
:101780004B0120934C0110924D0110924E0110928A
:101790004F011092500128E22093A4011092A5015C
:1017A0008093A6019093A70120E52093A8011092B1
:1017B000A9018093AA019093AB019AE09093AC01A8
:1017C0003093AD0194E19093AE018093AF012AE58F
:1017D0002093B00129E12093B1019093B20180934D
:1017E000B301089580E0E8E5F2E081118FEF002475
:1017F00081938193819381930394D1F7E8EAF6E092
:10180000128A118A108A17860895E8E5F2E0A0E0AE
:10181000B8E000800EBC8111012C1197A0FDFDCF16
:101820000192B9F70DB4089580E00C94050CCF93A4
:10183000DF93C82F2DEC3CEC4CE85FE36091160180
:101840007091170180911801909119010E94B01EAA
:1018500060931601709317018093180190931901FA
:1018600089E0C89FE0011124C95CDE4F8B81813083
:1018700091F5698170E090E080E00E94F91D60932D
:101880000E0170930F0180931001909311016A81F2
:1018900070E090E080E00E94F91D60931201709367
:1018A0001301809314019093150180911E01909172
:1018B0001F01A0912001B091210180931A01909302
:1018C0001B01A0931C01B0931D018AE08093360197
:1018D000DF91CF9108958230C1F7698170E090E087
:1018E00080E00E94F91D60930E0170930F018093B8
:1018F0001001909311016A8170E090E080E00E94F5
:10190000F91D609312017093130180931401909359
:10191000150180911E0190911F01A0912001B091AD
:101920002101B058CACF462F4770669566956695D7
:1019300090E8699FB0011124685A7D4F860F972F58
:10194000911DFC01808190E021E030E0042E02C076
:10195000220F331F0A94E2F78223932302C0959546
:1019600087954A95E2F708954F925F926F927F9222
:101970008F929F92AF92BF92CF92DF92EF92FF929F
:101980000F931F93CF93DF9380900E0190900F01E0
:10199000A0901001B09011014090120150901301DD
:1019A000609014017090150187E3E82E81E0F82E15
:1019B00010E000E06801F7018381882309F449C041
:1019C000C181D0E0BE0164507109072E000C880B64
:1019D000990B0E94FB1D9B01AC01C501B4010E9443
:1019E000AB1E87FD36C0BE016C5F7F4F072E000C1B
:1019F000880B990B0E94FB1D9B01AC01C501B40132
:101A00000E94BE1D18162CF1F701C281D0E0BE0164
:101A100064507109072E000C880B990B0E94FB1D66
:101A20009B01AC01C301B2010E94AB1E87FD11C036
:101A3000BE016C5F7F4F072E000C880B990B0E9434
:101A4000FB1D9B01AC01C301B2010E94BE1D181613
:101A50006CF40F5F1F4FF9E0EF0EF11C0C30110515
:101A600009F0A8CFCC24CA94DD24DA94C601DF9112
:101A7000CF911F910F91FF90EF90DF90CF90BF908B
:101A8000AF909F908F907F906F905F904F90089550
:101A9000FC0180915702882311F13FB7F89482E04E
:101AA0008093E9002091F200822F90E01816190629
:101AB00014F481E090E0882339F0289A44E64093BA
:101AC00056024091F1004083222339F02091F20028
:101AD000211103C02BE62093E8003FBF08958FEF4C
:101AE0009FEF08952FB7F89483E08093E9009091D9
:101AF000E800892F807295FF04C09091F20080E485
:101B0000891B2FBF089580914E0281110DC082E084
:101B100080934A0284E080934B0210924D0210920F
:101B20004C0281E080934E028AE492E00895CF93C4
:101B3000DF931F92CDB7DEB76983DC01ED91FC9195
:101B40000280F381E02D41E050E0BE016F5F7F4FE6
:101B500009950F90DF91CF91089583E08093E9007C
:101B60008091F200882319F08AE38093E8000895B9
:101B70000E94720D90E00895CF93DF931F92CDB72E
:101B8000DEB7FC018485958597FD08C02FEF3FEFF8
:101B9000358724870F90DF91CF910895CE0101966C
:101BA0000E94480D019719F4898190E0F3CF8FEFDF
:101BB0009FEFF0CF0F931F93CF93DF931F92CDB77B
:101BC000DEB78C01FC018485958597FF0BC0CE01A3
:101BD00001960E94480D019771F4898190E0F80107
:101BE00095878487F801848595850F90DF91CF9143
:101BF0001F910F9108958FEF9FEFF1CFFC01848526
:101C0000958597FD0BC09FB7F89482E08093E9001B
:101C10008091F2009FBF90E0019608959FB7F894DD
:101C200082E08093E9008091F2009FBF90E00895E8
:101C3000409144025091450220914202309143026A
:101C400042175307B4F49091E8009570E1F3909136
:101C5000E80092FD19C08093F100809144029091B8
:101C6000450201968F739927892B19F48EEF809383
:101C7000E8008091440290914502019690934502BC
:101C80008093440281E0089580E00895DF92EF920E
:101C9000FF920F931F93CF93DF93D82E8A01EB010E
:101CA0007B01E40EF51ECE15DF0559F0D7FE12C0FC
:101CB000FE0184910E94180E21968111F4CF0FEF3E
:101CC0001FEFC801DF91CF911F910F91FF90EF900F
:101CD000DF9008958881EECF0F931F93CF93DF930A
:101CE0001F92CDB7DEB782E0898342E450E069E617
:101CF00076E080E80E94460E0E94830DDC01129679
:101D00000D911C910115110589F0D801ED91FC91FF
:101D10000280F381E02DBE016F5F7F4FC8010995FE
:101D200097FD04C0F80100851185ECCF89810F90E3
:101D3000DF91CF911F910F910895615030F0209164
:101D4000F100FC0120830196F8CF289A84E6809365
:101D500056020895AF92BF92CF92DF92EF92FF9218
:101D60000F931F93CF93DF936C017B018B01040FC3
:101D7000151FEB015E01AE18BF08C017D10759F05F
:101D80006991D601ED91FC910190F081E02DC601A1
:101D90000995892B79F7C501DF91CF911F910F919B
:101DA000FF90EF90DF90CF90BF90AF9008953FB736
:101DB000F8948091390290913A02A0913B02B0913F
:101DC0003C0226B5A89B05C02F3F19F00196A11D26
:101DD000B11D3FBFBA2FA92F982F8827BC01CD0175
:101DE000620F711D811D911D42E0660F771F881FD4
:101DF000991F4A95D1F708958F929F92AF92BF9203
:101E0000CF92DF92EF92FF926B017C010E94D70E7E
:101E10004B015C01C114D104E104F104B9F00E944A
:101E2000D70E681979098A099B09683E73408105B4
:101E3000910580F321E0C21AD108E108F10888EE8B
:101E4000880E83E0981EA11CB11CE4CFFF90EF9098
:101E5000DF90CF90BF90AF909F908F9008958F921A
:101E60009F92AF92BF92CF92DF92EF92FF920F9329
:101E70001F93CF93DF936C017B018A0180910D0149
:101E8000882309F45CC080915702882309F457C065
:101E90008091490280FF05C08091E00082608093BC
:101EA000E000E801B12C8AEFA82E93E0892E2AE306
:101EB000922E209711F4BB20D9F10E94720D81114E
:101EC0000AC0AA94AA20D9F161E070E080E090E015
:101ED0000E94FC0EEECF8C171D0611F00CF08C2F1B
:101EE0009FB7F8948092E9002091E80025FD02C098
:101EF0009FBFDFCF282F30E0C21BD30BF7018150EB
:101F000020F041914093F100FACFE20EF31EBB2086
:101F100021F09092E800B12CEBCF8091E80085FD94
:101F2000E7CF9092E800BB24B394209709F3F3CF56
:101F30005D9A84E680934802101611063CF081E019
:101F400090E0F6019383828310E000E0C801DF9106
:101F5000CF911F910F91FF90EF90DF90CF90BF90A6
:101F6000AF909F908F9008952D9A0895BC0190E0B6
:101F700080E00C94FC0E8FB18095807F669B88601A
:101F80001C9B8460089580389105B8F46034710515
:101F9000A0F420E191E061FD94E060FD990F62FD05
:101FA0009295687F269FD0011124A80FA85ABD4F93
:101FB0008C9140FF03C0892B8C93089590958923C1
:101FC000FBCF8F929F92AF92BF92CF92DF92EF9210
:101FD000FF920F931F93CF93DF935C01EB01042FCC
:101FE000E22E6034710510F40E949903EC0EFD2E70
:101FF000F11CB701615071096034710524F4402F60
:10200000C5010E949903D7FF02C0D0E0C0E04E0195
:10201000670181E4E816F1041CF080E4C82ED12C9D
:102020008C149D044CF441E0B401C5010E94C30F1F
:102030008FEF881A980AECCF0A0D1B2D111D015045
:102040001109CC15DD053CF441E0BE01C8010E9438
:10205000C30F2196F6CFDF91CF911F910F91FF9083
:10206000EF90DF90CF90BF90AF909F908F900895AA
:102070002F923F924F925F926F927F928F929F9298
:10208000AF92BF92CF92DF92EF92FF920F931F9386
:10209000CF93DF9300D01F92CDB7DEB79B838A83A7
:1020A0007B016A0109838901061B170B17FF03C017
:1020B00011950195110946018A819B81881A990A17
:1020C00097FE03C0919481949108801691065CF468
:1020D0009C2D8D2D6901292F382F9A818B81FB82B0
:1020E000EA82E92EF82E8A819B81C816D9065CF413
:1020F0009E2D8F2D7901292F382F9A818B81DB829C
:10210000CA82C92ED82E16018A819B81281A390AC3
:1021100029014E185F0857FE03C05194419451089D
:10212000310137FE03C09FEF691A790A75946794ED
:102130008FEFE216F3060CF481E0A82E880FBB089F
:102140008A819B81C816D906CCF04981BC01C701A0
:10215000801691061CF0B7018A819B810E94C30FF3
:102160006418750877FE04C0EA0CFB1C620C731C33
:102170008A819B8101969B838A83E2CF0F900F9087
:102180000F90DF91CF911F910F91FF90EF90DF9013
:10219000CF90BF90AF909F908F907F906F905F9007
:1021A0004F903F902F9008958F929F92AF92BF9241
:1021B000CF92DF92EF92FF920F93CF93DF935B0169
:1021C000EC014C01840E911C6B01C20ED11CC81590
:1021D000D905D4F47501B7FE02C0F12CE12CC6017B
:1021E00021E4C216D10414F080E490E0E816F90668
:1021F0004CF4402FB701CE010E94C30F8FEFE81AB5
:10220000F80AEDCF2196E3CFDF91CF910F91FF90A8
:10221000EF90DF90CF90BF90AF909F908F900895F8
:102220002F923F924F925F926F927F928F929F92E6
:10223000AF92BF92CF92DF92EF92FF920F931F93D4
:10224000CF93DF93CDB7DEB72A970FB6F894DEBFF2
:102250000FBECDBF9A8389836A3061F5DC01559644
:102260008C91B8E08B9F90011124E981FA818189DA
:102270009289820F931F928B818B108A178681E03F
:1022800090E02A960FB6F894DEBF0FBECDBFDF9167
:10229000CF911F910F91FF90EF90DF90CF90BF9063
:1022A000AF909F908F907F906F905F904F903F90F6
:1022B0002F9008956D3019F329813A813A87298743
:1022C000D9011F96AD90BC90B0E8AB16B1040CF0EC
:1022D0007BC0F901C188D288F0E4CF16D1040CF09C
:1022E00073C0D90155966C90559745E09501649E51
:1022F000200D311D1124121613060CF065C0262C7A
:10230000312C910153E0220F331F5A95E1F72C0D28
:102310003D1D121613060CF057C05496BC91BB839A
:10232000E985FA85F389FC83649FB00111249B0140
:1023300024553F4F3A832983712CE981FA81849196
:10234000F5E07F1201C080E0460138E0532E282FCF
:1023500030E03E832D834C8080FF4B80411004C0D1
:102360003B818C813817E1F010E000E00615C0F4E5
:10237000D501A00FB11FB887AF83F12CE12CE61473
:1023800060F4B701680D791D442D8F8198850E94F6
:10239000C30FBFEFEB1AFB0AF2CF0F5F1F4FE6CF61
:1023A0008D819E81959587955A94820C931C51102E
:1023B000CECF7394E981FA813196FA83E983A20C36
:1023C000B31CF6E07F12B9CFA985BA8555962C913A
:1023D0005597422F50E01F968D919C91B6E02B9F10
:1023E000800D911D1124E985FA85908B87872689B8
:1023F000222309F444CF6AEF64039001659F300DF6
:10240000112420583F4F281739070CF038CFDF012F
:102410000190F081E02D0190F081E02D6AE0CD0186
:1024200009952DCF0895089590E080E00895FC016E
:1024300001900020E9F73197AF01481B590BBC010F
:1024400088EA96E00C94AA0E0C943B1D0E944B1F48
:102450001F920F920FB60F9211248F939F9380912A
:10246000E1009091E100937F9093E10083FF0FC022
:102470001092E90091E09093EB001092EC0092E34F
:102480009093ED001092570298E09093F00082FF35
:1024900022C093E09093E9009091F200992319F003
:1024A0009AE39093E80090914802992341F090912B
:1024B0004802915090934802911101C05D9890910B
:1024C0005602992341F090915602915090935602F2
:1024D000911101C0289884FF18C08091E2008E7E7F
:1024E00081608093E2008091E1008F7E8093E10023
:1024F000809149028E7E8061809349029F918F91E5
:102500000F900FBE0F901F90189580FFF7CF80910E
:10251000E2008E7E80618093E2008091E1008E7EF9
:102520008093E100809149028E7E8160E5CF1F9209
:102530000F920FB60F921124CF92DF92EF92FF927B
:102540000F931F932F933F934F935F936F937F93BB
:102550008F939F93AF93BF93EF93FF93CF93DF93AB
:10256000CDB7DEB76C97DEBFCDBF1092E90080918A
:10257000E80083FF25C068E0CE0145960E949D0ECD
:1025800082EF8093E8008D8987FF39C09091E80041
:1025900090FFFCCF982F907609F034C19E894F8927
:1025A000588D2F89F88C911131C0803861F5809158
:1025B00047028093F1001092F1008EEF8093E800C3
:1025C0006C960FB6F894DEBF0FBECDBFDF91CF91F2
:1025D000FF91EF91BF91AF919F918F917F916F91FB
:1025E0005F914F913F912F911F910F91FF90EF902D
:1025F000DF90CF900F900FBE0F901F9018959EEF19
:102600009093E800C7CF1092F100D5CF913059F4E4
:102610008111D3CF4130510581F6809147028D7FE2
:1026200080934702CACF933049F48111C6CF41301D
:10263000510519F6809147028260F2CF953041F43E
:102640008091E80080FFFCCF20682093E300B5CFA5
:10265000963009F0A9C00B8D1C8D22E01092E90084
:102660001092450210924402F2122EC010924302C0
:10267000109242020E946C0E1F8299E09983FA82A6
:1026800091E09E8390EA98879AEF9987209144027F
:1026900030914502275F3F4F3C832B838D831092FF
:1026A000E9001092450210924402109343020093F5
:1026B000420249E050E0BE016F5F7F4F80E00E9420
:1026C000460E0E946C0E79CF109343020093420293
:1026D0000E94830DDC0112960D911C9101151105CC
:1026E00009F451C1D801ED91FC910480F581E02DF0
:1026F000BE016B5E7F4FC8010995009709F03EC18E
:10270000F80100851185EACFF3E0FF120EC08F8932
:10271000882309F440C0823061F440E86DE08DEC1C
:1027200096E00E941315811148CF81E28093EB005F
:1027300047CF813029F440E86BE081EC96E0F1CF9F
:10274000833099F70E94830DDC011296ED90FC9086
:102750008E010F5F1F4F6801E114F10479F0D7017A
:10276000ED91FC910680F781E02DB801C701099534
:10277000080F111DF701E084F184EECFD8011C92FF
:10278000F60101900020E9F73197BF016C197D092E
:1027900040E0C601C6CF6BEA76E0FB01449150E011
:1027A00080E80E94460E09CF973009F4BECF9830DA
:1027B00021F481E08093F10000CF993009F0FDCE43
:1027C000837009F0B2CFEEEDF1E081E031E096E305
:1027D0002191222371F08093E9003093EB00DF0117
:1027E00011972C912093EC009093ED008F5F873030
:1027F00079F78EE78093EA001092EA008F89809340
:102800005702DBCE8B8D9C8D1092E9001092450211
:10281000109244029093430280934202898D811169
:1028200092C08E899D89913A49F4813209F07DCF19
:1028300047E050E066E071E080E0B3CF913209F00C
:1028400074CF833269F48F89988DB0E0A0E08093D3
:10285000020190930301A0930401B0930501ADCE52
:10286000803269F48091E80082FFFCCF67E086E067
:1028700091E00E949D0E8BEF8093E8009ECE823205
:1028800009F09BCE8F8980930D01EEEFFFE78591D4
:1028900094918B3F9C4D51F1E0E0F8E0809106016E
:1028A00090910701A0910801B0910901803B9440EB
:1028B000A105B105F1F480910D0180FD1AC0EE3F34
:1028C0008AE0F80789F587E797E79183808380910D
:1028D00060008093460288E19BE00FB6F894A895CB
:1028E000809360000FBE9093600067CEEEEFFAE039
:1028F000D5CF808191818737974709F05ECEA89523
:10290000809160008861809360008091460280938E
:102910006000EE3F2AE0F20789F08091FE0A909174
:10292000FF0A9183808349CE808191818737980700
:1029300051F29093FF0A8093FE0AC5CF1092FF0ACE
:102940001092FE0A3ACE0E94830DDC0112960D9180
:102950001C910115110509F4E8CED801ED91FC9107
:102960000190F081E02DBE016B5E7F4FC80109959B
:10297000811123CEF80100851185EBCF18161906B9
:102980000CF41BCED2CEF1E0FF12BECE6FEA76E0A1
:1029900004CF1F920F920FB60F9211242F933F93E3
:1029A0008F939F93AF93BF9380913D0290913E028E
:1029B000A0913F02B09140023091380223E0230FF2
:1029C0002D3758F50196A11DB11D20933802809333
:1029D0003D0290933E02A0933F02B093400280914B
:1029E000390290913A02A0913B02B0913C020196CB
:1029F000A11DB11D8093390290933A02A0933B022E
:102A0000B0933C02BF91AF919F918F913F912F91D5
:102A10000F900FBE0F901F90189526E8230F029677
:102A2000A11DB11DD2CFEF92FF920F931F93CF93B1
:102A3000DF93F82E192FE62E042F81E0860F880FE2
:102A40000E94180E83E00E94180ECF2DD12FEC0E9D
:102A5000FD2EF11CCE15DF05B9F007FF13C0FE01F6
:102A600084910E94180E182F80E00E94180E812376
:102A700021968111EFCFDF91CF911F910F91FF90A0
:102A8000EF9008958881EDCF81E0F5CF0F931F93EC
:102A9000CF93DF938C0181E090E00E94241280FFAD
:102AA00031C08AE090E00E9424129FEF980F9E3F71
:102AB00048F522E330E0D80150963C932E931F97BF
:102AC00028E330E052963C932E935197CBE0D0E030
:102AD000D801ED91FC910190F081E02D682FC801A3
:102AE0000995CE010E9424122196C131D10581F7AA
:102AF0000E94140C88EE93E0DF91CF911F910F910B
:102B00000C94B60FDF91CF911F910F910895049708
:102B10000C944615E8E5F6E01382128288EE93E005
:102B2000A0E0B0E084839583A683B78388EE91E02C
:102B3000918380838FEF9FEF95878487E8EAF6E0A3
:102B4000138212821186128680E183871086178293
:102B500015868AEF91E09183808388E092E09583E7
:102B60008483108A1786128A118A81E0838B148AE3
:102B7000858B168A0895789484B5826084BD84B567
:102B8000816084BD85B5826085BD85B5816085BD68
:102B900080916E00816080936E0010928100809120
:102BA00081008260809381008091810081608093A8
:102BB00081008091800081608093800080919100ED
:102BC0008260809391008091910081608093910058
:102BD000809190008160809390008091C10084601A
:102BE0008093C1008091C10082608093C100809178
:102BF000C10081608093C1008091C3008160809397
:102C0000C3008091C00082608093C0008091C200A8
:102C100081608093C20080917A00846080937A0002
:102C200080917A00826080937A0080917A0081603E
:102C300080937A0080917A00806880937A00109265
:102C4000570210924702109249028091D70081608A
:102C50008093D70080EA8093D80089B5806189BDD0
:102C600089B5826089BD09B400FEFDCF61E070E0E6
:102C700080E090E00E94FC0E8091D8008F7C806103
:102C80008093D8008091E000807F8093E000809165
:102C9000E1008E7E8093E1008DE08093E200559A02
:102CA000209A5D98289881EC80937C0085B1806F94
:102CB00085B984B1877E84B984B1876E84B95E9A00
:102CC0005F988AB1806D8AB9769A6E9881B3806F69
:102CD00081BB899880B38D7080BB80E58CBD81E01D
:102CE0008DBD85E090E00E94B60F5F9A85E090E090
:102CF0000E94B60F5E985C98ECE5F6E084918EBD7C
:102D000000000DB407FEFDCF319646E0E936F4072A
:102D1000A9F75C9A81E880936400809165008160E6
:102D2000809365000E94140C0E94BB0F87FF15C0A2
:102D30005C9885EA8EBD00000DB407FEFDCF5C9A5D
:102D40002E982F982D988091640080628093640063
:102D500081E083BF889513BEFCCF0E94BB0F82FF2A
:102D600048C02D980E94BB0F84788438E1F40E94FB
:102D7000B40F88EC90E00E94B60F2F9882E090E0AC
:102D80000E943B1D8F3F29F06FEF82E090E00E9490
:102D9000431D84EF91E00E94B60F2F9A0E94BB0F53
:102DA00084788438D9F30E94BB0F84718431E1F4B4
:102DB0000E94B40F88EC90E00E94B60F2E9882E03B
:102DC00090E00E943B1D882329F060E082E090E0C3
:102DD0000E94431D84EF91E00E94B60F2E9A0E943C
:102DE000BB0F84718431D9F388EC90E00E94B60F58
:102DF000B4CF0E94B40F82E090E00E942412882396
:102E000009F450C03E9A3F9A81E090E00E9424125B
:102E1000582F5470952E81FF10C051112E98C0EF7D
:102E2000DFEF08E010E0B8E58B2E0E94BB0F86FFB5
:102E30003CC02E9A2F9A0E94B40F82E390E00E9429
:102E4000B60F0E94BB0F8111F8CF81E28093B306C9
:102E50000E94F20B7EE1A72EB12C11E054E0952EDA
:102E60006CE5862E8FB7F89440913D0250913E025A
:102E700060913F02709140028FBF8091B406942F01
:102E8000981B892F9091B506992309F4A3C08093CC
:102E9000B6061092B50680E090E0892B19F30E94E7
:102EA0000000DBCF3E983F98AFCF992029F0C43087
:102EB000D10511F42E9A2F9881E00E94050C9E01F5
:102EC000D7FF04C0222733272C1B3D0B2770332745
:102ED000CE01D7FD0796A3E095958795AA95E1F7D2
:102EE000D7FF05C00197F801E21BF30B9F01BC015E
:102EF0007695762F662777956795685A7D4FF12CE2
:102F0000E12C3801621A730A8F3FFFEF9F070CF420
:102F10003DC08E9CD0018F9CB00D112450E040E04C
:102F2000A455BA4F5B01E0E8AE0EB11C8F3F980785
:102F300091F0FD01E40FF51FE4916B01C40ED51E65
:102F4000F0E02F01022E01C0440C0A94EAF7F601CA
:102F500054884528448A2115310599F0FD01E40F74
:102F6000F51FE4916501C40ED51EF0E02F01062C7B
:102F700002C0559447940A94E2F7F6015488452814
:102F8000448A4F5F5F4F4835510581F6019660587E
:102F90007F4FEA94EF28D1F40E94140C8FE090E068
:102FA0000E94B60F2196C931D10509F03ECF992074
:102FB00011F02F9A2D9880E991E00E94B60F0E949F
:102FC000B40F88EA96E00E94461537CFEE24E394CA
:102FD000F12C9ACF9091B306891740F48F5F89172F
:102FE00008F059CF13BF889513BE55CF1093B5067F
:102FF0004093B4068091AF069091B00601969093ED
:10300000B0068093AF068091B1068093B2060E940D
:10301000BB0F8093B10680914102811191C00E9443
:10302000F20BD0910101C09100016D2F70E041E0E1
:103030008C2F90E00E94C30FC250C0930001CC318E
:1030400038F4DE3128F4809200018AE38093010194
:10305000809100018C3140F4809101018F3120F08A
:10306000809200019092010120E440E870E060E06D
:1030700090E080E00E94E10F2EE24EE669E070E011
:1030800089E090E00E94E10F24E044E063E070E01A
:1030900088E190E00E94E10F24E044E063E070E00A
:1030A0008EE590E00E94E10F24E044E069E370E0E7
:1030B00088E190E00E94E10F24E044E069E370E0E1
:1030C0008EE590E00E94E10F1092B8061092B706CC
:1030D000E6E1F0E0F093BA06E093B90682E080936F
:1030E000BD068AE092E00E9417121093BD064AE2E4
:1030F00050E05093B8064093B7068DE290E090936D
:10310000BA068093B90686E192E00E9417120E94E7
:10311000140C8091B20683FD04C09091B10693FD1A
:1031200006C087FD0DC08091B10687FF09C01093CE
:10313000410290E1909337010E94EC030E94F20B50
:1031400080914102813009F0F2C30E94F20B44EAFF
:10315000E42E41E0F42EC7E3D1E0F701618170E095
:10316000808101E02381428190E00E94D410F4E04C
:10317000EF0EF11C44ED51E04E155F0571F78091A3
:10318000DC01882341F020E440E870E060E090E05A
:1031900080E00E94E10F8D81813089F42E818F8142
:1031A00090E00196622F70E0660F771F0E941D1F4E
:1031B0008F839981821708F00DC49F5F99838B815B
:1031C000813051F46A816250770B898124E044E0B8
:1031D0008250990B0E94E10F8B818230A9F46A81A1
:1031E0006250770B898124E044E08250990B0E9461
:1031F000E10F6A816250770B898100E024E042E0B0
:103200008150990B0E94D410299651E0C33AD507FA
:1032100011F66091D70170E08091D60129E047E076
:1032200090E00E94E10F8091DB0181111BC0609151
:10323000D70170E08091D60101E029E047E090E0FD
:103240000E94D4106091D70170E06D5F7F4F809134
:10325000D60190E0AC014B5F5F4F00E09B0103960D
:103260000E9438108091DB01811126C06091DA0143
:1032700070E06D5F7F4F8091D90123E043E090E0E3
:103280000E94E10F6091DA0170E08091D90190E035
:1032900001969B012D5F3F4F01E0AC010E94381069
:1032A0006091DA0170E08091D90190E0AC014F5F4C
:1032B0005F4F9B010E94381080911A0190911B0171
:1032C000A0911C01B0911D0180931E0190931F01DC
:1032D000A0932001B093210160911201709113011C
:1032E00080911401909115010E94C31D6B016091A2
:1032F0000E0170910F0180911001909111010E94B7
:10330000C31DCB0140E0B6010E94C30F60911601BE
:103310007091170180911801909119010E94C31DAD
:10332000EB010E94B40C7C01909324018093230153
:103330006091120170911301809114019091150117
:103340000E94CA1D062F60910E0170910F0180919D
:103350001001909111012097D1F120E030E040E878
:103360005FE31C161D060CF039C30E94521D2B0191
:103370003C0140920E0150920F0160921001709238
:1033800011010E94CA1D862F602F0E94930C81306C
:1033900009F022C38FEFE816F80609F01DC320E0FC
:1033A00030E040E85FE3C301B2010E94511D609329
:1033B0000E0170930F0180931001909311011092F0
:1033C00016011092170110921801109219016091C4
:1033D0001A0170911B0180911C0190911D010E94A6
:1033E000C31DEB0160910E0170910F0180911001DE
:1033F000909111010E94CA1D062F609112017091D7
:10340000130180911401909115012097C9F120E0DA
:1034100030E040E85FE31C161D060CF004C30E9478
:10342000521D2B013C0140921201509213016092F7
:103430001401709215010E94CA1D802F0E94930CE6
:10344000813009F0EEC2EFEFEE16FE0609F0E9C298
:1034500020E030E040E85FE3C301B2010E94511D6B
:1034600060931201709313018093140190931501DE
:1034700010921A0110921B0110921C0110921D0152
:103480000E94B40CEC019093240180932301C0901E
:103490001201D0901301E0901401F090150120E08A
:1034A00030E040E85FE3C701B6010E94521D0E9470
:1034B000CA1D802F0E94930C813009F0D6C221963C
:1034C00009F0D3C28093220120E030E040E05FE3C6
:1034D00060911A0170911B0180911C0190911D0156
:1034E0000E94B01E60931A0170931B0180931C010F
:1034F00090931D018091220181114FC040901A01CB
:1035000050901B0160901C0170901D0120E030E084
:1035100040E05FEBC301B2010E94AB1E1816B4F489
:1035200020E030E040E05FE3C301B2010E94BE1D35
:1035300087FF0CC080E090E0A0E0BFE380931A0119
:1035400090931B01A0931C01B0931D0140901A01A0
:1035500050901B0160901C0170901D016091310121
:1035600070913201809133019091340120913501A5
:1035700022502E3030F42DEC3CEC4CE45EE30E9403
:10358000B01EA30192010E94521D60931A01709314
:103590001B0180931C0190931D0120E030E04CE85A
:1035A00052E4C701B6010E94AB1E18161CF480E05D
:1035B0000E94170C60911201709113018091140107
:1035C000909115010E94C31D6B0160910E017091D5
:1035D0000F0180911001909111010E94C31DCB0138
:1035E00041E0B6010E94C30F80913601882321F08B
:1035F0008C3008F08BE081508093360120912301BC
:103600003091240137FD0EC081110CC049E0429F6A
:10361000C001439F900D1124895C9E4FFC01848161
:103620000E94170C8091DB0181115CC0C0900E01DB
:10363000D0900F01E0901001F0901101C091D901DC
:10364000D0E0BE0162507109072E000C880B990B67
:103650000E94FB1D9B01AC01C701B6010E94AB1E7D
:1036600087FD40C0BE016B5F7F4F072E000C880BAB
:10367000990B0E94FB1D9B01AC01C701B6010E9482
:10368000BE1D18167CF1C0901201D0901301E0907D
:103690001401F0901501C091DA01D0E0BE01625032
:1036A0007109072E000C880B990B0E94FB1D9B01D2
:1036B000AC01C701B6010E94AB1E87FD13C0BE015D
:1036C000685F7F4F072E000C880B990B0E94FB1D33
:1036D0009B01AC01C701B6010E94BE1D181614F073
:1036E0001093DB018091DB01882309F463C0C09053
:1036F0000E01D0900F01E0901001F0901101C091E7
:10370000D601D0E0BE0162507109072E000C880B73
:10371000990B0E94FB1D9B01AC01C701B6010E94E1
:10372000AB1E87FD47C0BE01675F7F4F072E000CB1
:10373000880B990B0E94FB1D9B01AC01C701B601D0
:103740000E94BE1D1816B4F1C0901201D090130152
:10375000E0901401F0901501C091D701D0E0BE01B6
:1037600062507109072E000C880B990B0E94FB1DFB
:103770009B01AC01C701B6010E94AB1E87FD1AC0B8
:10378000BE01665F7F4F072E000C880B990B0E94CD
:10379000FB1D9B01AC01C701B6010E94BE1D18169E
:1037A0004CF0F3E0F0934102809137018E3011F438
:1037B000909241020E94BB0F85FF1AC02091250103
:1037C0003091260140912701509128016091160106
:1037D0007091170180911801909119010E94511D5B
:1037E000609316017093170180931801909319014B
:1037F0000E94BB0F86FF1AC020912501309126013F
:103800004091270150912801609116017091170194
:1038100080911801909119010E94521D6093160128
:103820007093170180931801909319018091B2064B
:1038300087FD1AC08091B10687FF16C080912201D2
:10384000882391F080912D0190912E01A0912F015C
:10385000B091300180931A0190931B01A0931C0139
:10386000B0931D01109335010E94BB0F87FF00C16B
:10387000809135018F5F809335012AE939E949E16B
:103880005FE360911601709117018091180190918A
:1038900019010E94B01E662E072FD82FC92F209025
:1038A000290130902A0140902B0150902C01720187
:1038B0006101F7FAF094F7F8F094A70196010E94DD
:1038C000BE1D87FD10C0A2019101662D702F8D2FA6
:1038D0009C2F0E94AB1E72016101181624F0C62CA9
:1038E000D02EED2EFC2EC0921601D0921701E09240
:1038F0001801F09219012DEC3CEC4CE45EE3C70199
:10390000B6010E94BE1D87FF12C02DEC3CEC4CE4BA
:103910005EEBC701B6010E94AB1E181644F410926C
:10392000160110921701109218011092190180913E
:103930004102833019F50E94F20BB092B806A092B2
:10394000B706B092BA06A092B9068EE192E00E9444
:1039500017128CE292E00E9417120E94140C88EB5E
:103960009BE00E94B60F0E94CE03809137018F5FCB
:10397000809337010E94EC03109341028091410231
:10398000843029F50E94F20B41E250E05093B806D2
:103990004093B706B092BA06A092B9068FE292E0C1
:1039A0000E9417128CE292E00E9417120E94140CDF
:1039B00088EB9BE00E94B60F0E94CE0380913701F6
:1039C0008F5F809337010E94EC03109241020E94A6
:1039D000140C61CA9150F2CB2197B5CC0E94511DB5
:1039E0002B013C0140920E0150920F016092100198
:1039F000709211010E94CA1D862F602F0E94930CA5
:103A0000813021F49FEFE916F90611F021969BCC45
:103A100020E030E040E85FE3C301B2010E94521DA4
:103A2000C6CC2197EACC0E94511D2B013C0140924B
:103A300012015092130160921401709215010E94BC
:103A4000CA1D802F0E94930C813021F4FFEFEF16E6
:103A5000FF0611F02196D1CC20E030E040E85FE392
:103A6000C301B2010E94521DFBCC1092220142CD33
:103A70001092350102CFF999FECF92BD81BDF89A1F
:103A8000992780B50895262FF999FECF1FBA92BDC8
:103A900081BD20BD0FB6F894FA9AF99A0FBE01962F
:103AA00008955058BB27AA270E94691D0C94711EC7
:103AB0000E94631E38F00E946A1E20F039F49F3F76
:103AC00019F426F40C94601E0EF4E095E7FB0C94B8
:103AD0005A1EE92F0E94821E58F3BA176207730715
:103AE0008407950720F079F4A6F50C94A41E0EF433
:103AF000E0950B2EBA2FA02D0B01B90190010C01FE
:103B0000CA01A0011124FF27591B99F0593F50F415
:103B1000503E68F11A16F040A22F232F342F44276D
:103B2000585FF3CF469537952795A795F040539565
:103B3000C9F77EF41F16BA0B620B730B840BBAF035
:103B40009150A1F0FF0FBB1F661F771F881FC2F7A0
:103B50000EC0BA0F621F731F841F48F487957795B4
:103B60006795B795F7959E3F08F0B0CF9395880F6E
:103B700008F09927EE0F9795879508950E94361EB5
:103B800008F481E008950E94CA1D6894B1110C9454
:103B9000A51E08950E948A1E88F09F5798F0B92F9D
:103BA0009927B751B0F0E1F0660F771F881F991F72
:103BB0001AF0BA95C9F714C0B13091F00E94A41E52
:103BC000B1E008950C94A41E672F782F8827B85F62
:103BD00039F0B93FCCF3869577956795B395D9F7CA
:103BE0003EF490958095709561957F4F8F4F9F4FD4
:103BF0000895E89409C097FB3EF4909580957095E0
:103C000061957F4F8F4F9F4F9923A9F0F92F96E928
:103C1000BB279395F695879577956795B795F1119D
:103C2000F8CFFAF4BB0F11F460FF1BC06F5F7F4F3A
:103C30008F4F9F4F16C0882311F096E911C077234C
:103C400021F09EE8872F762F05C0662371F096E855
:103C5000862F70E060E02AF09A95660F771F881F24
:103C6000DAF7880F9695879597F90895990F0008C8
:103C7000550FAA0BE0E8FEEF16161706E807F9073E
:103C8000C0F012161306E407F50798F0621B730BD9
:103C9000840B950B39F40A2661F0232B242B252B5A
:103CA00021F408950A2609F4A140A6958FEF811DFD
:103CB000811D089597F99F6780E870E060E008959E
:103CC0009FEF80EC089500240A9416161706180634
:103CD0000906089500240A94121613061406050610
:103CE0000895092E0394000C11F4882352F0BB0FA1
:103CF00040F4BF2B11F460FF04C06F5F7F4F8F4F04
:103D00009F4F089557FD9058440F551F59F05F3F3E
:103D100071F04795880F97FB991F61F09F3F79F0ED
:103D200087950895121613061406551FF2CF46956F
:103D3000F1DF08C0161617061806991FF1CF8695F1
:103D40007105610508940895E894BB2766277727D5
:103D5000CB0197F908950E94361E08F48FEF08955D
:103D60000E94C31E0C94711E0E94631E38F00E94B4
:103D70006A1E20F0952311F00C945A1E0C94601EBC
:103D800011240C94A51E0E94821E70F3959FC1F30E
:103D9000950F50E0551F629FF001729FBB27F00DF9
:103DA000B11D639FAA27F00DB11DAA1F649F66274E
:103DB000B00DA11D661F829F2227B00DA11D621F9D
:103DC000739FB00DA11D621F839FA00D611D221F57
:103DD000749F3327A00D611D231F849F600D211D3B
:103DE000822F762F6A2F11249F5750409AF0F1F0BE
:103DF00088234AF0EE0FFF1FBB1F661F771F881F27
:103E000091505040A9F79E3F510580F00C945A1EE6
:103E10000C94A51E5F3FE4F3983ED4F38695779506
:103E20006795B795F795E7959F5FC1F7FE2B880FCC
:103E3000911D9695879597F9089597FB072E16F48F
:103E4000009407D077FD09D00E94311F07FC05D0F0
:103E50003EF4909581959F4F0895709561957F4FA1
:103E60000895AA1BBB1B51E107C0AA1FBB1FA617C1
:103E7000B70710F0A61BB70B881F991F5A95A9F713
:103E800080959095BC01CD010895EE0FFF1F059020
:103E9000F491E02D099481E090E0F8940C94501F87
:043EA000F894FFCFC4
:103EA4000550FFFFFFFF00E10000000000000000DC
:103EB400A0400000A040000000000000000000003E
:103EC400000000FFFF0000803F0000004033331378
:103ED400C09A99993E000001000000000000000013
:103EE40000000000000000000000000000000000CE
:103EF40000000000000000000000000000000000BE
:103F040000000000000000000000000000000000AD
:103F1400000000000000000000000000000000009D
:103F2400000000000000000000000000000000008D
:103F3400000000000000000000000000000000007D
:103F4400000000000000000000000000000000006D
:103F5400000000000000000000000000000000005D
:103F6400000000000000000000000000000000004D
:103F74000000000000000000000000000100C180FB
:103F84008100000000000000970D2F0FB80DAD0D4B
:103F9400FE0DBC0DDA0D000000001011AA0E141263
:103FA40013124615FCFF00008715506958656C50C4
:103FB4006F5274416C0050726573732041004C451C
:103FC40056454C20434C4541524544000D0A00548B
:083FD400484520454E44000061
:00000001FF
