:100000000C946F030C9497030C9497030C94970330
:100010000C9497030C9497030C9497030C949703F8
:100020000C9497030C9497030C947A0C0C94E90CA1
:100030000C9497030C9497030C9497030C949703D8
:100040000C9497030C9497030C9497030C949703C8
:100050000C9497030C9497030C9497030C941B0F28
:100060000C9497030C9497030C9497030C949703A8
:100070000C9497030C9497030C9497030C94970398
:100080000C94650F0C9497030C9497030C949703AE
:100090000C9497030C9497030C9497030C94970378
:1000A0000C9497030C9497030C94970300000000A2
:1000B000003E5B4F5B3E3E6B4F6B3E1C3E7C3E1CEE
:1000C000183C7E3C181C577D571C1C5E7F5E1C0034
:1000D000183C1800FFE7C3E7FF0018241800FFE7EB
:1000E000DBE7FF30483A060E2629792926407F05AE
:1000F0000507407F05253F5A3CE73C5A7F3E1C1CC4
:1001000008081C1C3E7F14227F22145F5F005F5F83
:1001100006097F017F006689956A6060606060946F
:10012000A2FFA29408047E040810207E2010080874
:100130002A1C08081C2A08081E101010100C1E0C7F
:100140001E0C30383E3830060E3E0E060000000011
:100150000000005F00000007000700147F147F14F8
:10016000242A7F2A1223130864623649562050003D
:1001700008070300001C2241000041221C002A1C29
:100180007F1C2A08083E0808008070300008080814
:100190000808000060600020100804023E51494534
:1001A0003E00427F400072494949462141494D3352
:1001B0001814127F1027454545393C4A49493141B9
:1001C000211109073649494936464949291E000087
:1001D00014000000403400000008142241141414DC
:1001E0001414004122140802015909063E415D59C8
:1001F0004E7C1211127C7F494949363E41414122D1
:100200007F4141413E7F494949417F090909013EFA
:10021000414151737F0808087F00417F4100204021
:10022000413F017F081422417F404040407F021C33
:10023000027F7F0408107F3E4141413E7F0909094A
:10024000063E4151215E7F09192946264949493216
:1002500003017F01033F4040403F1F2040201F3FDC
:100260004038403F63140814630304780403615961
:10027000494D43007F4141410204081020004141A3
:10028000417F04020102044040404040000307084F
:100290000020545478407F2844443838444444284B
:1002A000384444287F385454541800087E090218F2
:1002B000A4A49C787F0804047800447D400020407A
:1002C000403D007F1028440000417F40007C0478BE
:1002D00004787C080404783844444438FC18242406
:1002E0001818242418FC7C08040408485454542486
:1002F00004043F44243C4040207C1C2040201C3C03
:100300004030403C44281028444C9090907C4464F9
:10031000544C44000836410000007700000041368C
:10032000080002010204023C2623263C1EA1A16112
:10033000123A4040207A3854545559215555794144
:100340002154547841215554784020545579400C1B
:100350001E527212395555555939545454593955FC
:100360005454580000457C410002457D420001453F
:100370007C40F0292429F0F0282528F07C545545AC
:10038000002054547C547C0A097F4932494949323F
:100390003248484832324A4848303A4141217A3A54
:1003A00042402078009DA0A07D39444444393D401E
:1003B00040403D3C24FF2424487E4943662B2FFCCB
:1003C0002F2BFF0929F620C0887E09032054547979
:1003D000410000447D413048484A32384040227A4A
:1003E000007A0A0A727D0D19317D2629292F2826C7
:1003F0002929292630484D402038080808080808CF
:100400000808382F10C8ACBA2F102834FA00007B27
:10041000000008142A142222142A1408950022002D
:1004200095AA005500AAAA55AA55AA000000FF00E7
:10043000101010FF00141414FF001010FF00FF1024
:1004400010F010F0141414FC001414F700FF000056
:10045000FF00FF1414F404FC141417101F10101FD5
:10046000101F1414141F00101010F0000000001FC3
:10047000101010101F10101010F010000000FF10CE
:100480001010101010101010FF10000000FF1400CA
:1004900000FF00FF00001F10170000FC04F41414FC
:1004A0001710171414F404F40000FF00F7141414C8
:1004B00014141414F700F7141414171410101F1048
:1004C0001F141414F4141010F010F000001F101F6B
:1004D0000000001F14000000FC140000F010F010D9
:1004E00010FF10FF141414FF141010101F00000050
:1004F00000F010FFFFFFFFFFF0F0F0F0F0FFFFFF54
:100500000000000000FFFF0F0F0F0F0F38444438AA
:10051000447C2A2A3E147E02020606027E027E02E5
:1005200063554941633844443C04407E201E200604
:10053000027E020299A5E7A5991C2A492A1C4C7241
:1005400001724C304A4D4D303048784830BC625AC8
:10055000463D3E494949007E0101017E2A2A2A2A58
:100560002A44445F444440514A444040444A514034
:100570000000FF0103E080FF000008086B6B0836F5
:1005800012362436060F090F060000181800000066
:100590001010003040FF0101001F01011E00191D55
:1005A0001712003C3C3C3C0000000000F0F89C8E20
:1005B0008783878E9CF8F00000FEFF03030303038C
:1005C000070EFCF80000FEFF0303030303070EFC05
:1005D000F80000FFFF00000000000000FFFF000027
:1005E000FEFF8383838383C7EE7C380000F8FC0E14
:1005F00007030303070EFCF800003F7FE0C0808084
:10060000C0E07F3FFFFF01010101010101FFFF0089
:1006100000FFFF0C0C0C0C1C3E77E3C100007FFFB9
:10062000C0C0C0C0C0E0703F1F00001F3F70E0C0EE
:10063000C0C0E0703F1F00007FFFC1C1C1C1C1E366
:10064000773E1C00001F3F70E0C0C0C0E0703F1F3D
:10065000000000000001FFFF01000000D5F08D1434
:10066000A1C881CFD9F1AF2000080B00020202001F
:100670000009040000010202000005240010010529
:100680002401010104240206052406000107058156
:100690000310004009040100020A000000070502DF
:1006A0000240000007058302400000040309041211
:1006B000010002EF020140412337800001010203E3
:1006C0000141726475696E6F204C4C430041726445
:1006D00075696E6F204D6963726F0000DE10112422
:1006E0001FBECFEFDAE0DEBFCDBF11E0A0E0B1E08A
:1006F000EAE6F7E302C005900D92AC3BB107D9F7EB
:1007000026E0ACEBB1E001C01D92A936B207E1F7DB
:1007100013E0CFE6D3E004C02197FE010E94A81B9E
:10072000CE36D107C9F70E941F110C94B31B0C944D
:1007300000008091CD01089580E0E2EFF1E08111A9
:100740008FEF002481938193819381930394D1F758
:10075000E2E5F6E0128A118A108A17860895E2EF20
:10076000F1E0A0E0B8E000800EBC8111012C1197EF
:10077000A0FDFDCF0192B9F70DB4089580E00C946F
:10078000AF03462F477066956695669590E8699F1A
:10079000B00111246E507E4F860F972F911DFC01E2
:1007A000808190E021E030E0042E02C0220F331F50
:1007B0000A94E2F78223932302C0959587954A9580
:1007C000E2F70895803891058CF59C0197FF02C0EF
:1007D00030E020E0480F592F511D4138510514F0E9
:1007E00040E850E0421BFB01E770FF2781E001C0B9
:1007F000880FEA95EAF777FF02C0695F7F4FFB0138
:1008000093E0F595E7959A95E1F7F695FE2FEE279B
:10081000F795E795E20FF31FEE50FE4F415030F091
:100820009191DF011197982B9C93F8CF0895FC01CB
:100830008091F101882311F13FB7F89482E0809311
:10084000E9002091F200822F90E01816190614F4A6
:1008500081E090E0882339F0289A44E64093F00143
:100860004091F1004083222339F02091F2002111C0
:1008700003C02BE62093E8003FBF08958FEF9FEF62
:1008800008952FB7F89483E08093E9009091E800F1
:10089000892F807295FF04C09091F20080E4891B3B
:1008A0002FBF08958091E80181110DC082E08093EF
:1008B000E40184E08093E5011092E7011092E601E3
:1008C00081E08093E80184EE91E00895CF93DF9377
:1008D0001F92CDB7DEB76983DC01ED91FC910280F8
:1008E000F381E02D41E050E0BE016F5F7F4F09953D
:1008F0000F90DF91CF91089583E08093E90080917C
:10090000F200882319F08AE38093E80008950E949A
:10091000410490E00895CF93DF931F92CDB7DEB7E7
:10092000FC018485958597FD08C02FEF3FEF358743
:1009300024870F90DF91CF910895CE0101960E94F8
:100940001704019719F4898190E0F3CF8FEF9FEF9F
:10095000F0CF0F931F93CF93DF931F92CDB7DEB7E6
:100960008C01FC018485958597FF0BC0CE01019613
:100970000E941704019771F4898190E0F80195872E
:100980008487F801848595850F90DF91CF911F9121
:100990000F9108958FEF9FEFF1CFFC01848595852E
:1009A00097FD0BC09FB7F89482E08093E900809197
:1009B000F2009FBF90E0019608959FB7F89482E0FF
:1009C0008093E9008091F2009FBF90E008954091EC
:1009D000DE015091DF012091DC013091DD014217F1
:1009E0005307B4F49091E8009570E1F39091E8001A
:1009F00092FD19C08093F1008091DE019091DF019A
:100A000001968F739927892B19F48EEF8093E80054
:100A10008091DE019091DF0101969093DF01809338
:100A2000DE0181E0089580E00895DF92EF92FF9269
:100A30000F931F93CF93DF93D82E8A01EB017B0195
:100A4000E40EF51ECE15DF0559F0D7FE12C0FE01EB
:100A500084910E94E70421968111F4CF0FEF1FEFDC
:100A6000C801DF91CF911F910F91FF90EF90DF9020
:100A700008958881EECF0F931F93CF93DF931F923A
:100A8000CDB7DEB782E0898342E450E069E676E0E4
:100A900080E80E9415050E945204DC0112960D9117
:100AA0001C910115110589F0D801ED91FC9102808E
:100AB000F381E02DBE016F5F7F4FC801099597FD5F
:100AC00004C0F80100851185ECCF89810F90DF917A
:100AD000CF911F910F910895615030F02091F10056
:100AE000FC0120830196F8CF289A84E68093F001D8
:100AF0000895AF92BF92CF92DF92EF92FF920F9341
:100B00001F93CF93DF936C017B018B01040F151FA3
:100B1000EB015E01AE18BF08C017D10759F069910B
:100B2000D601ED91FC910190F081E02DC60109956F
:100B3000892B79F7C501DF91CF911F910F91FF901C
:100B4000EF90DF90CF90BF90AF9008953FB7F894AB
:100B50008091C9019091CA01A091CB01B091CC01C3
:100B600026B5A89B05C02F3F19F00196A11DB11D08
:100B70003FBFBA2FA92F982F8827BC01CD01620F44
:100B8000711D811D911D42E0660F771F881F991FFF
:100B90004A95D1F708958F929F92AF92BF92CF92CC
:100BA000DF92EF92FF926B017C010E94A6054B0140
:100BB0005C01C114D104E104F104B9F00E94A6055E
:100BC000681979098A099B09683E73408105910576
:100BD00080F321E0C21AD108E108F10888EE880EFE
:100BE00083E0981EA11CB11CE4CFFF90EF90DF9032
:100BF000CF90BF90AF909F908F9008958F929F92CB
:100C0000AF92BF92CF92DF92EF92FF920F931F931A
:100C1000CF93DF936C017B018A018091610188236E
:100C200009F45CC08091F101882309F457C08091D8
:100C3000E30180FF05C08091E00082608093E000C6
:100C4000E801B12C8AEFA82E93E0892E2AE3922E98
:100C5000209711F4BB20D9F10E94410481110AC0F0
:100C6000AA94AA20D9F161E070E080E090E00E94AF
:100C7000CB05EECF8C171D0611F00CF08C2F9FB713
:100C8000F8948092E9002091E80025FD02C09FBF02
:100C9000DFCF282F30E0C21BD30BF701815020F0AB
:100CA00041914093F100FACFE20EF31EBB2021F0F8
:100CB0009092E800B12CEBCF8091E80085FDE7CF62
:100CC0009092E800BB24B394209709F3F3CF5D9A88
:100CD00084E68093E201101611063CF081E090E07A
:100CE000F6019383828310E000E0C801DF91CF9189
:100CF0001F910F91FF90EF90DF90CF90BF90AF903A
:100D00009F908F9008952091BC01E091BF01F091D8
:100D1000C001CF0102969093C0018093BF012223AE
:100D200019F08591949108958081918108952D9A6B
:100D30000895BC0190E080E00C94CB058FB18095C4
:100D4000807F669B88601C9B846008958038910535
:100D5000B8F460347105A0F420E191E061FD94E005
:100D600060FD990F62FD9295687F269FD001112446
:100D7000A80FAE50BE4F8C9140FF03C0892B8C93BF
:100D8000089590958923FBCF2F923F924F925F92C7
:100D90006F927F928F929F92AF92BF92CF92DF928B
:100DA000EF92FF920F931F93CF93DF9300D01F9288
:100DB000CDB7DEB79B838A837B016A0109838901F2
:100DC000061B170B17FF03C011950195110946016A
:100DD0008A819B81881A990A97FE03C09194819415
:100DE0009108801691065CF49C2D8D2D6901292FA8
:100DF000382F9A818B81FB82EA82E92EF82E8A8134
:100E00009B81C816D9065CF49E2D8F2D7901292F60
:100E1000382F9A818B81DB82CA82C92ED82E160187
:100E20008A819B81281A390A29014E185F0857FECA
:100E300003C0519441945108310137FE03C09FEF24
:100E4000691A790A759467948FEFE216F3060CF429
:100E500081E0A82E880FBB088A819B81C816D9061D
:100E6000CCF04981BC01C701801691061CF0B70186
:100E70008A819B810E94A6066418750877FE04C0CB
:100E8000EA0CFB1C620C731C8A819B8101969B837C
:100E90008A83E2CF0F900F900F90DF91CF911F9137
:100EA0000F91FF90EF90DF90CF90BF90AF909F9009
:100EB0008F907F906F905F904F903F902F9008950C
:100EC0008F929F92AF92BF92CF92DF92EF92FF925A
:100ED0000F931F93CF93DF935C01EB01042FE22E5E
:100EE0006034710510F40E94E203EC0EFD2EF11C3B
:100EF000B701615071096034710524F4402FC501B8
:100F00000E94E203D7FF02C0D0E0C0E04E016701BB
:100F100081E4E816F1041CF080E4C82ED12C8C1476
:100F20009D044CF441E0B401C5010E94A6068FEF78
:100F3000881A980AECCF0A0D1B2D111D01501109BA
:100F4000CC15DD053CF441E0BE01C8010E94A606B7
:100F50002196F6CFDF91CF911F910F91FF90EF90E7
:100F6000DF90CF90BF90AF909F908F9008958F9219
:100F70009F92AF92BF92CF92DF92EF92FF920F9328
:100F8000CF93DF935B01EC014C01840E911C6B014C
:100F9000C20ED11CC815D905D4F47501B7FE02C024
:100FA000F12CE12CC60121E4C216D10414F080E436
:100FB00090E0E816F9064CF4402FB701CE010E94EC
:100FC000A6068FEFE81AF80AEDCF2196E3CFDF915E
:100FD000CF910F91FF90EF90DF90CF90BF90AF90A7
:100FE0009F908F9008952F923F924F925F926F92B1
:100FF0007F928F929F92AF92BF92CF92DF92EF92A9
:10100000FF920F931F93CF93DF93CDB7DEB72A974D
:101010000FB6F894DEBF0FBECDBF9A8389836A30C6
:1010200061F5DC0155968C91B8E08B9F90011124FD
:10103000E981FA8181899289820F931F928B818B3A
:10104000108A178681E090E02A960FB6F894DEBFEA
:101050000FBECDBFDF91CF911F910F91FF90EF9009
:10106000DF90CF90BF90AF909F908F907F906F90C8
:101070005F904F903F902F9008956D3019F3298124
:101080003A813A872987D9011F96AD90BC90B0E884
:10109000AB16B1040CF07BC0F901C188D288F0E432
:1010A000CF16D1040CF073C0D90155966C905597AA
:1010B00045E09501649E200D311D11241216130682
:1010C0000CF065C0262C312C910153E0220F331F08
:1010D0005A95E1F72C0D3D1D121613060CF057C062
:1010E0005496BC91BB83E985FA85F389FC83649FA0
:1010F000B00111249B0124553F4F3A832983712C61
:10110000E981FA818491F5E07F1201C080E0460117
:1011100038E0532E282F30E03E832D834C8080FF13
:101120004B80411004C03B818C813817E1F010E006
:1011300000E00615C0F4D501A00FB11FB887AF833A
:10114000F12CE12CE61460F4B701680D791D442DF3
:101150008F8198850E94A606BFEFEB1AFB0AF2CF9B
:101160000F5F1F4FE6CF8D819E81959587955A948D
:10117000820C931C5110CECF7394E981FA81319681
:10118000FA83E983A20CB31CF6E07F12B9CFA985DC
:10119000BA8555962C915597422F50E01F968D9108
:1011A0009C91B6E02B9F800D911D1124E985FA8555
:1011B000908B87872689222309F444CF6AEF640342
:1011C0009001659F300D112420583F4F2817390793
:1011D0000CF038CFDF010190F081E02D0190F0811B
:1011E000E02D6AE0CD0109952DCF0895089590E096
:1011F00080E008958130910509F0CAC040E050E0D8
:1012000060EA70E440933001509331016093320101
:101210007093330140E050E068E472E4409334019D
:1012200050933501609336017093370122E3209388
:10123000D20128E32093D30124E62093D40126E1B0
:101240002093D5012EE62093000127E3209301018E
:1012500021E020930201209303013AE0309306013C
:1012600039E130930701209308011092090186307B
:10127000910509F0EFC040E050E060EA70E440936F
:10128000300150933101609332017093330140E09B
:1012900050E06CE572E44093340150933501609363
:1012A0003601709337012AE42093D20134E1309360
:1012B000D30133E73093D40137E33093D501209342
:1012C00000012DE22093010121E0209302012093EF
:1012D00003013AE0309306013CE03093070120938C
:1012E0000801109209010B9709F000C180E090E01D
:1012F000A8EFB2E48093300190933101A0933201C2
:10130000B093330180E090E0ACE5B2E48093340127
:1013100090933501A0933601B093370185E5809312
:10132000D20186E18093D3012AE02093D4018093F7
:10133000D5018BE48093000195E09093010181E059
:1013400080930201809303018093040134E1309380
:1013500005012093060127E32093070180930801EC
:101360001092090190930C0190930D0180930E014E
:1013700093E090930F01809310013093110194E654
:1013800090931201209313018093140182E0ACC06A
:101390008230910519F540E050E060EA71E4409335
:1013A000300150933101609332017093330140E07A
:1013B00050E068E472E44093340150933501609347
:1013C00036017093370124E62093D20126E1209361
:1013D000D30125E02093D40128E332CF8330910557
:1013E00009F085C040E050E060EA70E440933001CD
:1013F00050933101609332017093330140E050E02B
:1014000060E771E4409334015093350160933601F5
:10141000709337012AE62093D40126E12093D50169
:1014200021E32093D20127E12093D30130E53093CB
:10143000000127E32093010121E020930201209382
:1014400003013093060134E1309307012093080132
:10145000109209018730910509F083C080E090E087
:10146000A0EAB0E48093300190933101A09332015F
:10147000B093330180E090E0A0E7B1E480933401C1
:1014800090933501A0933601B09337014AE440931D
:10149000D20182E08093D30193E79093D40197E344
:1014A0009093D5013AE0309300013093010121E09F
:1014B00020930201209303013093060190930701CA
:1014C000209308011092090128E220930C019093C7
:1014D0000D0180930E0123E020930F014093120130
:1014E0009093130180931401809315010895843023
:1014F000910509F072C040E050E060EA70E440936A
:10150000300150933101609332017093330140E018
:1015100050E060E771E440933401509335016093EB
:1015200036017093370132E33093D2012AE12093E0
:10153000D30124E62093D40147E34093D5013093AF
:1015400000012FE02093010121E02093020120936C
:101550000301309306014093070120930801109284
:1015600009018830910509F0B5C080E090E0A0E263
:10157000B1E48093300190933101A0933201B09394
:10158000330180E090E0A0EAB1E4809334019093CD
:101590003501A0933601B09337014AE44093D2015C
:1015A00082E08093D30193E79093D40197E39093E3
:1015B000D5013AE0309300013093010121E02093FE
:1015C00002012093030130930601909307012093B9
:1015D0000801109209012EE178CF8530910509F0BC
:1015E00046CE40E050E060EA70E440933001509312
:1015F0003101609332017093330140E050E06CE5BB
:1016000072E4409334015093350160933601709336
:10161000370135E03093D2012FE02093D30143E727
:101620004093D4012093D5014AE5409300012093D3
:10163000010121E0209302012093030144E1409342
:1016400006013093070120930801109209018A30A6
:10165000910509F048CE80E090E0A8EFB2E48093D5
:10166000300190933101A0933201B093330180E0B7
:1016700090E0ACE5B2E48093340190933501A093FF
:101680003601B093370182E38093D20188E38093DF
:10169000D30184E68093D40186E18093D50181E46F
:1016A0008093000185E08093010181E08093020135
:1016B000809303018093040194E1909305019AE0E3
:1016C0009093060197E3909307018093080110928D
:1016D000090108958930910509F0B9CF80E090E0C3
:1016E000A0E2B1E48093300190933101A0933201E4
:1016F000B093330180E090E0A0EAB1E4809334013C
:1017000090933501A0933601B093370145E540939E
:10171000D20182E08093D30193E79093D40197E3C1
:101720009093D5013AE0309300013093010121E01C
:101730002093020120930301309306019093070147
:10174000209308011092090129E120930C01909344
:101750000D0180930E0124E020930F012DE22093D0
:101760001201909313018093140125E02093150139
:1017700021E4209318019093190180931A0126E027
:1017800020931B0140931E0190931F018093200121
:101790008093210129E620932401909325018093D1
:1017A000260183E08093270108954F925F926F9204
:1017B0007F928F929F92AF92BF92CF92DF92EF92E1
:1017C000FF920F931F93CF93DF93809030019090FF
:1017D0003101A0903201B09033014090340150901B
:1017E0003501609036017090370180E0E82E81E08D
:1017F000F82E10E000E06801F7018281882309F4E7
:1018000049C0C081D0E0BE0164507109072E000CB0
:10181000880B990B0E945E1A9B01AC01C501B401B3
:101820000E940E1B87FD36C0BE016C5F7F4F072EE6
:10183000000C880B990B0E945E1A9B01AC01C5013C
:10184000B4010E94211A18162CF1F701C181D0E0D1
:10185000BE0164507109072E000C880B990B0E9481
:101860005E1A9B01AC01C301B2010E940E1B87FDF1
:1018700011C0BE016C5F7F4F072E000C880B990BC7
:101880000E945E1A9B01AC01C301B2010E94211AA1
:1018900018166CF40F5F1F4FF6E0EF0EF11C0830C6
:1018A000110509F0A8CFCC24CA94DD24DA94C6012E
:1018B000DF91CF911F910F91FF90EF90DF90CF902C
:1018C000BF90AF909F908F907F906F905F904F9060
:1018D0000895FC0101900020E9F73197AF01481B02
:1018E000590BBC0182E596E00C9479050C944E19D5
:1018F0000E94AE1B1F920F920FB60F9211248F936E
:101900009F938091E1009091E100937F9093E1009B
:1019100083FF0FC01092E90091E09093EB001092CA
:10192000EC0092E39093ED001092F10198E0909317
:10193000F00082FF22C093E09093E9009091F200C2
:10194000992319F09AE39093E8009091E20199238A
:1019500041F09091E20191509093E201911101C008
:101960005D989091F001992341F09091F001915090
:101970009093F001911101C0289884FF18C08091C4
:10198000E2008E7E81608093E2008091E1008F7E94
:101990008093E1008091E3018E7E80618093E3017A
:1019A0009F918F910F900FBE0F901F90189580FF01
:1019B000F7CF8091E2008E7E80618093E20080917B
:1019C000E1008E7E8093E1008091E3018E7E816054
:1019D000E5CF1F920F920FB60F921124CF92DF9294
:1019E000EF92FF920F931F932F933F934F935F9329
:1019F0006F937F938F939F93AF93BF93EF93FF93D7
:101A0000CF93DF93CDB7DEB76C97DEBFCDBF10921B
:101A1000E9008091E80083FF25C068E0CE0145968B
:101A20000E946C0582EF8093E8008D8987FF39C0A2
:101A30009091E80090FFFCCF982F907609F034C188
:101A40009E894F89588D2F89F88C911131C080382B
:101A500061F58091E1018093F1001092F1008EEF29
:101A60008093E8006C960FB6F894DEBF0FBECDBF32
:101A7000DF91CF91FF91EF91BF91AF919F918F91A6
:101A80007F916F915F914F913F912F911F910F9196
:101A9000FF90EF90DF90CF900F900FBE0F901F90B0
:101AA00018959EEF9093E800C7CF1092F100D5CF24
:101AB000913059F48111D3CF4130510581F6809195
:101AC000E1018D7F8093E101CACF933049F4811108
:101AD000C6CF4130510519F68091E1018260F2CF05
:101AE000953041F48091E80080FFFCCF206820937E
:101AF000E300B5CF963009F0A9C00B8D1C8D22E014
:101B00001092E9001092DF011092DE01F2122EC055
:101B10001092DD011092DC010E943B051F8299E0CA
:101B20009983FA8291E09E8390EA98879AEF998749
:101B30002091DE013091DF01275F3F4F3C832B83F3
:101B40008D831092E9001092DF011092DE01109354
:101B5000DD010093DC0149E050E0BE016F5F7F4F83
:101B600080E00E9415050E943B0579CF1093DD01AE
:101B70000093DC010E945204DC0112960D911C912D
:101B80000115110509F451C1D801ED91FC910480B2
:101B9000F581E02DBE016B5E7F4FC801099500976E
:101BA00009F03EC1F80100851185EACFF3E0FF128C
:101BB0000EC08F89882309F440C0823061F440E868
:101BC0006DE08DEC96E00E946710811148CF81E2B4
:101BD0008093EB0047CF813029F440E86BE081EC43
:101BE00096E0F1CF833099F70E945204DC011296FF
:101BF000ED90FC908E010F5F1F4F6801E114F1041E
:101C000079F0D701ED91FC910680F781E02DB801C4
:101C1000C7010995080F111DF701E084F184EECF8B
:101C2000D8011C92F60101900020E9F73197BF011D
:101C30006C197D0940E0C601C6CF6BEA76E0FB0176
:101C4000449150E080E80E94150509CF973009F4CF
:101C5000BECF983021F481E08093F10000CF99301D
:101C600009F0FDCE837009F0B2CFE3E6F1E081E048
:101C700031E096E32191222371F08093E9003093C3
:101C8000EB00DF0111972C912093EC009093ED0075
:101C90008F5F873079F78EE78093EA001092EA0031
:101CA0008F898093F101DBCE8B8D9C8D1092E900A2
:101CB0001092DF011092DE019093DD018093DC0130
:101CC000898D811192C08E899D89913A49F4813222
:101CD00009F07DCF47E050E06AE571E080E0B3CFE6
:101CE000913209F074CF833269F48F89988DB0E016
:101CF000A0E08093560190935701A0935801B093B0
:101D00005901ADCE803269F48091E80082FFFCCFAA
:101D100067E08AE591E00E946C058BEF8093E80014
:101D20009ECE823209F09BCE8F8980936101EEEFC7
:101D3000FFE7859194918B3F9C4D51F1E0E0F8E0F5
:101D400080915A0190915B01A0915C01B0915D017D
:101D5000803B9440A105B105F1F48091610180FDC3
:101D60001AC0EE3F8AE0F80789F587E797E7918385
:101D70008083809160008093E00188E19BE00FB652
:101D8000F894A895809360000FBE9093600067CE92
:101D9000EEEFFAE0D5CF808191818737974709F040
:101DA0005ECEA895809160008861809360008091EC
:101DB000E00180936000EE3F2AE0F20789F0809115
:101DC000FE0A9091FF0A9183808349CE80819181A0
:101DD0008737980751F29093FF0A8093FE0AC5CF88
:101DE0001092FF0A1092FE0A3ACE0E945204DC01C1
:101DF00012960D911C910115110509F4E8CED80138
:101E0000ED91FC910190F081E02DBE016B5E7F4F62
:101E1000C8010995811123CEF80100851185EBCF0A
:101E2000181619060CF41BCED2CEF1E0FF12BECE6E
:101E30006FEA76E004CF1F920F920FB60F92112433
:101E40002F933F938F939F93AF93BF938091CE0136
:101E50009091CF01A091D001B091D1013091C801F2
:101E600023E0230F2D3758F50196A11DB11D2093B6
:101E7000C8018093CE019093CF01A093D001B0937D
:101E8000D1018091C9019091CA01A091CB01B0917B
:101E9000CC010196A11DB11D8093C9019093CA0187
:101EA000A093CB01B093CC01BF91AF919F918F9143
:101EB0003F912F910F900FBE0F901F90189526E81D
:101EC000230F0296A11DB11DD2CF1F920F920FB604
:101ED0000F921124CF92DF92EF92FF922F933F93B4
:101EE0004F935F936F937F938F939F93AF93BF9322
:101EF000CF93DF93EF93FF938091C4019091C5013D
:101F0000A091C601B091C701892B8A2B8B2B09F4B4
:101F100046C08091C30181110BC088B190E489272C
:101F200088B98091C201882319F088B1805888B996
:101F30008091C4019091C501A091C601B091C701E3
:101F4000181619061A061B069CF48091C40190917C
:101F5000C501A091C601B091C7010197A109B109BE
:101F60008093C4019093C501A093C601B093C701AB
:101F7000FF91EF91DF91CF91BF91AF919F918F91A1
:101F80007F916F915F914F913F912F91FF90EF90D3
:101F9000DF90CF900F900FBE0F901F9018950E946A
:101FA0008306811520E8920761F4809171008D7F8E
:101FB0008093710010929100469847981092C10149
:101FC000D7CF21E02093C101813020E8920731F47E
:101FD0001092C0011092BF010E94830697FD05C0B8
:101FE0002091BE01222309F454C02091BD0121118A
:101FF00050C021E02093C201EC01DF77209709F067
:102000004BC081E08093C30146983FE9C32E3FE077
:10201000D32EE12CF12CCAEFD0E0E0915006F091E4
:1020200051060995811103C081E08093C30180911D
:10203000C201882329F08091C301882309F43FC09D
:1020400047980E9483060097F1F19C01DE010E94EF
:10205000A519DC01CB0129E0B595A7959795879542
:102060002A95D1F7109290002AE020939100D09207
:102070009900C09298008093C4019093C501A093E9
:10208000C601B093C7018091710082608093710096
:102090006FCF1092C201B0CF9E0150E040E060E4EB
:1020A00072E48FE090E00E94641969017A0181E096
:1020B000C81AD108E108F1081092C301AECF4699C1
:1020C000BFCF479ABECF8FEF9FEFDC01CBCFEF9210
:1020D000FF920F931F93CF93DF93F82E192FE62EC5
:1020E000042F81E0860F880F0E94E70483E00E949E
:1020F000E704CF2DD12FEC0EFD2EF11CCE15DF0500
:10210000B9F007FF13C0FE0184910E94E704182F65
:1021100080E00E94E704812321968111EFCFDF91B7
:10212000CF911F910F91FF90EF9008958881EDCF8F
:1021300081E0F5CF0F931F93CF93DF938C0181E064
:1021400090E00E94760C80FF31C08AE090E00E940F
:10215000760C9FEF980F9E3F48F522E330E0D801C0
:1021600050963C932E931F9728E330E052963C9371
:102170002E935197CBE0D0E0D801ED91FC910190E6
:10218000F081E02D682FC8010995CE010E94760CE0
:102190002196C131D10581F70E94BE0388EE93E0FC
:1021A000DF91CF911F910F910C949906DF91CF9100
:1021B0001F910F91089504970C949A10E2EFF5E0A7
:1021C0001382128288EE93E0A0E0B0E084839583CE
:1021D000A683B7838DE691E0918380838FEF9FEF95
:1021E00095878487E2E5F6E01382128211861286D3
:1021F00080E183871086178215868FE791E09183AF
:1022000080838DE891E095838483108A1786128AF3
:10221000118A81E0838B148A858B168A89E993E081
:10222000909351068093500680E090E890934F067B
:1022300080934E0646983E9A47983F9A0895CF93CA
:10224000DF9300D000D01F92CDB7DEB7789484B56D
:10225000826084BD84B5816084BD85B5826085BDA2
:1022600085B5816085BD80916E00816080936E0030
:102270001092810080918100826080938100809122
:1022800081008160809381008091800081608093D3
:1022900080008091910082608093910080919100F4
:1022A0008160809391008091900081608093900084
:1022B0008091C10084608093C1008091C1008260E0
:1022C0008093C1008091C10081608093C1008091A2
:1022D000C30081608093C3008091C00082608093BE
:1022E000C0008091C20081608093C20080917A001A
:1022F000846080937A0080917A00826080937A0073
:1023000080917A00816080937A0080917A00806861
:1023100080937A001092F1011092E1011092E30192
:102320008091D70081608093D70080EA8093D800A5
:1023300089B5806189BD89B5826089BD09B400FE17
:10234000FDCF61E070E080E090E00E94CB058091DD
:10235000D8008F7C80618093D8008091E000807FDE
:102360008093E0008091E1008E7E8093E1008DE01B
:102370008093E200559A209A5D98289881EC80938A
:102380007C0085B1806F85B984B1877E84B984B1C2
:10239000876E84B95E9A5F988AB1806D8AB9769AA1
:1023A0006E9881B3806F81BB899880B38D7080BB3C
:1023B00080E58CBD81E08DBD85E090E00E949906AE
:1023C0005F9A85E090E00E9499065E985C98ECE543
:1023D000F6E084918EBD00000DB407FEFDCF31966E
:1023E00026E0E936F207A9F75C9A81E88093640059
:1023F000809165008160809365000E94BE030E9409
:102400009E0687FF15C05C9885EA8EBD00000DB45E
:1024100007FEFDCF5C9A2E982F982D98809164002E
:1024200080628093640081E083BF889513BEFCCFF7
:102430000E949E0682FF48C02D980E949E068478C6
:102440008438E1F40E94970688EC90E00E94990697
:102450002F9882E090E00E944E198F3F29F06FEF95
:1024600082E090E00E94561984EF91E00E94990664
:102470002F9A0E949E0684788438D9F30E949E0683
:1024800084718431E1F40E94970688EC90E00E9408
:1024900099062E9882E090E00E944E19882329F038
:1024A00060E082E090E00E94561984EF91E00E9483
:1024B00099062E9A0E949E0684718431D9F388EC85
:1024C00090E00E949906B4CF0E94970682E090E0C7
:1024D0000E94760C882309F44BC03E9A3F9A81E013
:1024E0008093CD0181E090E00E94760C382F34700B
:1024F000732E81FF10C031112E98A0EF2A2E3324A5
:102500003A9408E010E00E949E0686FF36C02E9A9C
:102510002F9A0E94970682E390E00E9499060E94FB
:102520009E068111F8CF81E280935D060E949C0394
:102530008FB7F8944091CE015091CF016091D001B6
:102540007091D1018FBF80915E06942F981B892FC7
:1025500090915F06992309F4B2C0809360061092AF
:102560005F06E0E0F0E0EF2B19F30E940000E0CFFF
:102570001092CD013E983F98B5CF772031F044E0DE
:102580002416310411F42E9A2F9881E00E94AF0393
:10259000910137FE04C022273327221933092770FF
:1025A0003327C10137FC0796F3E095958795FA9597
:1025B000E1F737FE05C00197F801E21BF30B9F011D
:1025C000BC017695762F662777956795F12CE12CDF
:1025D0002801421A530A8F3FFFEF9F070CF448C0AF
:1025E00048E5642E6E9C50016F9CB00C1124DB01F9
:1025F000AE50BE4F50E040E0F501E455FA4F5F01A8
:10260000FB01EE58FD4F4F018F3F980781F0F50118
:10261000E40FF51FE491022E01C0EE0F0A94EAF7D1
:102620005496FC915497EF2B5496EC9354972115A4
:102630003105C1F0F501E40FF51F64906401C40E8B
:10264000D51EE62DF0E0042C02C0F595E7950A941E
:10265000E2F7FC83EB83F601F489FD836B806F2A3C
:10266000F601648A4F5F5F4F11964835510561F658
:10267000019660587F4FEA94EF28E9F40E94BE0368
:102680008FE090E00E9499062FEF221A320A39E17A
:102690002316310409F037CF772011F02F9A2D98A7
:1026A00080E991E00E9499060E94970682E596E0F3
:1026B0000E949A1030CFEE24E394F12C8CCF9091AD
:1026C0005D06891748F48F5F891708F04ACFE1E06B
:1026D000E3BF889513BE45CFF1E0F0935F064093CA
:1026E0005E068091590690915A06019690935A067B
:1026F0008093590680915B0680935C060E949E063B
:1027000080935B068091DB0181113FC00E949C0396
:10271000109262061092610626E130E03093640662
:102720002093630682E0809367068FE891E00E9421
:10273000690C31E0309367064AE250E0509362063C
:10274000409361068DE290E0909364068093630667
:102750008BE991E00E94690C0E94BE0380915C06A7
:1027600083FD04C090915B0693FD06C087FD0DC0FC
:1027700080915B0687FF09C051E05093DB0181E047
:1027800090E00E94FA080E949C038091DB01813056
:1027900009F078C50E949C0380915501E82FF0E074
:1027A000FC83EB8320E031E03A8329831901F101B6
:1027B0008481813099F48091D6019091D70101965E
:1027C00068E770E00E94801B9093D7018093D60148
:1027D0002081CC970CF080C02F5F2083F101828193
:1027E000813009F07BC061816250770B808124E0E9
:1027F00044E08250990B0E94600736E0230E311CA2
:1028000040E351E04215530591F6E090D501F12CDB
:10281000C090D401D12C29E047E0B701C6010E9445
:1028200060078091D901811134C001E029E047E0BF
:10283000B701C6010E94B707B7016D5F7F4FA601C0
:102840004B5F5F4F00E09B01C60103960E94C406E8
:10285000E090D301F12C470153E0850E911CC0900C
:10286000D201D12C23E043E0B401C6010E946007ED
:1028700056018FEFA81AB80A01E09401A501B7012B
:10288000C5010E94C4069701A501B701C6010E94B7
:10289000C40620E440E870E060E090E080E00E9440
:1028A0006007EB81FC81319799F501E022E040E877
:1028B0006EE170E090E080E00E94B7072B813C81E0
:1028C0002730310509F03FC001E023E049E164E130
:1028D00070E090E080E07DC021507FCF823009F031
:1028E0008CCF8181282F2250330B6901E080F12C9D
:1028F00024E044E0B601C70102970E94600700E0AF
:1029000024E042E0B601C70101970E94B70775CFE6
:102910002B813C812230310541F24B815C81433077
:102920005105D1F401E023E04CE06EE170E088E66F
:1029300090E00E94B70723E04CE06EE170E08CE28B
:1029400090E00E94B7074B815C814930510509F541
:1029500001E023E044E1BBCF8B819C81059729F501
:1029600001E023E04CE06EE170E089E690E00E9437
:10297000B70723E04CE06DE270E083E790E00E944F
:10298000B70723E04CE067E370E08FE590E00E943A
:10299000B7078B819C810B97F1F401E020E443E0C1
:1029A00070E060E080E490E014C0EB81FC81369739
:1029B00009F084CF01E023E044E164E170E090E0BD
:1029C00080E00E94B70724E143E070E060E084E12A
:1029D00090E00E94B70740903C0150903D0160900C
:1029E0003E0170903F01409240015092410160923F
:1029F000420170924301C0903401D0903501E090C3
:102A00003601F0903701C701B6010E94261A4B012A
:102A100060913001709131018091320190913301C8
:102A20000E94261ACB0140E0B4010E94A6066091E4
:102A300038017091390180913A0190913B010E94D7
:102A4000261A7C836B8360913001709131018091F3
:102A5000320190913301EB81FC813097E1F120E06C
:102A600030E040E85FE31E161F060CF09EC10E9496
:102A7000B5194B015C018092300190923101A09216
:102A80003201B0923301C701B6010E942D1A162FF0
:102A9000C501B4010E942D1A862F612F0E94C10327
:102AA000813009F07BC120E030E040E85FE3C50100
:102AB000B4010E94B4196093300170933101809386
:102AC0003201909333011092380110923901109223
:102AD0003A0110923B01C301B2010E94261A7C8385
:102AE0006B838090300190903101A0903201B090C2
:102AF0003301C501B4010E942D1A162F60913401D3
:102B0000709135018091360190913701EB81FC8104
:102B10003097C1F120E030E040E85FE31E161F0669
:102B20000CF075C10E94B5196B017C01C092340193
:102B3000D0923501E0923601F09237010E942D1AB1
:102B4000812F0E94C103813009F05AC120E030E09A
:102B500040E85FE3C701B6010E94B41960933401F5
:102B60007093350180933601909337010E94D50B05
:102B7000892B41F410923C0110923D0110923E01CC
:102B800010923F01C0903401D0903501E0903601A1
:102B9000F090370120E030E040E85FE3C701B60184
:102BA0000E94B5190E942D1A812F0E94C103813005
:102BB00009F050C18093440120E030E040E05FE341
:102BC00060913C0170913D0180913E0190913F01E7
:102BD0000E94131B60933C0170933D0180933E0162
:102BE00090933F0180914401811150C040903C017D
:102BF00050903D0160903E0170903F0120E030E038
:102C000040E05FEBC301B2010E940E1B1816B4F442
:102C100020E030E040E05FE3C301B2010E94211AEE
:102C200087FF0CC080E090E0A0E0BFE380933C0110
:102C300090933D01A0933E01B0933F0140903C0131
:102C400050903D0160903E0170903F0160915101B4
:102C50007091520180915301909154012091D801BB
:102C600022502E3008F0F9C02DEC3CEC4CE45EE331
:102C70000E94131BA30192010E94B51960933C01AD
:102C800070933D0180933E0190933F01C701B601CF
:102C90000E94261A2B01C501B4010E94261ACB01FD
:102CA00041E0B2010E94A6060E94D50B2091DA01F4
:102CB000222321F02C3008F02BE021502093DA0160
:102CC00097FD07C1211105C156E0589F8001599F0A
:102CD000100D112400501F4FF801F381FB832DECE0
:102CE0003CEC4CE85FE360913801709139018091D0
:102CF0003A0190913B010E94131B6093380170933D
:102D0000390180933A0190933B0136E02B81329F49
:102D10009001112420503F4F3C832B83F901828185
:102D2000813009F09FC06081F8018081680F7727AA
:102D3000771F072E000C880B990B0E945E1AA501C5
:102D400094010E94B4196093300170933101809313
:102D5000320190933301EB81FC816181F801818123
:102D6000680F7727771F072E000C880B990B0E949E
:102D70005E1AA70196010E94B41960933401709302
:102D800035018093360190933701809140019091F5
:102D90004101A0914201B091430190C02B813C813F
:102DA000215031093C832B834ECE0E94B4194B0134
:102DB0005C018092300190923101A0923201B09278
:102DC0003301C701B6010E942D1A162FC501B401A7
:102DD0000E942D1A862F612F0E94C103813049F471
:102DE00020E030E040E85FE3C501B4010E94B5197E
:102DF00062CE4B815C814F5F5F4F5C834B8323CE00
:102E00002B813C81215031093C832B8377CE0E945A
:102E1000B4196B017C01C0923401D0923501E0926B
:102E20003601F09237010E942D1A812F0E94C103B2
:102E3000813049F420E030E040E85FE3C701B601AB
:102E40000E94B5198BCE4B815C814F5F5F4F5C83D5
:102E50004B8354CE10924401C5CE9B01AC01C301FB
:102E6000B2010ACF823009F010C2EB81FC8160818F
:102E700070E090E080E00E945C1A609330017093F3
:102E800031018093320190933301EB81FC816181A8
:102E900070E090E080E00E945C1A609334017093CF
:102EA00035018093360190933701809140019091D4
:102EB0004101A0914201B0914301B05880933C017F
:102EC00090933D01A0933E01B0933F01FAE0F0934F
:102ED000DA018091D901811165C0C0903001D09094
:102EE0003101E0903201F09033016090D201262D43
:102EF00030E03C832B83B90162507109072E000C2E
:102F0000880B990B0E945E1A9B01AC01C701B601A8
:102F10000E940E1B87FD46C06B817C816B5F7F4FDB
:102F2000072E000C880B990B0E945E1A9B01AC01C6
:102F3000C701B6010E94211A1816A4F1C0903401ED
:102F4000D0903501E0903601F09037014091D301E7
:102F5000842F90E09C838B83BC0162507109072E03
:102F6000000C880B990B0E945E1A9B01AC01C701F3
:102F7000B6010E940E1B87FD15C06B817C81685FC6
:102F80007F4F072E000C880B990B0E945E1A9B0145
:102F9000AC01C701B6010E94211A18161CF0E1E02D
:102FA000E093D9018091D901882309F4B8C0C09079
:102FB0003001D0903101E0903201F0903301F09176
:102FC000D4012F2F30E03C832B83B901625071096B
:102FD000072E000C880B990B0E945E1A9B01AC0116
:102FE000C701B6010E940E1B87FD99C06B817C81D1
:102FF000675F7F4F072E000C880B990B0E945E1AAB
:103000009B01AC01C701B6010E94211A18160CF4ED
:1030100086C0C0903401D0903501E0903601F09028
:1030200037014091D501842F90E09C838B83BC01B4
:1030300062507109072E000C880B990B0E945E1AD2
:103040009B01AC01C701B6010E940E1B87FD67C042
:103050006B817C81665F7F4F072E000C880B990B7C
:103060000E945E1A9B01AC01C701B6010E94211AA1
:1030700018160CF454C00E949C03E981FA81108256
:10308000118212821382148215823696FA83E983A2
:103090002E163F0691F7809155018F5F8093550161
:1030A00090E00E94FA081092D9012EE130E03093AE
:1030B000620620936106309364062093630683EAD8
:1030C00091E00E94690C81EB91E00E94690C0E94E2
:1030D000BE0388EB9BE00E949906809155018A30DF
:1030E000F1F40E949C0341E250E050936206409349
:1030F00061068EE190E0909364068093630684EB12
:1031000091E00E94690C81EB91E00E94690C0E94A1
:10311000BE0388EB9BE00E9499061092DB010E949F
:103120009E0685FF16C020E030E040E85FE3609136
:1031300038017091390180913A0190913B010E94D0
:10314000B419609338017093390180933A019093D8
:103150003B010E949E0686FF16C020E030E040E85A
:103160005FE3609138017091390180913A0190914B
:103170003B010E94B5196093380170933901809327
:103180003A0190933B0180915C0687FD1BC08091C2
:103190005B0687FF17C080914401882399F08091D6
:1031A0004D0190914E01A0914F01B091500180933B
:1031B0003C0190933D01A0933E01B0933F0191E00B
:1031C0009093D8010E949E0687FF65C08091D80128
:1031D0008F5F8093D8012AE939E949E15FE3609183
:1031E00038017091390180913A0190913B010E9420
:1031F000131B8B018B8399838090490190904A0126
:10320000A0904B01B0904C0175016401F7FAF09465
:10321000F7F8F094A70196010E94211A87FD0EC0CD
:10322000A5019401B8018B8199810E940E1B750143
:10323000640118161CF06801EB80F980C092380117
:10324000D0923901E0923A01F0923B012DEC3CEC36
:103250004CE45EE3C701B6010E94211A87FF12C049
:103260002DEC3CEC4CE45EEBC701B6010E940E1B5A
:10327000181644F4109238011092390110923A0154
:1032800010923B010E94BE036CC9863009F01ECE2D
:10329000EB81FC8148CD1092D8019DCFF999FECFEA
:1032A00092BD81BDF89A992780B50895262FF99986
:1032B000FECF1FBA92BD81BD20BD0FB6F894FA9A19
:1032C000F99A0FBE01960895052E97FB1EF40094FF
:1032D0000E947B1957FD07D00E94831907FC03D079
:1032E0004EF40C947B1950954095309521953F4FA5
:1032F0004F4F5F4F089590958095709561957F4FE2
:103300008F4F9F4F0895A1E21A2EAA1BBB1BFD01F0
:103310000DC0AA1FBB1FEE1FFF1FA217B307E407B4
:10332000F50720F0A21BB30BE40BF50B661F771F0C
:10333000881F991F1A9469F76095709580959095EC
:103340009B01AC01BD01CF010895A29FB001B39FC5
:10335000C001A39F700D811D1124911DB29F700D9E
:10336000811D1124911D08955058BB27AA270E9442
:10337000CC190C94D41A0E94C61A38F00E94CD1AA7
:1033800020F039F49F3F19F426F40C94C31A0EF47C
:10339000E095E7FB0C94BD1AE92F0E94E51A58F35B
:1033A000BA17620773078407950720F079F4A6F52A
:1033B0000C94071B0EF4E0950B2EBA2FA02D0B01D9
:1033C000B90190010C01CA01A0011124FF27591B6A
:1033D00099F0593F50F4503E68F11A16F040A22F70
:1033E000232F342F4427585FF3CF469537952795E1
:1033F000A795F0405395C9F77EF41F16BA0B620BE0
:10340000730B840BBAF09150A1F0FF0FBB1F661F26
:10341000771F881FC2F70EC0BA0F621F731F841F69
:1034200048F4879577956795B795F7959E3F08F08F
:10343000B0CF9395880F08F09927EE0F9795879551
:1034400008950E94991A08F481E008950E942D1AA7
:103450006894B1110C94081B08950E94ED1A88F02D
:103460009F5798F0B92F9927B751B0F0E1F0660F48
:10347000771F881F991F1AF0BA95C9F714C0B13089
:1034800091F00E94071BB1E008950C94071B672F71
:10349000782F8827B85F39F0B93FCCF386957795B8
:1034A0006795B395D9F73EF49095809570956195A1
:1034B0007F4F8F4F9F4F0895E89409C097FB3EF4CC
:1034C00090958095709561957F4F8F4F9F4F992371
:1034D000A9F0F92F96E9BB279395F69587957795EF
:1034E0006795B795F111F8CFFAF4BB0F11F460FFAF
:1034F0001BC06F5F7F4F8F4F9F4F16C0882311F007
:1035000096E911C0772321F09EE8872F762F05C01A
:10351000662371F096E8862F70E060E02AF09A95B5
:10352000660F771F881FDAF7880F9695879597F9AA
:103530000895990F0008550FAA0BE0E8FEEF161644
:103540001706E807F907C0F012161306E407F50797
:1035500098F0621B730B840B950B39F40A2661F00B
:10356000232B242B252B21F408950A2609F4A140AE
:10357000A6958FEF811D811D089597F99F6780E8BB
:1035800070E060E008959FEF80EC089500240A94B5
:103590001616170618060906089500240A9412162E
:1035A0001306140605060895092E0394000C11F461
:1035B000882352F0BB0F40F4BF2B11F460FF04C00E
:1035C0006F5F7F4F8F4F9F4F089557FD9058440F67
:1035D000551F59F05F3F71F04795880F97FB991F72
:1035E00061F09F3F79F0879508951216130614062F
:1035F000551FF2CF4695F1DF08C0161617061806BC
:10360000991FF1CF86957105610508940895E89496
:10361000BB2766277727CB0197F908950E94991A4F
:1036200008F48FEF08950E94261B0C94D41A0E9470
:10363000C61A38F00E94CD1A20F0952311F00C9490
:10364000BD1A0C94C31A11240C94081B0E94E51A8D
:1036500070F3959FC1F3950F50E0551F629FF001E5
:10366000729FBB27F00DB11D639FAA27F00DB11DFE
:10367000AA1F649F6627B00DA11D661F829F222787
:10368000B00DA11D621F739FB00DA11D621F839F0E
:10369000A00D611D221F749F3327A00D611D231FE4
:1036A000849F600D211D822F762F6A2F11249F5732
:1036B00050409AF0F1F088234AF0EE0FFF1FBB1F35
:1036C000661F771F881F91505040A9F79E3F5105F4
:1036D00080F00C94BD1A0C94081B5F3FE4F3983EF5
:1036E000D4F3869577956795B795F795E7959F5F9E
:1036F000C1F7FE2B880F911D9695879597F9089530
:1037000097FB072E16F4009407D077FD09D00E948E
:10371000941B07FC05D03EF4909581959F4F08952A
:10372000709561957F4F0895AA1BBB1B51E107C09F
:10373000AA1FBB1FA617B70710F0A61BB70B881F41
:10374000991F5A95A9F780959095BC01CD010895D0
:10375000EE0FFF1F0590F491E02D099481E090E0B9
:0A376000F8940C94B31BF894FFCF0B
:10376A00000001000000000001000000000000004D
:10377A00000000000000000000000000000000003F
:10378A00000000000000000000000000000000002F
:10379A000000A0400000A04000000000000000005F
:1037AA0000000000000000803F0000004000000010
:1037BA00C09A99993E01FFFFFFFF00E10000000057
:1037CA00000000C18081000000000000006604FEC5
:1037DA000587047C04CD048B04A90400000000F3CF
:1037EA00077905F708F6089A10FCFF0000DB10506D
:1037FA006958656C506F5274416C005072657373EE
:10380A002041004C4556454C20434C4541524544C5
:0C381A00000D0A0054484520454E4400B3
:00000001FF
